{"contracts/DonationPlatform.sol":{"DonationPlatform":{"abi":[{"inputs":[],"stateMutability":"nonpayable","type":"constructor"},{"inputs":[],"name":"AlreadyApproved","type":"error"},{"inputs":[],"name":"ArrayLengthMismatch","type":"error"},{"inputs":[],"name":"BelowMinimumDonation","type":"error"},{"inputs":[],"name":"DonationAlreadyWithdrawn","type":"error"},{"inputs":[],"name":"DonationNotFound","type":"error"},{"inputs":[],"name":"DuplicateApprover","type":"error"},{"inputs":[],"name":"FeeOnTransferTokenBlocked","type":"error"},{"inputs":[],"name":"InsufficientApprovals","type":"error"},{"inputs":[],"name":"InsufficientBalance","type":"error"},{"inputs":[],"name":"InvalidAddress","type":"error"},{"inputs":[],"name":"InvalidAmount","type":"error"},{"inputs":[],"name":"InvalidTokenMatch","type":"error"},{"inputs":[],"name":"MaxApproversReached","type":"error"},{"inputs":[],"name":"MaxNGOCountReached","type":"error"},{"inputs":[],"name":"MaxWithdrawalItemsExceeded","type":"error"},{"inputs":[],"name":"NGOAlreadyRegistered","type":"error"},{"inputs":[],"name":"NGOInactive","type":"error"},{"inputs":[],"name":"NGONotFound","type":"error"},{"inputs":[],"name":"NoPendingRequests","type":"error"},{"inputs":[],"name":"NotApprover","type":"error"},{"inputs":[],"name":"NotInEmergencyMode","type":"error"},{"inputs":[],"name":"OwnerCannotBeNGO","type":"error"},{"inputs":[],"name":"PurposeHashMismatch","type":"error"},{"inputs":[],"name":"RequestAlreadyExecuted","type":"error"},{"inputs":[],"name":"RequestAlreadyRejected","type":"error"},{"inputs":[],"name":"RequestNotExpired","type":"error"},{"inputs":[],"name":"RequestNotFound","type":"error"},{"inputs":[],"name":"TokenNotWhitelisted","type":"error"},{"inputs":[],"name":"TooManyPendingRequests","type":"error"},{"inputs":[],"name":"TotalAmountOverflow","type":"error"},{"inputs":[],"name":"UnauthorizedCaller","type":"error"},{"inputs":[],"name":"WithdrawalCooldown","type":"error"},{"inputs":[],"name":"WithdrawalsPaused","type":"error"},{"anonymous":false,"inputs":[{"indexed":true,"internalType":"uint256","name":"donationId","type":"uint256"},{"indexed":true,"internalType":"address","name":"donor","type":"address"},{"indexed":true,"internalType":"address","name":"designatedNGO","type":"address"},{"indexed":false,"internalType":"address","name":"token","type":"address"},{"indexed":false,"internalType":"uint96","name":"amount","type":"uint96"},{"indexed":false,"internalType":"bytes32","name":"messageHash","type":"bytes32"},{"indexed":false,"internalType":"uint64","name":"timestamp","type":"uint64"}],"name":"DonationReceived","type":"event"},{"anonymous":false,"inputs":[{"indexed":true,"internalType":"uint256","name":"donationId","type":"uint256"},{"indexed":true,"internalType":"address","name":"donor","type":"address"},{"indexed":false,"internalType":"uint96","name":"amount","type":"uint96"},{"indexed":false,"internalType":"uint64","name":"timestamp","type":"uint64"}],"name":"DonationRefunded","type":"event"},{"anonymous":false,"inputs":[{"indexed":true,"internalType":"address","name":"ngo","type":"address"},{"indexed":true,"internalType":"address","name":"token","type":"address"},{"indexed":false,"internalType":"uint96","name":"amount","type":"uint96"},{"indexed":true,"internalType":"address","name":"to","type":"address"},{"indexed":false,"internalType":"uint64","name":"timestamp","type":"uint64"}],"name":"EmergencyFundsRecovered","type":"event"},{"anonymous":false,"inputs":[{"indexed":false,"internalType":"bool","name":"activated","type":"bool"},{"indexed":false,"internalType":"uint64","name":"timestamp","type":"uint64"}],"name":"EmergencyModeChanged","type":"event"},{"anonymous":false,"inputs":[{"indexed":true,"internalType":"address","name":"token","type":"address"},{"indexed":false,"internalType":"uint96","name":"amount","type":"uint96"},{"indexed":false,"internalType":"uint64","name":"timestamp","type":"uint64"}],"name":"FeeCollected","type":"event"},{"anonymous":false,"inputs":[{"indexed":true,"internalType":"address","name":"oldCollector","type":"address"},{"indexed":true,"internalType":"address","name":"newCollector","type":"address"},{"indexed":false,"internalType":"uint64","name":"timestamp","type":"uint64"}],"name":"FeeCollectorUpdated","type":"event"},{"anonymous":false,"inputs":[{"indexed":true,"internalType":"address","name":"token","type":"address"},{"indexed":false,"internalType":"bool","name":"status","type":"bool"},{"indexed":false,"internalType":"uint64","name":"timestamp","type":"uint64"}],"name":"FeeOnTransferBlacklisted","type":"event"},{"anonymous":false,"inputs":[{"indexed":true,"internalType":"address","name":"token","type":"address"},{"indexed":false,"internalType":"uint96","name":"amount","type":"uint96"},{"indexed":true,"internalType":"address","name":"to","type":"address"},{"indexed":false,"internalType":"uint64","name":"timestamp","type":"uint64"}],"name":"FeeWithdrawn","type":"event"},{"anonymous":false,"inputs":[{"indexed":true,"internalType":"address","name":"ngo","type":"address"},{"indexed":true,"internalType":"address","name":"token","type":"address"},{"indexed":false,"internalType":"uint96","name":"amount","type":"uint96"},{"indexed":false,"internalType":"uint64","name":"timestamp","type":"uint64"}],"name":"GeneralPoolAllocated","type":"event"},{"anonymous":false,"inputs":[{"indexed":true,"internalType":"address","name":"ngo","type":"address"},{"indexed":true,"internalType":"address","name":"token","type":"address"},{"indexed":false,"internalType":"uint96","name":"amount","type":"uint96"},{"indexed":false,"internalType":"bytes32","name":"purposeHash","type":"bytes32"},{"indexed":false,"internalType":"uint64","name":"timestamp","type":"uint64"}],"name":"GeneralPoolWithdrawalExecuted","type":"event"},{"anonymous":false,"inputs":[{"indexed":true,"internalType":"address","name":"ngo","type":"address"},{"indexed":false,"internalType":"uint8","name":"oldMin","type":"uint8"},{"indexed":false,"internalType":"uint8","name":"newMin","type":"uint8"},{"indexed":false,"internalType":"uint64","name":"timestamp","type":"uint64"}],"name":"MinApprovalsUpdated","type":"event"},{"anonymous":false,"inputs":[{"indexed":true,"internalType":"address","name":"ngo","type":"address"},{"indexed":true,"internalType":"address","name":"approver","type":"address"},{"indexed":false,"internalType":"bool","name":"status","type":"bool"},{"indexed":false,"internalType":"uint64","name":"timestamp","type":"uint64"}],"name":"NGOApproverUpdated","type":"event"},{"anonymous":false,"inputs":[{"indexed":true,"internalType":"address","name":"ngo","type":"address"},{"indexed":false,"internalType":"bytes32","name":"nameHash","type":"bytes32"},{"indexed":false,"internalType":"uint8","name":"approversCount","type":"uint8"},{"indexed":false,"internalType":"uint8","name":"minApprovals","type":"uint8"},{"indexed":false,"internalType":"uint64","name":"timestamp","type":"uint64"}],"name":"NGORegistered","type":"event"},{"anonymous":false,"inputs":[{"indexed":true,"internalType":"address","name":"ngo","type":"address"},{"indexed":false,"internalType":"bool","name":"isActive","type":"bool"},{"indexed":false,"internalType":"uint64","name":"timestamp","type":"uint64"}],"name":"NGOStatusUpdated","type":"event"},{"anonymous":false,"inputs":[{"indexed":true,"internalType":"address","name":"ngo","type":"address"},{"indexed":false,"internalType":"bool","name":"paused","type":"bool"},{"indexed":true,"internalType":"address","name":"by","type":"address"},{"indexed":false,"internalType":"uint64","name":"timestamp","type":"uint64"}],"name":"NGOWithdrawalsPaused","type":"event"},{"anonymous":false,"inputs":[{"indexed":true,"internalType":"address","name":"previousOwner","type":"address"},{"indexed":true,"internalType":"address","name":"newOwner","type":"address"}],"name":"OwnershipTransferStarted","type":"event"},{"anonymous":false,"inputs":[{"indexed":true,"internalType":"address","name":"previousOwner","type":"address"},{"indexed":true,"internalType":"address","name":"newOwner","type":"address"}],"name":"OwnershipTransferred","type":"event"},{"anonymous":false,"inputs":[{"indexed":false,"internalType":"address","name":"account","type":"address"}],"name":"Paused","type":"event"},{"anonymous":false,"inputs":[{"indexed":false,"internalType":"uint8","name":"oldPercent","type":"uint8"},{"indexed":false,"internalType":"uint8","name":"newPercent","type":"uint8"},{"indexed":false,"internalType":"uint64","name":"timestamp","type":"uint64"}],"name":"PlatformFeeUpdated","type":"event"},{"anonymous":false,"inputs":[{"indexed":true,"internalType":"address","name":"token","type":"address"},{"indexed":false,"internalType":"bool","name":"status","type":"bool"},{"indexed":false,"internalType":"uint64","name":"timestamp","type":"uint64"}],"name":"TokenWhitelisted","type":"event"},{"anonymous":false,"inputs":[{"indexed":false,"internalType":"address","name":"account","type":"address"}],"name":"Unpaused","type":"event"},{"anonymous":false,"inputs":[{"indexed":true,"internalType":"uint256","name":"requestId","type":"uint256"},{"indexed":true,"internalType":"address","name":"approver","type":"address"},{"indexed":false,"internalType":"uint8","name":"totalApprovals","type":"uint8"},{"indexed":false,"internalType":"uint64","name":"timestamp","type":"uint64"}],"name":"WithdrawalApproved","type":"event"},{"anonymous":false,"inputs":[{"indexed":true,"internalType":"uint256","name":"requestId","type":"uint256"},{"indexed":true,"internalType":"address","name":"ngo","type":"address"},{"indexed":false,"internalType":"address","name":"token","type":"address"},{"indexed":false,"internalType":"uint96","name":"amount","type":"uint96"},{"indexed":false,"internalType":"uint64","name":"timestamp","type":"uint64"}],"name":"WithdrawalExecuted","type":"event"},{"anonymous":false,"inputs":[{"indexed":true,"internalType":"uint256","name":"requestId","type":"uint256"},{"indexed":true,"internalType":"address","name":"rejectedBy","type":"address"},{"indexed":false,"internalType":"uint64","name":"timestamp","type":"uint64"}],"name":"WithdrawalRejected","type":"event"},{"anonymous":false,"inputs":[{"indexed":true,"internalType":"uint256","name":"requestId","type":"uint256"},{"indexed":true,"internalType":"address","name":"ngo","type":"address"},{"indexed":false,"internalType":"uint64","name":"timestamp","type":"uint64"}],"name":"WithdrawalRequestCancelled","type":"event"},{"anonymous":false,"inputs":[{"indexed":true,"internalType":"uint256","name":"requestId","type":"uint256"},{"indexed":true,"internalType":"address","name":"ngo","type":"address"},{"indexed":false,"internalType":"address","name":"token","type":"address"},{"indexed":false,"internalType":"uint96","name":"amount","type":"uint96"},{"indexed":false,"internalType":"bytes32","name":"purposeHash","type":"bytes32"},{"indexed":false,"internalType":"uint64","name":"timestamp","type":"uint64"}],"name":"WithdrawalRequestCreated","type":"event"},{"anonymous":false,"inputs":[{"indexed":true,"internalType":"uint256","name":"requestId","type":"uint256"},{"indexed":true,"internalType":"address","name":"expiredBy","type":"address"},{"indexed":false,"internalType":"uint64","name":"timestamp","type":"uint64"}],"name":"WithdrawalRequestExpired","type":"event"},{"inputs":[],"name":"acceptOwnership","outputs":[],"stateMutability":"nonpayable","type":"function"},{"inputs":[],"name":"activateEmergencyMode","outputs":[],"stateMutability":"nonpayable","type":"function"},{"inputs":[{"internalType":"address","name":"ngo","type":"address"},{"internalType":"address","name":"token","type":"address"},{"internalType":"uint96","name":"amount","type":"uint96"}],"name":"allocateGeneralPoolFunds","outputs":[],"stateMutability":"nonpayable","type":"function"},{"inputs":[{"internalType":"uint256","name":"requestId","type":"uint256"}],"name":"approveWithdrawalRequest","outputs":[],"stateMutability":"nonpayable","type":"function"},{"inputs":[{"internalType":"uint256","name":"requestId","type":"uint256"}],"name":"cancelWithdrawalRequest","outputs":[],"stateMutability":"nonpayable","type":"function"},{"inputs":[],"name":"collectedNativeFees","outputs":[{"internalType":"uint256","name":"","type":"uint256"}],"stateMutability":"view","type":"function"},{"inputs":[{"internalType":"address","name":"","type":"address"}],"name":"collectedTokenFees","outputs":[{"internalType":"uint256","name":"","type":"uint256"}],"stateMutability":"view","type":"function"},{"inputs":[{"internalType":"address","name":"token","type":"address"},{"internalType":"uint96","name":"amount","type":"uint96"},{"internalType":"bytes32","name":"purposeHash","type":"bytes32"},{"internalType":"string","name":"purposeRawString","type":"string"},{"internalType":"uint256[]","name":"donationIds","type":"uint256[]"},{"internalType":"uint96[]","name":"withdrawalAmounts","type":"uint96[]"}],"name":"createWithdrawalRequest","outputs":[{"internalType":"uint256","name":"requestId","type":"uint256"}],"stateMutability":"nonpayable","type":"function"},{"inputs":[],"name":"deactivateEmergencyMode","outputs":[],"stateMutability":"nonpayable","type":"function"},{"inputs":[{"internalType":"bytes32","name":"messageHash","type":"bytes32"}],"name":"donateNative","outputs":[],"stateMutability":"payable","type":"function"},{"inputs":[{"internalType":"address","name":"ngo","type":"address"},{"internalType":"bytes32","name":"messageHash","type":"bytes32"}],"name":"donateToNGO","outputs":[],"stateMutability":"payable","type":"function"},{"inputs":[{"internalType":"address","name":"token","type":"address"},{"internalType":"uint96","name":"amount","type":"uint96"},{"internalType":"address","name":"designatedNGO","type":"address"},{"internalType":"bytes32","name":"messageHash","type":"bytes32"}],"name":"donateToken","outputs":[],"stateMutability":"nonpayable","type":"function"},{"inputs":[],"name":"emergencyMode","outputs":[{"internalType":"bool","name":"","type":"bool"}],"stateMutability":"view","type":"function"},{"inputs":[{"internalType":"address","name":"ngo","type":"address"},{"internalType":"address","name":"token","type":"address"},{"internalType":"uint96","name":"amount","type":"uint96"}],"name":"emergencyRecoverNGOFunds","outputs":[],"stateMutability":"nonpayable","type":"function"},{"inputs":[{"internalType":"uint256","name":"donationId","type":"uint256"}],"name":"emergencyRefund","outputs":[],"stateMutability":"nonpayable","type":"function"},{"inputs":[{"internalType":"uint256","name":"requestId","type":"uint256"}],"name":"executeWithdrawal","outputs":[],"stateMutability":"nonpayable","type":"function"},{"inputs":[{"internalType":"uint256","name":"requestId","type":"uint256"}],"name":"expireWithdrawalRequest","outputs":[],"stateMutability":"nonpayable","type":"function"},{"inputs":[],"name":"feeCollector","outputs":[{"internalType":"address","name":"","type":"address"}],"stateMutability":"view","type":"function"},{"inputs":[{"internalType":"address","name":"","type":"address"}],"name":"feeOnTransferBlacklist","outputs":[{"internalType":"bool","name":"","type":"bool"}],"stateMutability":"view","type":"function"},{"inputs":[{"internalType":"uint256","name":"start","type":"uint256"},{"internalType":"uint256","name":"limit","type":"uint256"}],"name":"getAllNGOs","outputs":[{"internalType":"address[]","name":"result","type":"address[]"}],"stateMutability":"view","type":"function"},{"inputs":[{"internalType":"uint256","name":"donationId","type":"uint256"}],"name":"getDonation","outputs":[{"components":[{"internalType":"address","name":"donor","type":"address"},{"internalType":"address","name":"designatedNGO","type":"address"},{"internalType":"address","name":"tokenAddress","type":"address"},{"internalType":"uint96","name":"amount","type":"uint96"},{"internalType":"uint64","name":"timestamp","type":"uint64"},{"internalType":"uint96","name":"withdrawnAmount","type":"uint96"},{"internalType":"bool","name":"isWithdrawn","type":"bool"}],"internalType":"struct DonationPlatform.DonationRecord","name":"","type":"tuple"}],"stateMutability":"view","type":"function"},{"inputs":[{"internalType":"address","name":"ngo","type":"address"}],"name":"getGeneralCooldownRemaining","outputs":[{"internalType":"uint256","name":"","type":"uint256"}],"stateMutability":"view","type":"function"},{"inputs":[{"internalType":"address","name":"ngo","type":"address"},{"internalType":"address","name":"token","type":"address"}],"name":"getNGOBalance","outputs":[{"internalType":"uint96","name":"","type":"uint96"}],"stateMutability":"view","type":"function"},{"inputs":[{"internalType":"address","name":"ngo","type":"address"}],"name":"getNGOInfo","outputs":[{"internalType":"address","name":"ngoAddress","type":"address"},{"internalType":"uint96","name":"totalWithdrawn","type":"uint96"},{"internalType":"uint64","name":"lastWithdrawal","type":"uint64"},{"internalType":"uint64","name":"lastGeneralWithdrawal","type":"uint64"},{"internalType":"uint32","name":"withdrawalCount","type":"uint32"},{"internalType":"uint16","name":"pendingRequests","type":"uint16"},{"internalType":"bool","name":"isActive","type":"bool"},{"internalType":"bool","name":"withdrawalsPaused","type":"bool"},{"internalType":"uint8","name":"minApprovals","type":"uint8"},{"internalType":"uint8","name":"approversCount","type":"uint8"}],"stateMutability":"view","type":"function"},{"inputs":[{"internalType":"address","name":"ngo","type":"address"}],"name":"getPendingRequestCount","outputs":[{"internalType":"uint256","name":"","type":"uint256"}],"stateMutability":"view","type":"function"},{"inputs":[{"internalType":"address","name":"ngo","type":"address"},{"internalType":"uint256","name":"start","type":"uint256"},{"internalType":"uint256","name":"limit","type":"uint256"}],"name":"getPendingRequests","outputs":[{"internalType":"uint256[]","name":"result","type":"uint256[]"}],"stateMutability":"view","type":"function"},{"inputs":[],"name":"getPlatformStats","outputs":[{"internalType":"uint256","name":"totalDonations","type":"uint256"},{"internalType":"uint256","name":"activeNGOs","type":"uint256"},{"internalType":"uint256","name":"uniqueDonors","type":"uint256"},{"internalType":"uint256","name":"contractNativeBalance","type":"uint256"},{"internalType":"uint256","name":"totalPendingRequests","type":"uint256"},{"internalType":"uint256","name":"pendingNativeFees","type":"uint256"},{"internalType":"uint256","name":"registeredNGOs","type":"uint256"}],"stateMutability":"view","type":"function"},{"inputs":[{"internalType":"uint256","name":"requestId","type":"uint256"},{"internalType":"address","name":"approver","type":"address"}],"name":"getRequestApprovalStatus","outputs":[{"internalType":"bool","name":"","type":"bool"}],"stateMutability":"view","type":"function"},{"inputs":[],"name":"getTotalNGOs","outputs":[{"internalType":"uint256","name":"","type":"uint256"}],"stateMutability":"view","type":"function"},{"inputs":[{"internalType":"address","name":"ngo","type":"address"}],"name":"getWithdrawalCooldownRemaining","outputs":[{"internalType":"uint256","name":"","type":"uint256"}],"stateMutability":"view","type":"function"},{"inputs":[{"internalType":"address","name":"","type":"address"},{"internalType":"address","name":"","type":"address"}],"name":"isNGOApprover","outputs":[{"internalType":"bool","name":"","type":"bool"}],"stateMutability":"view","type":"function"},{"inputs":[{"internalType":"address","name":"","type":"address"}],"name":"isRegisteredNGO","outputs":[{"internalType":"bool","name":"","type":"bool"}],"stateMutability":"view","type":"function"},{"inputs":[{"internalType":"uint256","name":"requestId","type":"uint256"}],"name":"isRequestExpired","outputs":[{"internalType":"bool","name":"","type":"bool"}],"stateMutability":"view","type":"function"},{"inputs":[{"internalType":"address","name":"ngo","type":"address"},{"internalType":"address","name":"approver","type":"address"},{"internalType":"bool","name":"status","type":"bool"}],"name":"manageNGOApprover","outputs":[],"stateMutability":"nonpayable","type":"function"},{"inputs":[{"internalType":"address","name":"","type":"address"}],"name":"minTokenDonation","outputs":[{"internalType":"uint256","name":"","type":"uint256"}],"stateMutability":"view","type":"function"},{"inputs":[{"internalType":"address","name":"","type":"address"},{"internalType":"address","name":"","type":"address"}],"name":"ngoBalances","outputs":[{"internalType":"uint96","name":"","type":"uint96"}],"stateMutability":"view","type":"function"},{"inputs":[{"internalType":"address","name":"","type":"address"}],"name":"ngoRecords","outputs":[{"internalType":"address","name":"ngoAddress","type":"address"},{"internalType":"uint96","name":"totalWithdrawn","type":"uint96"},{"internalType":"uint64","name":"lastWithdrawal","type":"uint64"},{"internalType":"uint64","name":"lastGeneralWithdrawal","type":"uint64"},{"internalType":"uint32","name":"withdrawalCount","type":"uint32"},{"internalType":"uint16","name":"pendingRequests","type":"uint16"},{"internalType":"bool","name":"isActive","type":"bool"},{"internalType":"bool","name":"withdrawalsPaused","type":"bool"}],"stateMutability":"view","type":"function"},{"inputs":[],"name":"owner","outputs":[{"internalType":"address","name":"","type":"address"}],"stateMutability":"view","type":"function"},{"inputs":[],"name":"pause","outputs":[],"stateMutability":"nonpayable","type":"function"},{"inputs":[{"internalType":"address","name":"ngo","type":"address"},{"internalType":"bool","name":"paused","type":"bool"}],"name":"pauseNGOWithdrawals","outputs":[],"stateMutability":"nonpayable","type":"function"},{"inputs":[],"name":"paused","outputs":[{"internalType":"bool","name":"","type":"bool"}],"stateMutability":"view","type":"function"},{"inputs":[],"name":"pendingOwner","outputs":[{"internalType":"address","name":"","type":"address"}],"stateMutability":"view","type":"function"},{"inputs":[],"name":"platformFeePercent","outputs":[{"internalType":"uint8","name":"","type":"uint8"}],"stateMutability":"view","type":"function"},{"inputs":[{"internalType":"address","name":"ngo","type":"address"},{"internalType":"bytes32","name":"nameHash","type":"bytes32"},{"internalType":"address[]","name":"approvers","type":"address[]"},{"internalType":"uint8","name":"minApprovals","type":"uint8"}],"name":"registerNGO","outputs":[],"stateMutability":"nonpayable","type":"function"},{"inputs":[{"internalType":"uint256","name":"requestId","type":"uint256"}],"name":"rejectWithdrawalRequest","outputs":[],"stateMutability":"nonpayable","type":"function"},{"inputs":[],"name":"renounceOwnership","outputs":[],"stateMutability":"nonpayable","type":"function"},{"inputs":[{"internalType":"address","name":"token","type":"address"},{"internalType":"bool","name":"status","type":"bool"}],"name":"setFeeOnTransferBlacklist","outputs":[],"stateMutability":"nonpayable","type":"function"},{"inputs":[{"internalType":"address","name":"token","type":"address"},{"internalType":"uint256","name":"minAmount","type":"uint256"}],"name":"setTokenMinDonation","outputs":[],"stateMutability":"nonpayable","type":"function"},{"inputs":[{"internalType":"address","name":"newOwner","type":"address"}],"name":"transferOwnership","outputs":[],"stateMutability":"nonpayable","type":"function"},{"inputs":[],"name":"unpause","outputs":[],"stateMutability":"nonpayable","type":"function"},{"inputs":[{"internalType":"address","name":"newCollector","type":"address"}],"name":"updateFeeCollector","outputs":[],"stateMutability":"nonpayable","type":"function"},{"inputs":[{"internalType":"address","name":"ngo","type":"address"},{"internalType":"uint8","name":"newMin","type":"uint8"}],"name":"updateMinApprovals","outputs":[],"stateMutability":"nonpayable","type":"function"},{"inputs":[{"internalType":"address","name":"ngo","type":"address"},{"internalType":"bool","name":"active","type":"bool"}],"name":"updateNGOStatus","outputs":[],"stateMutability":"nonpayable","type":"function"},{"inputs":[{"internalType":"uint8","name":"newPercent","type":"uint8"}],"name":"updatePlatformFee","outputs":[],"stateMutability":"nonpayable","type":"function"},{"inputs":[{"internalType":"uint256","name":"requestId","type":"uint256"},{"internalType":"string","name":"purposeRawString","type":"string"}],"name":"verifyWithdrawalPurpose","outputs":[{"internalType":"bool","name":"isValid","type":"bool"}],"stateMutability":"view","type":"function"},{"inputs":[{"internalType":"address","name":"token","type":"address"},{"internalType":"bool","name":"status","type":"bool"}],"name":"whitelistToken","outputs":[],"stateMutability":"nonpayable","type":"function"},{"inputs":[{"internalType":"address","name":"","type":"address"}],"name":"whitelistedTokens","outputs":[{"internalType":"bool","name":"","type":"bool"}],"stateMutability":"view","type":"function"},{"inputs":[{"internalType":"address","name":"token","type":"address"},{"internalType":"uint96","name":"amount","type":"uint96"},{"internalType":"bytes32","name":"purposeHash","type":"bytes32"},{"internalType":"string","name":"purposeRawString","type":"string"}],"name":"withdrawAllocatedGeneralFunds","outputs":[],"stateMutability":"nonpayable","type":"function"},{"inputs":[{"internalType":"address","name":"token","type":"address"},{"internalType":"uint96","name":"amount","type":"uint96"}],"name":"withdrawCollectedFees","outputs":[],"stateMutability":"nonpayable","type":"function"},{"inputs":[{"internalType":"uint256","name":"","type":"uint256"}],"name":"withdrawalRequests","outputs":[{"internalType":"address","name":"ngo","type":"address"},{"internalType":"address","name":"token","type":"address"},{"internalType":"uint96","name":"amount","type":"uint96"},{"internalType":"uint64","name":"timestamp","type":"uint64"},{"internalType":"bool","name":"executed","type":"bool"},{"internalType":"bool","name":"rejected","type":"bool"},{"internalType":"uint8","name":"approvalsNeeded","type":"uint8"},{"internalType":"uint8","name":"approvalCount","type":"uint8"},{"internalType":"bytes32","name":"purposeHash","type":"bytes32"}],"stateMutability":"view","type":"function"},{"stateMutability":"payable","type":"receive"}],"evm":{"bytecode":{"linkReferences":{},"object":"6080806040523461009657600180546001600160a01b03199081169091556000805433928116831782556001600160a01b0316907f8be0079c531659141344cd1fd0a4f28419497f9722a3daafe3b4186f6b6457e09080a3600160029081556003805460ff19169055601d80546001600160a81b0319163360081b610100600160a81b03161790911790556147bd908161009c8239f35b600080fdfe6080806040526004361015610231575b50361561001b57600080fd5b601d5460ff8160b01c1661021f5760ff60b01b19908116600160b01b17601d55670de0b6b3a7640000341061020d57610099610125610059346144cf565b919060185491829161006a83613ace565b6018556001600160601b038095169461015b6001600160401b0387610140848342169889946040519d8e613aea565b8d339052600360009e8f9b8c978860208401528660408401918a835260608501908152608085019b8c5260408b60a0870199818b5260c088019d8e5281526016602052209460018060a01b0380825116916001600160601b0360a01b928389541617885581602060018a0192015116838254161790556002870194511690845416178355511690613e54565b019551166001600160401b0319865416178555511683613ec6565b51815460ff60a01b191690151560a01b60ff60a01b16179055565b8280526004602052604083206020526040832080548261017d89828416613dca565b16906001600160601b03191617905561019533614525565b816101d2575b505050604051928484526020840152836040840152606083015260008051602061476883398151915260803393a4601d5416601d55005b816101ee60008051602061474883398151915293600554613a2d565b600555610202856040519384931683613aab565b0390a283388061019b565b604051636a10ccc960e01b8152600490fd5b60405163162908e360e11b8152600490fd5b60003560e01c9081630905f56014613946575080630ffb1d8b146138c4578063136d888314613875578063196c459d1461378257806319f403a21461375f5780631bc3812d1461374157806324f13a76146136ab5780632655822d14613573578063362618491461345f57806337dcc4501461333c578063384d0dd81461330257806339447490146132ac5780633e29be9814612dd55780633f22987a1461323f5780633f4ba83a146131e757806345b05d091461310c5780634923a537146130d25780634c45ad71146130935780634cfc86cc14612ff55780634d40108c14612fca578063517f0c0014612f5c57806351fb3cb514612ed45780635c975abb14612eb15780635d371bbd14612e2f57806360181f5014612dd55780636937558614612c075780636a1eaba614612acf5780636e54248714612ab157806370e5deb914612930578063715018a6146128cb57806373a76ccd146127e0578063775d286a146127935780637796980e1461275457806379ba5097146126915780637b6a4b07146125305780637c91ad58146122f25780637df7f3be146122ca5780638456cb59146122705780638c639a851461224f5780638cd849f614611def5780638da5cb5b14611dc6578063937b258114611d2a57806394c9ce6814611c5557806399b20eaf14611b7b5780639af8634514611a67578063a01504bb146118a8578063a453d80d146110de578063c415b95c146110b1578063c82fb50c14610caa578063cb7e8ce8146109da578063cc2f0cc41461093e578063ce09b62a14610904578063d00960101461085e578063d2c35ce8146107ba578063d4e319fc146106f5578063daf9c210146106b6578063e2daf1a814610677578063e30c39781461064e578063ef07a81f146105425763f2fde38b146104d2573861000f565b3461053d57602036600319011261053d576104eb613969565b6104f3613f0b565b60018060a01b0380911690816001600160601b0360a01b6001541617600155600054167f38d16b8cac22d99fc7c124b9cd0de2d3fa1faef420bfe791d8c362d765e22700600080a3005b600080fd5b3461053d57602036600319011261053d57600060c060405161056381613aea565b8281528260208201528260408201528260608201528260808201528260a08201520152600435600052601660205260e060406000206040516105a481613aea565b60c060018060a01b0380845416938484528160018201541660208501908152600282015494600360408201938588168552606083019760a01c885201549586946001600160401b0394816080850195878916875260ff6001600160601b039a878c60a0819a019c60401c168c52019b60a01c1615158b526040519b8c52511660208b0152511660408901525116606087015251166080850152511660a083015251151560c0820152f35b3461053d57600036600319011261053d576001546040516001600160a01b039091168152602090f35b3461053d57602036600319011261053d576001600160a01b03610698613969565b166000526008602052602060ff604060002054166040519015158152f35b3461053d57602036600319011261053d576001600160a01b036106d7613969565b166000526007602052602060ff604060002054166040519015158152f35b3461053d57602036600319011261053d576101406001600160a01b038061071a613969565b16600052600a60205260406000206001815491015460ff6001600160401b0391600c602052816040600020541692600e602052826040600020541694604051968116875260a01c602087015280821660408701528160401c16606086015263ffffffff8160801c16608086015261ffff8160a01c1660a0860152818160b01c16151560c086015260b81c16151560e0840152610100830152610120820152f35b3461053d57602036600319011261053d576107d3613969565b6107db613f0b565b6001600160a01b038181169190821561084c57601d8054610100600160a81b03198116600894851b610100600160a81b031617909155604051426001600160401b03168152921c16907fbbc2ef0701f6db4224e7939925bc42d22b40848022b8a316ca04bdfa6d93578890602090a3005b60405163e6c4247b60e01b8152600490fd5b3461053d57600036600319011261053d57610877613f0b565b601d805460ff60a81b1916600160a81b179055610892613fb7565b600160ff1960035416176003557f62e78cea01bee320cd4e420270b5ea74000d11b0c9f74754ebdbfc544b05a2586020604051338152a17f8a7136cdd0934510fda6be5da3a8aafc36cdb6c275d79c95306a7f6f2fd9c19e60408051600181526001600160401b0342166020820152a1005b3461053d57602036600319011261053d576001600160a01b03610925613969565b1660005260146020526020604060002054604051908152f35b3461053d57604036600319011261053d57610957613969565b7fcff7217d36fea04149f06e9e9c622fcb5513ba532bbf69280af2b6b2359435066109d5610983613995565b9261098c613f0b565b6001600160a01b03166000818152600860205260409020805460ff191660ff86151516179055925b604080519115158252426001600160401b0316602083015290918291820190565b0390a2005b3461053d57608036600319011261053d576109f3613969565b6109fb6139ba565b906064356001600160401b03811161053d57610a1b9036906004016139d0565b90610a24613f63565b610a2c613fb7565b33600052600b60205260ff6040600020541615610c985733600052600a60205260ff60016040600020015460b01c1615610c86576001600160601b0384161561021f57336000526004602052604060002060018060a01b0384166000526020526001600160601b0384166001600160601b036040600020541610610c745781610c40575b505033600052600a6020526040600020600181016001600160401b03815460401c16620151808101809111610c2a574210610c1857610bb290610b7f6001600160401b03421693610b2485849067ffffffffffffffff60401b82549160401b169067ffffffffffffffff60401b1916179055565b336000526004602052604060002060018060a01b038716600052602052604060002080546001600160601b03610b5c8a828416613a92565b16906001600160601b031916179055610b7987825460a01c613dca565b90613e54565b610b9263ffffffff825460801c16613ef6565b815463ffffffff60801b191660809190911b63ffffffff60801b16179055565b610bc66001600160601b0384163384614322565b6001600160601b03604051931683526044356020840152604083015260018060a01b0316907f01cf37fcc5646bc144e653e2d340ed0c0290eaef1b142ac9d4c68ec99949de1c60603392a36001600255005b6040516357d8f19b60e01b8152600490fd5b634e487b7160e01b600052601160045260246000fd5b610c4b913691613d93565b604435906020815191012003610c62578280610ab0565b604051633d799fbf60e11b8152600490fd5b604051631e9acf1760e31b8152600490fd5b60405163630dd94160e11b8152600490fd5b60405163648eadbd60e01b8152600490fd5b3461053d57608036600319011261053d57610cc3613969565b610ccb6139ba565b6044356001600160a01b038116810361053d57610ce6613f63565b610cee613fb7565b6001600160601b0382161561021f576001600160a01b03831660009081526007602052604090205460ff161561109f576001600160a01b03831660009081526008602052604090205460ff1661108d576001600160a01b038116611034575b6001600160a01b0383166000908152600960205260409020548015159081611021575b5061020d57610d876001600160601b0383166144cf565b926001600160601b03841161100f5760185492610da384613ace565b601855610e6585856101406001600160601b038a6001600160401b036003604051610dcd81613aea565b3381526001600160a01b038a8116602080840191825295821660408085019182529a88166060850190815242871660808601908152600060a080880182815260c089018381529e83526016909b529d9020955186549d8b901b9d8e1690861617865592516001860180548e169186169190911790559051600285018054909c169316929092178a559051909861012591871690613e54565b6001600160601b03604051926323b872dd60e01b60208501523360248501523060448501521660648301526064825260a08201928284106001600160401b03851117610ff957610ed3610f80936000805160206147688339815191529560405260018060a01b038916614565565b6001600160601b038116610f8a575b506001600160a01b038181166000908152600460209081526040808320938a1683529290522080546001600160601b03610f20888216828416613dca565b16906001600160601b031916179055610f3833614525565b604080516001600160a01b0397881681526001600160601b03909616602087015260643590860152426001600160401b03166060860152949094169333939081906080820190565b0390a46001600255005b60018060a01b03871660005260066020526040600020610fb46001600160601b0383168254613a2d565b905560008051602061474883398151915260405180610ff060018060a01b038b16946001600160601b036001600160401b034216911683613aab565b0390a286610ee2565b634e487b7160e01b600052604160045260246000fd5b604051631bffe16d60e21b8152600490fd5b90506001600160601b0383161084610d70565b6001600160a01b0381166000908152600b602052604090205460ff1615610c98576001600160a01b0381166000908152600a602052604090206001015460b01c60ff16610d4d5760405163630dd94160e11b8152600490fd5b60405163f3891b3d60e01b8152600490fd5b6040516307c241ad60e51b8152600490fd5b3461053d57600036600319011261053d57601d5460405160089190911c6001600160a01b03168152602090f35b3461053d5760c036600319011261053d576110f7613969565b6110ff6139ba565b906064356001600160401b03811161053d5761111f9036906004016139d0565b91906084356001600160401b03811161053d576111409036906004016139fd565b60a4949194356001600160401b03811161053d576111629036906004016139fd565b91909261116d613f63565b611175613fb7565b33600052600a60205260406000209460018060a01b0386541615610c9857600186015460ff8160b01c1615610c865760ff8160b81c1661189657600561ffff8260a01c161015611884576001600160401b038116620151808101809111610c2a574210610c185767ffffffffffffffff1916426001600160401b0316176001870155821561021f57600a831161187257838303611860578161183e575b5050336000526004602052604060002060018060a01b0386166000526020526001600160601b03604060002054166001600160601b03881611610c74576000805b8281106116f257506001600160601b0380891691160361021f576019549561127a87613ace565b60195533600052600c60205260ff6040600020541660405190816101208101106001600160401b0361012084011117610ff957600390610120830160405233835260018060a01b03891660208401526001600160601b038b1660408401526001600160401b034216606084015260006080840152600060a084015260c083019081526113e960e08401916000835260ff61010086019360443585528d600052601060205260406000209661137160018060a01b038251166001600160601b0360a01b90818b5416178a5560018a019060018060a01b03602085015116908254161781556001600160601b0360408401511690613e54565b60028801936001600160401b036060830151169185549260ff60481b60a068ff00000000000000006080850151151560401b16930151151560481b16928660501b905160501b16936affffffffffffffffffffff1916171717178355511681549060ff60581b9060581b169060ff60581b1916179055565b5191015560126020526040600020906001600160401b038311610ff957600160401b8311610ff95781548383558084106116d4575b5090600052602060002060005b8381106116c057505050508460005260136020526040600020916001600160401b038211610ff957600160401b8211610ff9578254828455808310611670575b509160005260206000209060005b8160011c811061161d575060011981168082036115c0575b5050505061ffff600182015460a01c169061ffff8214610c2a576001908101805461ffff60a01b19169290910160a01b61ffff60a01b169190911790556114d9601c54613ace565b601c55336000526014602052604060002054826000526015602052604060002055336000526014602052604060002092835493600160401b851015610ff9576115b0849261156d84611554897f37427d35f92c3a1b2085192f3ab3451edd3678cde724ddfef353bb05801ff21996600160209c018155613bd7565b90919082549060031b91821b91600019901b1916179055565b604080516001600160a01b0390961686526001600160601b03909116602086015260443590850152426001600160401b0316606085015233939081906080820190565b0390a36001600255604051908152f35b9260009360005b81840381106115e15750505060011c015584808080611491565b90919460206116136001926115f589613eb2565b9085600c0260031b916001600160601b03809116831b921b19161790565b96019291016115c7565b6000805b60028110611636575083820155600101611479565b9490602061166760019261164985613eb2565b9089600c0260031b916001600160601b03809116831b921b19161790565b92019501611621565b61169f908460005260206000206001808601811c820192600c82881602806116a5575b500160011c0190613e9b565b8761146b565b600019908186019182549160200360031b1c1690558c611693565b60019060208435940193818401550161142b565b6116ec90836000528460206000209182019101613e9b565b8961141e565b90611719906001600160601b0361171261170d85888a613e77565b613eb2565b1690613a2d565b906001600160601b03821161100f5761173381848a613e77565b35600090815260166020526040902080546001600160a01b03161561182c57600381015460ff8160a01c1661181a576001820154336001600160a01b03909116036117de576001600160a01b0389166117f05760028201546001600160a01b03166117de576001600160601b0360026117b7935b015460a01c9160401c1690613a92565b6001600160601b03806117ce61170d85898b613e77565b16911610610c7457600101611253565b60405163319bc5c160e21b8152600490fd5b60028201546001600160a01b038a81169116036117de576001600160601b0360026117b7936117a7565b6040516372bd5d9f60e01b8152600490fd5b6040516320d3bced60e11b8152600490fd5b611849913691613d93565b604435906020815191012003610c62578780611212565b60405163512509d360e11b8152600490fd5b604051633c830d4960e11b8152600490fd5b604051638bf0a57960e01b8152600490fd5b604051636022a9e760e01b8152600490fd5b3461053d57606036600319011261053d576118c1613969565b6118c961397f565b60443591821515830361053d576118de613f0b565b60018060a01b038091169182600052602091600b835260ff91826040600020541615610c98571693841561084c57838514611a555783600052600e83528160406000205416600d845260406000208660005284528260406000205416826000146119ef57600a8210156119dd576119cb5760010192828411610c2a577f3d45f91b9d5b3b9bc391ec90cef3801bfa08bfb60f5b84ba74eb3329ddf5a3e2936119c69386600052600e83526040600020911660ff198254161790555b84600052600d815260406000209086600052526109b48160406000209060ff801983541691151516179055565b0390a3005b60405163080fc0bd60e11b8152600490fd5b604051632cc191fd60e11b8152600490fd5b15611a43576000190192828411610c2a577f3d45f91b9d5b3b9bc391ec90cef3801bfa08bfb60f5b84ba74eb3329ddf5a3e2936119c69386600052600e83526040600020911660ff19825416179055611999565b604051630197e13360e61b8152600490fd5b604051638dd19e7d60e01b8152600490fd5b3461053d5760208060031936011261053d57600435611a84613f63565b60008181526010835260409020546001600160a01b0390811615611b695781600052601083526040600020600281019182549160ff8360401c16611b575760ff8360481c16611b4557541680600052600d8552604060002033600052855260ff6040600020541615611a4357611b0a92600160481b859360ff60481b1916179055614397565b7f939643566eae6d78c93ced3453fcaf6b3a035b3bc3216d8dcc0276cc12f473b8604051926001600160401b03421684523393a36001600255005b60405163060acdf760e51b8152600490fd5b604051636b78fca360e11b8152600490fd5b604051632589d98f60e11b8152600490fd5b3461053d57600036600319011261053d57611b94613f0b565b601d805460ff60a81b1916905560035460ff811615611c195760ff19166003557f5db9ee0a495bf2e6ff9c91a7834c1ba4fdd244a5e8aa4e537bd38aeae4b073aa6020604051338152a17f8a7136cdd0934510fda6be5da3a8aafc36cdb6c275d79c95306a7f6f2fd9c19e60408051600081526001600160401b0342166020820152a1005b60405162461bcd60e51b815260206004820152601460248201527314185d5cd8589b194e881b9bdd081c185d5cd95960621b6044820152606490fd5b3461053d57604036600319011261053d57611c6e613969565b611c76613995565b90611c7f613f0b565b6001600160a01b03166000818152600b602052604090205460ff1615610c985780600052600a60205260ff60016040600020015460b01c1615610c86576000818152600a60205260409020600101805460ff60b81b191683151560b81b60ff60b81b16179055604080519215158352426001600160401b0316602084015233927f2b454757a53f3895d220b6162b39b89df13e48768eb46a2827c3c137eaee878a91819081016119c6565b3461053d57602036600319011261053d576004356000526010602052610120604060002060018060a01b0360ff8183541692600181015460036002830154920154936040519586528116602086015260a01c60408501526001600160401b0381166060850152818160401c1615156080850152818160481c16151560a0850152818160501c1660c085015260581c1660e0830152610100820152f35b3461053d57600036600319011261053d576000546040516001600160a01b039091168152602090f35b3461053d57608036600319011261053d57611e08613969565b6044356001600160401b03811161053d57611e279036906004016139fd565b906064359060ff821680920361053d57611e3f613f0b565b6001600160a01b0384161561084c576000546001600160a01b0385811691161461223d576001600160a01b0384166000908152600b602052604090205460ff1661222b576064600f541015612219578215801561220f575b61021f5781158015612206575b61021f5760005b83811061217957506040516101008101908082106001600160401b03831117610ff95761202c9160405260018060a01b038616815260006020820152600060408201526000606082015260006080820152600060a0820152600160c082015260e081016000815260018060a01b038716600052600a60205261201160c060016040600020818060a01b038651166001600160601b0360a01b825416178155611f606001600160601b0360208801511682613e54565b01936001600160401b036040820151166001600160401b0319865416178555611fb96001600160401b03606083015116869067ffffffffffffffff60401b82549160401b169067ffffffffffffffff60401b1916179055565b608081810151865463ffffffff60801b1916911b63ffffffff60801b1617855560a081810151865461ffff60a01b1916911b61ffff60a01b161785550151835460ff60b01b191690151560b01b60ff60b01b16178355565b51815460ff60b81b191690151560b81b60ff60b81b16179055565b60005b83811061212d57505060018060a01b038316600052600c60205260ff60406000209281199383858254161790551692600e60205260406000208484825416179055600f5491600160401b831015610ff9577fa9b8e91191c8434872359997b515f52cbdec4e3d7105ebb5c7b924edc773585d936120b484600160809601600f55613b8a565b81546001600160a01b0386811660039390931b83811b91901b19909116179091556000908152600b602052604090208054919091166001179055601a546120fa90613ace565b601a556040805160243581526020810196909652850152426001600160401b031660608501526001600160a01b031692a2005b6001600160a01b038581166000908152600d602052604090206001929161215d612158848988613e77565b613e87565b1660005260205260406000208260ff198254161790550161202f565b6001600160a01b0361218f612158838786613e77565b161561084c576001600160a01b03858116906121af612158848887613e77565b1614611a555760005b8181106121c85750600101611eab565b6121d6612158838786613e77565b6001600160a01b036121ec612158848988613e77565b6001600160a01b03909216911614611a55576001016121b8565b50828211611ea4565b50600a8311611e97565b60405163ddbb10a960e01b8152600490fd5b60405163cba9bd8f60e01b8152600490fd5b60405163c8bba4d960e01b8152600490fd5b3461053d57600036600319011261053d57602060ff601d5416604051908152f35b3461053d57600036600319011261053d57612289613f0b565b612291613fb7565b600160ff1960035416176003557f62e78cea01bee320cd4e420270b5ea74000d11b0c9f74754ebdbfc544b05a2586020604051338152a1005b3461053d57602036600319011261053d5760206122e8600435613de5565b6040519015158152f35b604036600319011261053d57612306613969565b61230e613f63565b612316613fb7565b60018060a01b038091169081600052602090600b825260ff6040600020541615610c985782600052600a825260ff60016040600020015460b01c1615610c8657670de0b6b3a7640000341061020d5761236e346144cf565b906018549261237c84613ace565b6018556001600160601b03809316946001600160401b03858582421694604051936123a685613aea565b338552858501948c86526040810160008152848d6060840190815260808401988b8a5260a08501966000885260c086019960008b5260005260168c52806040600020965116916001600160601b0360a01b92838854161787558160018801915116838254161790556002860194511690845416178355511661242791613e54565b6003019451166001600160401b031985541617845551166124489083613ec6565b51815460ff60a01b191690151560a01b60ff60a01b1617905560008781526004825260408082208280529092522080548461248588828416613dca565b16906001600160601b0319161790553361249e90614525565b60008051602061476883398151915292610f8092806124f3575b505060408051600081526001600160601b039096166020870152602435908601526001600160401b0316606085015233939081906080820190565b6000918161251260008051602061474883398151915293600554613a2d565b600555612526856040519384931683613aab565b0390a286806124b8565b3461053d5760208060031936011261053d576004359061254e613f63565b612556613fb7565b60008281526010825260409020546001600160a01b0390811615611b69578260005260108252604060002090600282019081549260ff93848160401c16611b575760481c8416611b45575416600052600d83526040600020336000528352816040600020541615611a43578360005260118352604060002033600052835281604060002054166119cb57836000526011835260406000203360005283526040600020600160ff1982541617905581815460581c16828114610c2a57815460ff60581b191660019190910160581b60ff60581b1617815554818160581c1692604051908482526001600160401b03421690820152847fe7483d50c87dfa51b091f048d165a7c7e3ebdfe5c8eeac87644e5eda035285d260403393a360501c161115612682575b6001600255005b61268b90613ffb565b8061267b565b3461053d57600036600319011261053d576001546001600160a01b0333818316036126fd576001600160601b0360a01b8092166001556000549133908316176000553391167f8be0079c531659141344cd1fd0a4f28419497f9722a3daafe3b4186f6b6457e0600080a3005b60405162461bcd60e51b815260206004820152602960248201527f4f776e61626c6532537465703a2063616c6c6572206973206e6f7420746865206044820152683732bb9037bbb732b960b91b6064820152608490fd5b3461053d57602036600319011261053d576001600160a01b03612775613969565b16600052600b602052602060ff604060002054166040519015158152f35b3461053d57604036600319011261053d576127ac61397f565b600435600052601160205260406000209060018060a01b0316600052602052602060ff604060002054166040519015158152f35b3461053d57602036600319011261053d576004356127fc613f63565b6000818152601060205260409020546001600160a01b039190821615611b6957806000526010602052604060002091600283019081549060ff8260401c16611b575760ff8260481c16611b45576001600160401b039485831662278d008101809111610c2a5742106128b95761288493600160481b869460ff60481b19161790555416614397565b60405191421682527f6e75ee7d2473398ec8cdb807f19296bf61c62ac036f4591ecd73daa4ce3ac35360203393a36001600255005b604051636c804b5d60e01b8152600490fd5b3461053d57600036600319011261053d576128e4613f0b565b600180546001600160a01b0319908116909155600080549182168155906001600160a01b03167f8be0079c531659141344cd1fd0a4f28419497f9722a3daafe3b4186f6b6457e08280a3005b3461053d5760208060031936011261053d5760043561294d613f0b565b612955613f63565b60ff601d5460a81c1615612a9f576000818152601683526040902080546001600160a01b03908116939190841561182c5760038201549260ff8460a01c1661181a576001600160601b03809460401c16926002810154938460a01c9081811161021f576129c191613a92565b9285841691821561021f57600182910154169416948460005260048352604060002086600052835281816040600020541610610c74577fa69d6d71401e15a16c6607a07c3a9dd3c006d892f73d34c2b45d1afaee6500aa956016612a7e948a93612a9598600052600482526040600020846000528252604060002090815490612a4c8a828416613a92565b16906001600160601b031916179055896000525260006003604082208281558260018201558260028201550155614322565b6040519182916001600160401b0342169083613aab565b0390a36001600255005b60405163197b261160e21b8152600490fd5b3461053d57600036600319011261053d576020600554604051908152f35b3461053d57606036600319011261053d57612ae8613969565b612af061397f565b90612af96139a4565b612b01613f0b565b612b09613f63565b60018060a01b038092169182600052602091600b835260ff6040600020541615610c98576001600160601b039182821690811561021f5760008052600485526040600020961695866000528452826040600020541610610c74577f8c980e86d8f0bb1d7d85d38e49f6f6c490fb9e067a8946934441953fd90a747f92612a95926000805260048252604060002087600052825260406000209182549282612bb286828716613a92565b166001600160601b031980951617905586600052600481526040600020908860005252604060002091825491612bea85828516613dca565b1691161790556040519182916001600160401b0342169083613aab565b602036600319011261053d57612c1b613f63565b612c23613fb7565b670de0b6b3a7640000341061020d576000612c3d346144cf565b90600080516020614768833981519152610f8060185492612c5d84613ace565b6018556001600160601b03809516948591612d1e6001600160401b0387610140858342169788946003604051612c9281613aea565b3381526101256020820194600086528660408401916000835260608501908152608085019b8c5260a08501976000895260c086019b60008d5260005260166020526000604090209560018060a01b0380915116916001600160601b0360a01b92838954161788558160018901915116838254161790556002870194511690845416178355511690613e54565b87805260046020526040882060205260408820805483612d408a828416613dca565b16906001600160601b031916179055612d5833614525565b80612d99575b505060408051600081526001600160601b039096166020870152600435908601526001600160401b0316606085015233939081906080820190565b879181612db760008051602061474883398151915293600554613a2d565b600555612dcb856040519384931683613aab565b0390a28680612d5e565b3461053d57604036600319011261053d57612dee613969565b612df661397f565b9060018060a01b0380911660005260046020526040600020911660005260205260206001600160601b0360406000205416604051908152f35b3461053d57604036600319011261053d576004356024356001600160401b03811161053d57612e629036906004016139d0565b600083815260106020526040902054919290916001600160a01b031615611b6957602092612ea29160005260108452600360406000200154923691613d93565b82815191012014604051908152f35b3461053d57600036600319011261053d57602060ff600354166040519015158152f35b3461053d57602036600319011261053d5760043560ff811680820361053d57612efb613f0b565b6005811161021f57601d805460ff1981169290921790556040805160ff9283168152929091166020830152426001600160401b0316908201527f7d3e8689aa9657701d50cb0e74c36f94d11c88560d072217267d4ee7b4ce4ad390606090a1005b3461053d57606036600319011261053d57612f85612f78613969565b6044359060243590613ce5565b6040518091602080830160208452825180915260206040850193019160005b828110612fb357505050500390f35b835185528695509381019392810192600101612fa4565b3461053d57602036600319011261053d576020612fed612fe8613969565b613ca0565b604051908152f35b3461053d57602036600319011261053d576101006001600160a01b038061301a613969565b16600052600a60205260ff604060002060018154910154906001600160401b0390604051948116855260a01c602085015280821660408501528160401c16606084015263ffffffff8160801c16608084015261ffff8160a01c1660a0840152818160b01c16151560c084015260b81c16151560e0820152f35b3461053d57604036600319011261053d576130ac613969565b6130b4613f0b565b6001600160a01b031660009081526009602052604090206024359055005b3461053d57602036600319011261053d576001600160a01b036130f3613969565b1660005260066020526020604060002054604051908152f35b3461053d57602036600319011261053d57600435613128613f63565b6000818152601060205260409020546001600160a01b0390811615611b6957816000526010602052604060002090815416903382036131d5576002019081549060ff8260401c16611b575760ff8260481c16611b455761319892600160481b859360ff60481b1916179055614397565b604051906001600160401b03421682527f3a5b5fb14885463438672f4dbd798a9bf85eb6bc323ce5be4799cf7304c4d8d060203393a36001600255005b604051635c427cd960e01b8152600490fd5b3461053d57600036600319011261053d57613200613f0b565b60035460ff811615611c195760ff19166003557f5db9ee0a495bf2e6ff9c91a7834c1ba4fdd244a5e8aa4e537bd38aeae4b073aa6020604051338152a1005b3461053d57604036600319011261053d5761325e602435600435613c03565b6040518091602080830160208452825180915260206040850193019160005b82811061328c57505050500390f35b83516001600160a01b03168552869550938101939281019260010161327d565b3461053d57604036600319011261053d576132c5613969565b6132cd61397f565b9060018060a01b03809116600052600d60205260406000209116600052602052602060ff604060002054166040519015158152f35b3461053d57602036600319011261053d576001600160a01b03613323613969565b1660005260096020526020604060002054604051908152f35b3461053d57604036600319011261053d57613355613969565b61335d6139ba565b90613366613f0b565b61336e613f63565b6001600160601b038216801561021f576001600160a01b038281169290836133fe57600554838110610c745783612a95936133cd7f63fc258cb602439ec8dde61308820f0df700bf87bbd868a03450002b7056dbe0966133df94613a3a565b6005555b83601d5460081c1690614322565b601d5460081c16936040519182916001600160401b0342169083613aab565b8360009392935260066020528160406000205410610c74576133df612a95927f63fc258cb602439ec8dde61308820f0df700bf87bbd868a03450002b7056dbe0948660005260066020526040600020613458838254613a3a565b90556133d1565b3461053d57604036600319011261053d57613478613969565b613480613995565b90613489613f0b565b6001600160a01b03166000818152600b602052604090205490919060ff1615610c98576000828152600a60205260409020600101805460ff60b01b19811683151560b090811b60ff60b01b16919091179092557f6ad2381274adeb9dead020e5fe6acae39ec64a1701ec9077431795666a15d7d0926109d5929091901c60ff16808061356b575b156135455750613521601a54613add565b601a55604080519115158252426001600160401b0316602083015290918291820190565b1580613564575b156109b45761355c601a54613ace565b601a556109b4565b508061354c565b508115613510565b3461053d57606036600319011261053d5761358c613969565b61359461397f565b61359c6139a4565b916135a5613f0b565b6135ad613f63565b6001600160a01b039081166000818152600b602052604090205490919060ff1615610c985760ff601d5460a81c1615612a9f576001600160601b039283851691821561021f57836000526004602052604060002094818316958660005260205283816040600020541610610c74577fc73a98959728e324ca2cc6ba5454c42c21a3c55565f5be666fba959769d5b35c93610f809361368c9287600052600460205260406000208960005260205260406000209081549061366f8c828416613a92565b16906001600160601b03191617905583601d5460081c1690614322565b601d5460081c16946040519182916001600160401b0342169083613aab565b3461053d57602036600319011261053d576004356136c7613f63565b6136cf613fb7565b6000818152601060205260409020546001600160a01b031615611b695780600052601060205260026040600020015460ff8160401c16611b575760ff8160481c16611b455760ff808260501c169160581c161061372f5761267b90613ffb565b604051638af69cf160e01b8152600490fd5b3461053d57600036600319011261053d576020600f54604051908152f35b3461053d57602036600319011261053d576020612fed61377d613969565b613a47565b3461053d57604036600319011261053d5761379b613969565b60243560ff81169182820361053d576137b2613f0b565b6001600160a01b03166000818152600b602052604090205490929060ff1615610c98578015801561385b575b61021f577fc966d3b1b059f4ef2748dc43e0f3d1465cf4498426bead21ec900f4f72f6c5f99183600052600c602052604060002080549260ff1984161790556109d560405192839260ff6001600160401b03421692168491604091949360ff6001600160401b039281606087019816865216602085015216910152565b5082600052600e60205260ff6040600020541681116137de565b3461053d57600036600319011261053d5760e0601854601a54601b5447601c549060055492600f5494604051968752602087015260408601526060850152608084015260a083015260c0820152f35b3461053d57604036600319011261053d576138dd613969565b6138e5613995565b906138ee613f0b565b6001600160a01b031690811561084c576109d57f461918e22b76244a1eaa4effd12e6556635a2700c7f78229b370a51220019cc0918360005260076020526109b48160406000209060ff801983541691151516179055565b3461053d57600036600319011261053d5760209060ff601d5460a81c1615158152f35b600435906001600160a01b038216820361053d57565b602435906001600160a01b038216820361053d57565b60243590811515820361053d57565b604435906001600160601b038216820361053d57565b602435906001600160601b038216820361053d57565b9181601f8401121561053d578235916001600160401b03831161053d576020838186019501011161053d57565b9181601f8401121561053d578235916001600160401b03831161053d576020808501948460051b01011161053d57565b91908201809211610c2a57565b91908203918211610c2a57565b60018060a01b0316600052600a6020526001600160401b0360016040600020015416620151808101809111610c2a5780421015613a8c57613a89904290613a3a565b90565b50600090565b6001600160601b039182169082160391908211610c2a57565b6001600160601b0390911681526001600160401b03909116602082015260400190565b6000198114610c2a5760010190565b8015610c2a576000190190565b60e081019081106001600160401b03821117610ff957604052565b602081019081106001600160401b03821117610ff957604052565b90601f801991011681019081106001600160401b03821117610ff957604052565b6001600160401b038111610ff95760051b60200190565b90613b6282613b41565b613b6f6040519182613b20565b8281528092613b80601f1991613b41565b0190602036910137565b600f54811015613bc157600f6000527f8d1108e10bcb7c27dddfc02ed9d693a074039d026cf4ea4240b40f7d581ac8020190600090565b634e487b7160e01b600052603260045260246000fd5b8054821015613bc15760005260206000200190600090565b8051821015613bc15760209160051b010190565b9190600f549081841015613c845783613c3792613c23613c329383613a2d565b90808211613c7c575b50613a3a565b613b58565b9160005b8351811015613c785780613c59613c5460019385613a2d565b613b8a565b838060a01b0391549060031b1c16613c718287613bef565b5201613c3b565b5050565b905038613c2c565b50509050604051613c9481613b05565b60008152600036813790565b60018060a01b0316600052600a6020526001600160401b0360016040600020015460401c16620151808101809111610c2a5780421015613a8c57613a89904290613a3a565b6001600160a01b0316600090815260146020526040812080549194939092919081831015613d5d5782613d1f92613c23613c329383613a2d565b935b8451811015613d585780613d40613d3a60019385613a2d565b85613bd7565b90549060031b1c613d518288613bef565b5201613d21565b505050565b505050509060405190613d6f82613b05565b80825236813790565b6001600160401b038111610ff957601f01601f191660200190565b929192613d9f82613d78565b91613dad6040519384613b20565b82948184528183011161053d578281602093846000960137010152565b9190916001600160601b0380809416911601918211610c2a57565b600090815260106020526040902080546001600160a01b0316158015613e43575b8015613e32575b613a8c5760026001600160401b039101541662278d008101809111610c2a5742101590565b5060ff600282015460481c16613e0d565b5060ff600282015460401c16613e06565b80546001600160a01b031660a09290921b6001600160a01b031916919091179055565b9190811015613bc15760051b0190565b356001600160a01b038116810361053d5790565b818110613ea6575050565b60008155600101613e9b565b356001600160601b038116810361053d5790565b906bffffffffffffffffffffffff60401b82549160401b16906bffffffffffffffffffffffff60401b1916179055565b63ffffffff809116908114610c2a5760010190565b6000546001600160a01b03163303613f1f57565b606460405162461bcd60e51b815260206004820152602060248201527f4f776e61626c653a2063616c6c6572206973206e6f7420746865206f776e65726044820152fd5b6002805414613f725760028055565b60405162461bcd60e51b815260206004820152601f60248201527f5265656e7472616e637947756172643a207265656e7472616e742063616c6c006044820152606490fd5b60ff60035416613fc357565b60405162461bcd60e51b815260206004820152601060248201526f14185d5cd8589b194e881c185d5cd95960821b6044820152606490fd5b6000908082526020916010835260408082209360018060a01b03928386541695868252600a83528382206004845284832097600190818401998a54958987169182825288526001600160601b0391828a832054169060a098891c8092106142e1576002888101805468ff00000000000000001916600160401b17905594835260048a528a8320908352895289822080548695949392849061409e90838316613a92565b16906001600160601b0319161790558b815260128952898120908a5191828b825491828152019183528b832090835b8d8282106142ce5750505050826140e5910383613b20565b8c815260138a528a8120918a8c51938d85838354918281520192865283862086925b828c85011061429c575061414394928894928a9254918d8683831061428a575b50501061427a575b505091969798505093909192930384613b20565b81865b6141ea575b505050505050958094926141a7836141977f56e686f9ea3e6425a97161d5fa1da55002ff31721d38c6f25c421f683cb113e19a60609a989601610b9263ffffffff825460801c16613ef6565b610b798c54861c8254871c613dca565b6141b48983835416614397565b6141c88a54838354168482871c9216614322565b5416975490835194821685521c908301526001600160401b03421690820152a3565b8151811015614275579086828b888f8f60169061420c879d9c9b9a9989613bef565b51895252888188208161421f878c613bef565b51169461423e6142386003840197858954881c16613dca565b87613ec6565b85549485920154901c921c16101561425f575b505001909192939495614146565b60ff60a01b1916600160a01b1790553880614251565b61414b565b60601c168152018d90873861412f565b90919585851681520194018d86614127565b9095969798999a91938b93958b8854818116845260601c1690820152019401920189989796959493918f938f94614107565b835485528a9994019392830192016140cd565b8a51631e9acf1760e31b8152600490fd5b3d1561431d573d9061430382613d78565b916143116040519384613b20565b82523d6000602084013e565b606090565b6001600160a01b03919082168061434f57506000809381938293165af16143476142f2565b501561021f57565b9290916040519263a9059cbb60e01b602085015216602483015260448201526044815260808101918183106001600160401b03841117610ff95761439592604052614565565b565b60018060a01b0316600091818352600a6020526040916001838520019061ffff825460a01c169182156144bb57805461ffff60a01b191660001993840160a01b61ffff60a01b161790556143ec601c54613add565b601c5584526014602052828420805480156144aa578386526015602052848620549083810190811161449657808203614465575b505080548015614451578201916144378383613bd7565b909182549160031b1b191690555582526015602052812055565b634e487b7160e01b86526031600452602486fd5b61446f9083613bd7565b90549060031b1c614484816115548486613bd7565b86526015602052848620553880614420565b634e487b7160e01b87526011600452602487fd5b8451637120ded360e11b8152600490fd5b634e487b7160e01b86526011600452602486fd5b9060ff601d541691821561451e5782810281159382820414841715610c2a57606490049283159081614515575b5061450c575b82613a8991613a3a565b60019250614502565b905015386144fc565b6000925090565b6001600160a01b03166000908152601760205260409020805460ff81161561454b575050565b60ff19166001179055601b5461456090613ace565b601b55565b60018060a01b03169060405160408101908082106001600160401b03831117610ff9576145d6916040526020938482527f5361666545524332303a206c6f772d6c6576656c2063616c6c206661696c6564858301526000808587829751910182855af16145d06142f2565b91614673565b805191821591848315614648575b5050509050156145f15750565b6084906040519062461bcd60e51b82526004820152602a60248201527f5361666545524332303a204552433230206f7065726174696f6e20646964206e6044820152691bdd081cdd58d8d9595960b21b6064820152fd5b91938180945001031261466f5782015190811515820361466c5750803880846145e4565b80fd5b5080fd5b919290156146d55750815115614687575090565b3b156146905790565b60405162461bcd60e51b815260206004820152601d60248201527f416464726573733a2063616c6c20746f206e6f6e2d636f6e74726163740000006044820152606490fd5b8251909150156146e85750805190602001fd5b6040519062461bcd60e51b82528160208060048301528251908160248401526000935b82851061472e575050604492506000838284010152601f80199101168101030190fd5b848101820151868601604401529381019385935061470b56fe9dc291f471bd5e14a4b7a6abd538bd61c6c2015bfc18c51c438504625b758d8ccaa67506432d2770fe12f46274fecd47574216e117778b67ff68eefa2c3f9d1da264697066735822122066234cbff1131ca828e1dbce751718950d6a2ca19ce5d15e16f262310c0ddfa764736f6c63430008180033","opcodes":"PUSH1 0x80 DUP1 PUSH1 0x40 MSTORE CALLVALUE PUSH2 0x96 JUMPI PUSH1 0x1 DUP1 SLOAD PUSH1 0x1 PUSH1 0x1 PUSH1 0xA0 SHL SUB NOT SWAP1 DUP2 AND SWAP1 SWAP2 SSTORE PUSH1 0x0 DUP1 SLOAD CALLER SWAP3 DUP2 AND DUP4 OR DUP3 SSTORE PUSH1 0x1 PUSH1 0x1 PUSH1 0xA0 SHL SUB AND SWAP1 PUSH32 0x8BE0079C531659141344CD1FD0A4F28419497F9722A3DAAFE3B4186F6B6457E0 SWAP1 DUP1 LOG3 PUSH1 0x1 PUSH1 0x2 SWAP1 DUP2 SSTORE PUSH1 0x3 DUP1 SLOAD PUSH1 0xFF NOT AND SWAP1 SSTORE PUSH1 0x1D DUP1 SLOAD PUSH1 0x1 PUSH1 0x1 PUSH1 0xA8 SHL SUB NOT AND CALLER PUSH1 0x8 SHL PUSH2 0x100 PUSH1 0x1 PUSH1 0xA8 SHL SUB AND OR SWAP1 SWAP2 OR SWAP1 SSTORE PUSH2 0x47BD SWAP1 DUP2 PUSH2 0x9C DUP3 CODECOPY RETURN JUMPDEST PUSH1 0x0 DUP1 REVERT INVALID PUSH1 0x80 DUP1 PUSH1 0x40 MSTORE PUSH1 0x4 CALLDATASIZE LT ISZERO PUSH2 0x231 JUMPI JUMPDEST POP CALLDATASIZE ISZERO PUSH2 0x1B JUMPI PUSH1 0x0 DUP1 REVERT JUMPDEST PUSH1 0x1D SLOAD PUSH1 0xFF DUP2 PUSH1 0xB0 SHR AND PUSH2 0x21F JUMPI PUSH1 0xFF PUSH1 0xB0 SHL NOT SWAP1 DUP2 AND PUSH1 0x1 PUSH1 0xB0 SHL OR PUSH1 0x1D SSTORE PUSH8 0xDE0B6B3A7640000 CALLVALUE LT PUSH2 0x20D JUMPI PUSH2 0x99 PUSH2 0x125 PUSH2 0x59 CALLVALUE PUSH2 0x44CF JUMP JUMPDEST SWAP2 SWAP1 PUSH1 0x18 SLOAD SWAP2 DUP3 SWAP2 PUSH2 0x6A DUP4 PUSH2 0x3ACE JUMP JUMPDEST PUSH1 0x18 SSTORE PUSH1 0x1 PUSH1 0x1 PUSH1 0x60 SHL SUB DUP1 SWAP6 AND SWAP5 PUSH2 0x15B PUSH1 0x1 PUSH1 0x1 PUSH1 0x40 SHL SUB DUP8 PUSH2 0x140 DUP5 DUP4 TIMESTAMP AND SWAP9 DUP10 SWAP5 PUSH1 0x40 MLOAD SWAP14 DUP15 PUSH2 0x3AEA JUMP JUMPDEST DUP14 CALLER SWAP1 MSTORE PUSH1 0x3 PUSH1 0x0 SWAP15 DUP16 SWAP12 DUP13 SWAP8 DUP9 PUSH1 0x20 DUP5 ADD MSTORE DUP7 PUSH1 0x40 DUP5 ADD SWAP2 DUP11 DUP4 MSTORE PUSH1 0x60 DUP6 ADD SWAP1 DUP2 MSTORE PUSH1 0x80 DUP6 ADD SWAP12 DUP13 MSTORE PUSH1 0x40 DUP12 PUSH1 0xA0 DUP8 ADD SWAP10 DUP2 DUP12 MSTORE PUSH1 0xC0 DUP9 ADD SWAP14 DUP15 MSTORE DUP2 MSTORE PUSH1 0x16 PUSH1 0x20 MSTORE KECCAK256 SWAP5 PUSH1 0x1 DUP1 PUSH1 0xA0 SHL SUB DUP1 DUP3 MLOAD AND SWAP2 PUSH1 0x1 PUSH1 0x1 PUSH1 0x60 SHL SUB PUSH1 0xA0 SHL SWAP3 DUP4 DUP10 SLOAD AND OR DUP9 SSTORE DUP2 PUSH1 0x20 PUSH1 0x1 DUP11 ADD SWAP3 ADD MLOAD AND DUP4 DUP3 SLOAD AND OR SWAP1 SSTORE PUSH1 0x2 DUP8 ADD SWAP5 MLOAD AND SWAP1 DUP5 SLOAD AND OR DUP4 SSTORE MLOAD AND SWAP1 PUSH2 0x3E54 JUMP JUMPDEST ADD SWAP6 MLOAD AND PUSH1 0x1 PUSH1 0x1 PUSH1 0x40 SHL SUB NOT DUP7 SLOAD AND OR DUP6 SSTORE MLOAD AND DUP4 PUSH2 0x3EC6 JUMP JUMPDEST MLOAD DUP2 SLOAD PUSH1 0xFF PUSH1 0xA0 SHL NOT AND SWAP1 ISZERO ISZERO PUSH1 0xA0 SHL PUSH1 0xFF PUSH1 0xA0 SHL AND OR SWAP1 SSTORE JUMP JUMPDEST DUP3 DUP1 MSTORE PUSH1 0x4 PUSH1 0x20 MSTORE PUSH1 0x40 DUP4 KECCAK256 PUSH1 0x20 MSTORE PUSH1 0x40 DUP4 KECCAK256 DUP1 SLOAD DUP3 PUSH2 0x17D DUP10 DUP3 DUP5 AND PUSH2 0x3DCA JUMP JUMPDEST AND SWAP1 PUSH1 0x1 PUSH1 0x1 PUSH1 0x60 SHL SUB NOT AND OR SWAP1 SSTORE PUSH2 0x195 CALLER PUSH2 0x4525 JUMP JUMPDEST DUP2 PUSH2 0x1D2 JUMPI JUMPDEST POP POP POP PUSH1 0x40 MLOAD SWAP3 DUP5 DUP5 MSTORE PUSH1 0x20 DUP5 ADD MSTORE DUP4 PUSH1 0x40 DUP5 ADD MSTORE PUSH1 0x60 DUP4 ADD MSTORE PUSH1 0x0 DUP1 MLOAD PUSH1 0x20 PUSH2 0x4768 DUP4 CODECOPY DUP2 MLOAD SWAP2 MSTORE PUSH1 0x80 CALLER SWAP4 LOG4 PUSH1 0x1D SLOAD AND PUSH1 0x1D SSTORE STOP JUMPDEST DUP2 PUSH2 0x1EE PUSH1 0x0 DUP1 MLOAD PUSH1 0x20 PUSH2 0x4748 DUP4 CODECOPY DUP2 MLOAD SWAP2 MSTORE SWAP4 PUSH1 0x5 SLOAD PUSH2 0x3A2D JUMP JUMPDEST PUSH1 0x5 SSTORE PUSH2 0x202 DUP6 PUSH1 0x40 MLOAD SWAP4 DUP5 SWAP4 AND DUP4 PUSH2 0x3AAB JUMP JUMPDEST SUB SWAP1 LOG2 DUP4 CODESIZE DUP1 PUSH2 0x19B JUMP JUMPDEST PUSH1 0x40 MLOAD PUSH4 0x6A10CCC9 PUSH1 0xE0 SHL DUP2 MSTORE PUSH1 0x4 SWAP1 REVERT JUMPDEST PUSH1 0x40 MLOAD PUSH4 0x162908E3 PUSH1 0xE1 SHL DUP2 MSTORE PUSH1 0x4 SWAP1 REVERT JUMPDEST PUSH1 0x0 CALLDATALOAD PUSH1 0xE0 SHR SWAP1 DUP2 PUSH4 0x905F560 EQ PUSH2 0x3946 JUMPI POP DUP1 PUSH4 0xFFB1D8B EQ PUSH2 0x38C4 JUMPI DUP1 PUSH4 0x136D8883 EQ PUSH2 0x3875 JUMPI DUP1 PUSH4 0x196C459D EQ PUSH2 0x3782 JUMPI DUP1 PUSH4 0x19F403A2 EQ PUSH2 0x375F JUMPI DUP1 PUSH4 0x1BC3812D EQ PUSH2 0x3741 JUMPI DUP1 PUSH4 0x24F13A76 EQ PUSH2 0x36AB JUMPI DUP1 PUSH4 0x2655822D EQ PUSH2 0x3573 JUMPI DUP1 PUSH4 0x36261849 EQ PUSH2 0x345F JUMPI DUP1 PUSH4 0x37DCC450 EQ PUSH2 0x333C JUMPI DUP1 PUSH4 0x384D0DD8 EQ PUSH2 0x3302 JUMPI DUP1 PUSH4 0x39447490 EQ PUSH2 0x32AC JUMPI DUP1 PUSH4 0x3E29BE98 EQ PUSH2 0x2DD5 JUMPI DUP1 PUSH4 0x3F22987A EQ PUSH2 0x323F JUMPI DUP1 PUSH4 0x3F4BA83A EQ PUSH2 0x31E7 JUMPI DUP1 PUSH4 0x45B05D09 EQ PUSH2 0x310C JUMPI DUP1 PUSH4 0x4923A537 EQ PUSH2 0x30D2 JUMPI DUP1 PUSH4 0x4C45AD71 EQ PUSH2 0x3093 JUMPI DUP1 PUSH4 0x4CFC86CC EQ PUSH2 0x2FF5 JUMPI DUP1 PUSH4 0x4D40108C EQ PUSH2 0x2FCA JUMPI DUP1 PUSH4 0x517F0C00 EQ PUSH2 0x2F5C JUMPI DUP1 PUSH4 0x51FB3CB5 EQ PUSH2 0x2ED4 JUMPI DUP1 PUSH4 0x5C975ABB EQ PUSH2 0x2EB1 JUMPI DUP1 PUSH4 0x5D371BBD EQ PUSH2 0x2E2F JUMPI DUP1 PUSH4 0x60181F50 EQ PUSH2 0x2DD5 JUMPI DUP1 PUSH4 0x69375586 EQ PUSH2 0x2C07 JUMPI DUP1 PUSH4 0x6A1EABA6 EQ PUSH2 0x2ACF JUMPI DUP1 PUSH4 0x6E542487 EQ PUSH2 0x2AB1 JUMPI DUP1 PUSH4 0x70E5DEB9 EQ PUSH2 0x2930 JUMPI DUP1 PUSH4 0x715018A6 EQ PUSH2 0x28CB JUMPI DUP1 PUSH4 0x73A76CCD EQ PUSH2 0x27E0 JUMPI DUP1 PUSH4 0x775D286A EQ PUSH2 0x2793 JUMPI DUP1 PUSH4 0x7796980E EQ PUSH2 0x2754 JUMPI DUP1 PUSH4 0x79BA5097 EQ PUSH2 0x2691 JUMPI DUP1 PUSH4 0x7B6A4B07 EQ PUSH2 0x2530 JUMPI DUP1 PUSH4 0x7C91AD58 EQ PUSH2 0x22F2 JUMPI DUP1 PUSH4 0x7DF7F3BE EQ PUSH2 0x22CA JUMPI DUP1 PUSH4 0x8456CB59 EQ PUSH2 0x2270 JUMPI DUP1 PUSH4 0x8C639A85 EQ PUSH2 0x224F JUMPI DUP1 PUSH4 0x8CD849F6 EQ PUSH2 0x1DEF JUMPI DUP1 PUSH4 0x8DA5CB5B EQ PUSH2 0x1DC6 JUMPI DUP1 PUSH4 0x937B2581 EQ PUSH2 0x1D2A JUMPI DUP1 PUSH4 0x94C9CE68 EQ PUSH2 0x1C55 JUMPI DUP1 PUSH4 0x99B20EAF EQ PUSH2 0x1B7B JUMPI DUP1 PUSH4 0x9AF86345 EQ PUSH2 0x1A67 JUMPI DUP1 PUSH4 0xA01504BB EQ PUSH2 0x18A8 JUMPI DUP1 PUSH4 0xA453D80D EQ PUSH2 0x10DE JUMPI DUP1 PUSH4 0xC415B95C EQ PUSH2 0x10B1 JUMPI DUP1 PUSH4 0xC82FB50C EQ PUSH2 0xCAA JUMPI DUP1 PUSH4 0xCB7E8CE8 EQ PUSH2 0x9DA JUMPI DUP1 PUSH4 0xCC2F0CC4 EQ PUSH2 0x93E JUMPI DUP1 PUSH4 0xCE09B62A EQ PUSH2 0x904 JUMPI DUP1 PUSH4 0xD0096010 EQ PUSH2 0x85E JUMPI DUP1 PUSH4 0xD2C35CE8 EQ PUSH2 0x7BA JUMPI DUP1 PUSH4 0xD4E319FC EQ PUSH2 0x6F5 JUMPI DUP1 PUSH4 0xDAF9C210 EQ PUSH2 0x6B6 JUMPI DUP1 PUSH4 0xE2DAF1A8 EQ PUSH2 0x677 JUMPI DUP1 PUSH4 0xE30C3978 EQ PUSH2 0x64E JUMPI DUP1 PUSH4 0xEF07A81F EQ PUSH2 0x542 JUMPI PUSH4 0xF2FDE38B EQ PUSH2 0x4D2 JUMPI CODESIZE PUSH2 0xF JUMP JUMPDEST CALLVALUE PUSH2 0x53D JUMPI PUSH1 0x20 CALLDATASIZE PUSH1 0x3 NOT ADD SLT PUSH2 0x53D JUMPI PUSH2 0x4EB PUSH2 0x3969 JUMP JUMPDEST PUSH2 0x4F3 PUSH2 0x3F0B JUMP JUMPDEST PUSH1 0x1 DUP1 PUSH1 0xA0 SHL SUB DUP1 SWAP2 AND SWAP1 DUP2 PUSH1 0x1 PUSH1 0x1 PUSH1 0x60 SHL SUB PUSH1 0xA0 SHL PUSH1 0x1 SLOAD AND OR PUSH1 0x1 SSTORE PUSH1 0x0 SLOAD AND PUSH32 0x38D16B8CAC22D99FC7C124B9CD0DE2D3FA1FAEF420BFE791D8C362D765E22700 PUSH1 0x0 DUP1 LOG3 STOP JUMPDEST PUSH1 0x0 DUP1 REVERT JUMPDEST CALLVALUE PUSH2 0x53D JUMPI PUSH1 0x20 CALLDATASIZE PUSH1 0x3 NOT ADD SLT PUSH2 0x53D JUMPI PUSH1 0x0 PUSH1 0xC0 PUSH1 0x40 MLOAD PUSH2 0x563 DUP2 PUSH2 0x3AEA JUMP JUMPDEST DUP3 DUP2 MSTORE DUP3 PUSH1 0x20 DUP3 ADD MSTORE DUP3 PUSH1 0x40 DUP3 ADD MSTORE DUP3 PUSH1 0x60 DUP3 ADD MSTORE DUP3 PUSH1 0x80 DUP3 ADD MSTORE DUP3 PUSH1 0xA0 DUP3 ADD MSTORE ADD MSTORE PUSH1 0x4 CALLDATALOAD PUSH1 0x0 MSTORE PUSH1 0x16 PUSH1 0x20 MSTORE PUSH1 0xE0 PUSH1 0x40 PUSH1 0x0 KECCAK256 PUSH1 0x40 MLOAD PUSH2 0x5A4 DUP2 PUSH2 0x3AEA JUMP JUMPDEST PUSH1 0xC0 PUSH1 0x1 DUP1 PUSH1 0xA0 SHL SUB DUP1 DUP5 SLOAD AND SWAP4 DUP5 DUP5 MSTORE DUP2 PUSH1 0x1 DUP3 ADD SLOAD AND PUSH1 0x20 DUP6 ADD SWAP1 DUP2 MSTORE PUSH1 0x2 DUP3 ADD SLOAD SWAP5 PUSH1 0x3 PUSH1 0x40 DUP3 ADD SWAP4 DUP6 DUP9 AND DUP6 MSTORE PUSH1 0x60 DUP4 ADD SWAP8 PUSH1 0xA0 SHR DUP9 MSTORE ADD SLOAD SWAP6 DUP7 SWAP5 PUSH1 0x1 PUSH1 0x1 PUSH1 0x40 SHL SUB SWAP5 DUP2 PUSH1 0x80 DUP6 ADD SWAP6 DUP8 DUP10 AND DUP8 MSTORE PUSH1 0xFF PUSH1 0x1 PUSH1 0x1 PUSH1 0x60 SHL SUB SWAP11 DUP8 DUP13 PUSH1 0xA0 DUP2 SWAP11 ADD SWAP13 PUSH1 0x40 SHR AND DUP13 MSTORE ADD SWAP12 PUSH1 0xA0 SHR AND ISZERO ISZERO DUP12 MSTORE PUSH1 0x40 MLOAD SWAP12 DUP13 MSTORE MLOAD AND PUSH1 0x20 DUP12 ADD MSTORE MLOAD AND PUSH1 0x40 DUP10 ADD MSTORE MLOAD AND PUSH1 0x60 DUP8 ADD MSTORE MLOAD AND PUSH1 0x80 DUP6 ADD MSTORE MLOAD AND PUSH1 0xA0 DUP4 ADD MSTORE MLOAD ISZERO ISZERO PUSH1 0xC0 DUP3 ADD MSTORE RETURN JUMPDEST CALLVALUE PUSH2 0x53D JUMPI PUSH1 0x0 CALLDATASIZE PUSH1 0x3 NOT ADD SLT PUSH2 0x53D JUMPI PUSH1 0x1 SLOAD PUSH1 0x40 MLOAD PUSH1 0x1 PUSH1 0x1 PUSH1 0xA0 SHL SUB SWAP1 SWAP2 AND DUP2 MSTORE PUSH1 0x20 SWAP1 RETURN JUMPDEST CALLVALUE PUSH2 0x53D JUMPI PUSH1 0x20 CALLDATASIZE PUSH1 0x3 NOT ADD SLT PUSH2 0x53D JUMPI PUSH1 0x1 PUSH1 0x1 PUSH1 0xA0 SHL SUB PUSH2 0x698 PUSH2 0x3969 JUMP JUMPDEST AND PUSH1 0x0 MSTORE PUSH1 0x8 PUSH1 0x20 MSTORE PUSH1 0x20 PUSH1 0xFF PUSH1 0x40 PUSH1 0x0 KECCAK256 SLOAD AND PUSH1 0x40 MLOAD SWAP1 ISZERO ISZERO DUP2 MSTORE RETURN JUMPDEST CALLVALUE PUSH2 0x53D JUMPI PUSH1 0x20 CALLDATASIZE PUSH1 0x3 NOT ADD SLT PUSH2 0x53D JUMPI PUSH1 0x1 PUSH1 0x1 PUSH1 0xA0 SHL SUB PUSH2 0x6D7 PUSH2 0x3969 JUMP JUMPDEST AND PUSH1 0x0 MSTORE PUSH1 0x7 PUSH1 0x20 MSTORE PUSH1 0x20 PUSH1 0xFF PUSH1 0x40 PUSH1 0x0 KECCAK256 SLOAD AND PUSH1 0x40 MLOAD SWAP1 ISZERO ISZERO DUP2 MSTORE RETURN JUMPDEST CALLVALUE PUSH2 0x53D JUMPI PUSH1 0x20 CALLDATASIZE PUSH1 0x3 NOT ADD SLT PUSH2 0x53D JUMPI PUSH2 0x140 PUSH1 0x1 PUSH1 0x1 PUSH1 0xA0 SHL SUB DUP1 PUSH2 0x71A PUSH2 0x3969 JUMP JUMPDEST AND PUSH1 0x0 MSTORE PUSH1 0xA PUSH1 0x20 MSTORE PUSH1 0x40 PUSH1 0x0 KECCAK256 PUSH1 0x1 DUP2 SLOAD SWAP2 ADD SLOAD PUSH1 0xFF PUSH1 0x1 PUSH1 0x1 PUSH1 0x40 SHL SUB SWAP2 PUSH1 0xC PUSH1 0x20 MSTORE DUP2 PUSH1 0x40 PUSH1 0x0 KECCAK256 SLOAD AND SWAP3 PUSH1 0xE PUSH1 0x20 MSTORE DUP3 PUSH1 0x40 PUSH1 0x0 KECCAK256 SLOAD AND SWAP5 PUSH1 0x40 MLOAD SWAP7 DUP2 AND DUP8 MSTORE PUSH1 0xA0 SHR PUSH1 0x20 DUP8 ADD MSTORE DUP1 DUP3 AND PUSH1 0x40 DUP8 ADD MSTORE DUP2 PUSH1 0x40 SHR AND PUSH1 0x60 DUP7 ADD MSTORE PUSH4 0xFFFFFFFF DUP2 PUSH1 0x80 SHR AND PUSH1 0x80 DUP7 ADD MSTORE PUSH2 0xFFFF DUP2 PUSH1 0xA0 SHR AND PUSH1 0xA0 DUP7 ADD MSTORE DUP2 DUP2 PUSH1 0xB0 SHR AND ISZERO ISZERO PUSH1 0xC0 DUP7 ADD MSTORE PUSH1 0xB8 SHR AND ISZERO ISZERO PUSH1 0xE0 DUP5 ADD MSTORE PUSH2 0x100 DUP4 ADD MSTORE PUSH2 0x120 DUP3 ADD MSTORE RETURN JUMPDEST CALLVALUE PUSH2 0x53D JUMPI PUSH1 0x20 CALLDATASIZE PUSH1 0x3 NOT ADD SLT PUSH2 0x53D JUMPI PUSH2 0x7D3 PUSH2 0x3969 JUMP JUMPDEST PUSH2 0x7DB PUSH2 0x3F0B JUMP JUMPDEST PUSH1 0x1 PUSH1 0x1 PUSH1 0xA0 SHL SUB DUP2 DUP2 AND SWAP2 SWAP1 DUP3 ISZERO PUSH2 0x84C JUMPI PUSH1 0x1D DUP1 SLOAD PUSH2 0x100 PUSH1 0x1 PUSH1 0xA8 SHL SUB NOT DUP2 AND PUSH1 0x8 SWAP5 DUP6 SHL PUSH2 0x100 PUSH1 0x1 PUSH1 0xA8 SHL SUB AND OR SWAP1 SWAP2 SSTORE PUSH1 0x40 MLOAD TIMESTAMP PUSH1 0x1 PUSH1 0x1 PUSH1 0x40 SHL SUB AND DUP2 MSTORE SWAP3 SHR AND SWAP1 PUSH32 0xBBC2EF0701F6DB4224E7939925BC42D22B40848022B8A316CA04BDFA6D935788 SWAP1 PUSH1 0x20 SWAP1 LOG3 STOP JUMPDEST PUSH1 0x40 MLOAD PUSH4 0xE6C4247B PUSH1 0xE0 SHL DUP2 MSTORE PUSH1 0x4 SWAP1 REVERT JUMPDEST CALLVALUE PUSH2 0x53D JUMPI PUSH1 0x0 CALLDATASIZE PUSH1 0x3 NOT ADD SLT PUSH2 0x53D JUMPI PUSH2 0x877 PUSH2 0x3F0B JUMP JUMPDEST PUSH1 0x1D DUP1 SLOAD PUSH1 0xFF PUSH1 0xA8 SHL NOT AND PUSH1 0x1 PUSH1 0xA8 SHL OR SWAP1 SSTORE PUSH2 0x892 PUSH2 0x3FB7 JUMP JUMPDEST PUSH1 0x1 PUSH1 0xFF NOT PUSH1 0x3 SLOAD AND OR PUSH1 0x3 SSTORE PUSH32 0x62E78CEA01BEE320CD4E420270B5EA74000D11B0C9F74754EBDBFC544B05A258 PUSH1 0x20 PUSH1 0x40 MLOAD CALLER DUP2 MSTORE LOG1 PUSH32 0x8A7136CDD0934510FDA6BE5DA3A8AAFC36CDB6C275D79C95306A7F6F2FD9C19E PUSH1 0x40 DUP1 MLOAD PUSH1 0x1 DUP2 MSTORE PUSH1 0x1 PUSH1 0x1 PUSH1 0x40 SHL SUB TIMESTAMP AND PUSH1 0x20 DUP3 ADD MSTORE LOG1 STOP JUMPDEST CALLVALUE PUSH2 0x53D JUMPI PUSH1 0x20 CALLDATASIZE PUSH1 0x3 NOT ADD SLT PUSH2 0x53D JUMPI PUSH1 0x1 PUSH1 0x1 PUSH1 0xA0 SHL SUB PUSH2 0x925 PUSH2 0x3969 JUMP JUMPDEST AND PUSH1 0x0 MSTORE PUSH1 0x14 PUSH1 0x20 MSTORE PUSH1 0x20 PUSH1 0x40 PUSH1 0x0 KECCAK256 SLOAD PUSH1 0x40 MLOAD SWAP1 DUP2 MSTORE RETURN JUMPDEST CALLVALUE PUSH2 0x53D JUMPI PUSH1 0x40 CALLDATASIZE PUSH1 0x3 NOT ADD SLT PUSH2 0x53D JUMPI PUSH2 0x957 PUSH2 0x3969 JUMP JUMPDEST PUSH32 0xCFF7217D36FEA04149F06E9E9C622FCB5513BA532BBF69280AF2B6B235943506 PUSH2 0x9D5 PUSH2 0x983 PUSH2 0x3995 JUMP JUMPDEST SWAP3 PUSH2 0x98C PUSH2 0x3F0B JUMP JUMPDEST PUSH1 0x1 PUSH1 0x1 PUSH1 0xA0 SHL SUB AND PUSH1 0x0 DUP2 DUP2 MSTORE PUSH1 0x8 PUSH1 0x20 MSTORE PUSH1 0x40 SWAP1 KECCAK256 DUP1 SLOAD PUSH1 0xFF NOT AND PUSH1 0xFF DUP7 ISZERO ISZERO AND OR SWAP1 SSTORE SWAP3 JUMPDEST PUSH1 0x40 DUP1 MLOAD SWAP2 ISZERO ISZERO DUP3 MSTORE TIMESTAMP PUSH1 0x1 PUSH1 0x1 PUSH1 0x40 SHL SUB AND PUSH1 0x20 DUP4 ADD MSTORE SWAP1 SWAP2 DUP3 SWAP2 DUP3 ADD SWAP1 JUMP JUMPDEST SUB SWAP1 LOG2 STOP JUMPDEST CALLVALUE PUSH2 0x53D JUMPI PUSH1 0x80 CALLDATASIZE PUSH1 0x3 NOT ADD SLT PUSH2 0x53D JUMPI PUSH2 0x9F3 PUSH2 0x3969 JUMP JUMPDEST PUSH2 0x9FB PUSH2 0x39BA JUMP JUMPDEST SWAP1 PUSH1 0x64 CALLDATALOAD PUSH1 0x1 PUSH1 0x1 PUSH1 0x40 SHL SUB DUP2 GT PUSH2 0x53D JUMPI PUSH2 0xA1B SWAP1 CALLDATASIZE SWAP1 PUSH1 0x4 ADD PUSH2 0x39D0 JUMP JUMPDEST SWAP1 PUSH2 0xA24 PUSH2 0x3F63 JUMP JUMPDEST PUSH2 0xA2C PUSH2 0x3FB7 JUMP JUMPDEST CALLER PUSH1 0x0 MSTORE PUSH1 0xB PUSH1 0x20 MSTORE PUSH1 0xFF PUSH1 0x40 PUSH1 0x0 KECCAK256 SLOAD AND ISZERO PUSH2 0xC98 JUMPI CALLER PUSH1 0x0 MSTORE PUSH1 0xA PUSH1 0x20 MSTORE PUSH1 0xFF PUSH1 0x1 PUSH1 0x40 PUSH1 0x0 KECCAK256 ADD SLOAD PUSH1 0xB0 SHR AND ISZERO PUSH2 0xC86 JUMPI PUSH1 0x1 PUSH1 0x1 PUSH1 0x60 SHL SUB DUP5 AND ISZERO PUSH2 0x21F JUMPI CALLER PUSH1 0x0 MSTORE PUSH1 0x4 PUSH1 0x20 MSTORE PUSH1 0x40 PUSH1 0x0 KECCAK256 PUSH1 0x1 DUP1 PUSH1 0xA0 SHL SUB DUP5 AND PUSH1 0x0 MSTORE PUSH1 0x20 MSTORE PUSH1 0x1 PUSH1 0x1 PUSH1 0x60 SHL SUB DUP5 AND PUSH1 0x1 PUSH1 0x1 PUSH1 0x60 SHL SUB PUSH1 0x40 PUSH1 0x0 KECCAK256 SLOAD AND LT PUSH2 0xC74 JUMPI DUP2 PUSH2 0xC40 JUMPI JUMPDEST POP POP CALLER PUSH1 0x0 MSTORE PUSH1 0xA PUSH1 0x20 MSTORE PUSH1 0x40 PUSH1 0x0 KECCAK256 PUSH1 0x1 DUP2 ADD PUSH1 0x1 PUSH1 0x1 PUSH1 0x40 SHL SUB DUP2 SLOAD PUSH1 0x40 SHR AND PUSH3 0x15180 DUP2 ADD DUP1 SWAP2 GT PUSH2 0xC2A JUMPI TIMESTAMP LT PUSH2 0xC18 JUMPI PUSH2 0xBB2 SWAP1 PUSH2 0xB7F PUSH1 0x1 PUSH1 0x1 PUSH1 0x40 SHL SUB TIMESTAMP AND SWAP4 PUSH2 0xB24 DUP6 DUP5 SWAP1 PUSH8 0xFFFFFFFFFFFFFFFF PUSH1 0x40 SHL DUP3 SLOAD SWAP2 PUSH1 0x40 SHL AND SWAP1 PUSH8 0xFFFFFFFFFFFFFFFF PUSH1 0x40 SHL NOT AND OR SWAP1 SSTORE JUMP JUMPDEST CALLER PUSH1 0x0 MSTORE PUSH1 0x4 PUSH1 0x20 MSTORE PUSH1 0x40 PUSH1 0x0 KECCAK256 PUSH1 0x1 DUP1 PUSH1 0xA0 SHL SUB DUP8 AND PUSH1 0x0 MSTORE PUSH1 0x20 MSTORE PUSH1 0x40 PUSH1 0x0 KECCAK256 DUP1 SLOAD PUSH1 0x1 PUSH1 0x1 PUSH1 0x60 SHL SUB PUSH2 0xB5C DUP11 DUP3 DUP5 AND PUSH2 0x3A92 JUMP JUMPDEST AND SWAP1 PUSH1 0x1 PUSH1 0x1 PUSH1 0x60 SHL SUB NOT AND OR SWAP1 SSTORE PUSH2 0xB79 DUP8 DUP3 SLOAD PUSH1 0xA0 SHR PUSH2 0x3DCA JUMP JUMPDEST SWAP1 PUSH2 0x3E54 JUMP JUMPDEST PUSH2 0xB92 PUSH4 0xFFFFFFFF DUP3 SLOAD PUSH1 0x80 SHR AND PUSH2 0x3EF6 JUMP JUMPDEST DUP2 SLOAD PUSH4 0xFFFFFFFF PUSH1 0x80 SHL NOT AND PUSH1 0x80 SWAP2 SWAP1 SWAP2 SHL PUSH4 0xFFFFFFFF PUSH1 0x80 SHL AND OR SWAP1 SSTORE JUMP JUMPDEST PUSH2 0xBC6 PUSH1 0x1 PUSH1 0x1 PUSH1 0x60 SHL SUB DUP5 AND CALLER DUP5 PUSH2 0x4322 JUMP JUMPDEST PUSH1 0x1 PUSH1 0x1 PUSH1 0x60 SHL SUB PUSH1 0x40 MLOAD SWAP4 AND DUP4 MSTORE PUSH1 0x44 CALLDATALOAD PUSH1 0x20 DUP5 ADD MSTORE PUSH1 0x40 DUP4 ADD MSTORE PUSH1 0x1 DUP1 PUSH1 0xA0 SHL SUB AND SWAP1 PUSH32 0x1CF37FCC5646BC144E653E2D340ED0C0290EAEF1B142AC9D4C68EC99949DE1C PUSH1 0x60 CALLER SWAP3 LOG3 PUSH1 0x1 PUSH1 0x2 SSTORE STOP JUMPDEST PUSH1 0x40 MLOAD PUSH4 0x57D8F19B PUSH1 0xE0 SHL DUP2 MSTORE PUSH1 0x4 SWAP1 REVERT JUMPDEST PUSH4 0x4E487B71 PUSH1 0xE0 SHL PUSH1 0x0 MSTORE PUSH1 0x11 PUSH1 0x4 MSTORE PUSH1 0x24 PUSH1 0x0 REVERT JUMPDEST PUSH2 0xC4B SWAP2 CALLDATASIZE SWAP2 PUSH2 0x3D93 JUMP JUMPDEST PUSH1 0x44 CALLDATALOAD SWAP1 PUSH1 0x20 DUP2 MLOAD SWAP2 ADD KECCAK256 SUB PUSH2 0xC62 JUMPI DUP3 DUP1 PUSH2 0xAB0 JUMP JUMPDEST PUSH1 0x40 MLOAD PUSH4 0x3D799FBF PUSH1 0xE1 SHL DUP2 MSTORE PUSH1 0x4 SWAP1 REVERT JUMPDEST PUSH1 0x40 MLOAD PUSH4 0x1E9ACF17 PUSH1 0xE3 SHL DUP2 MSTORE PUSH1 0x4 SWAP1 REVERT JUMPDEST PUSH1 0x40 MLOAD PUSH4 0x630DD941 PUSH1 0xE1 SHL DUP2 MSTORE PUSH1 0x4 SWAP1 REVERT JUMPDEST PUSH1 0x40 MLOAD PUSH4 0x648EADBD PUSH1 0xE0 SHL DUP2 MSTORE PUSH1 0x4 SWAP1 REVERT JUMPDEST CALLVALUE PUSH2 0x53D JUMPI PUSH1 0x80 CALLDATASIZE PUSH1 0x3 NOT ADD SLT PUSH2 0x53D JUMPI PUSH2 0xCC3 PUSH2 0x3969 JUMP JUMPDEST PUSH2 0xCCB PUSH2 0x39BA JUMP JUMPDEST PUSH1 0x44 CALLDATALOAD PUSH1 0x1 PUSH1 0x1 PUSH1 0xA0 SHL SUB DUP2 AND DUP2 SUB PUSH2 0x53D JUMPI PUSH2 0xCE6 PUSH2 0x3F63 JUMP JUMPDEST PUSH2 0xCEE PUSH2 0x3FB7 JUMP JUMPDEST PUSH1 0x1 PUSH1 0x1 PUSH1 0x60 SHL SUB DUP3 AND ISZERO PUSH2 0x21F JUMPI PUSH1 0x1 PUSH1 0x1 PUSH1 0xA0 SHL SUB DUP4 AND PUSH1 0x0 SWAP1 DUP2 MSTORE PUSH1 0x7 PUSH1 0x20 MSTORE PUSH1 0x40 SWAP1 KECCAK256 SLOAD PUSH1 0xFF AND ISZERO PUSH2 0x109F JUMPI PUSH1 0x1 PUSH1 0x1 PUSH1 0xA0 SHL SUB DUP4 AND PUSH1 0x0 SWAP1 DUP2 MSTORE PUSH1 0x8 PUSH1 0x20 MSTORE PUSH1 0x40 SWAP1 KECCAK256 SLOAD PUSH1 0xFF AND PUSH2 0x108D JUMPI PUSH1 0x1 PUSH1 0x1 PUSH1 0xA0 SHL SUB DUP2 AND PUSH2 0x1034 JUMPI JUMPDEST PUSH1 0x1 PUSH1 0x1 PUSH1 0xA0 SHL SUB DUP4 AND PUSH1 0x0 SWAP1 DUP2 MSTORE PUSH1 0x9 PUSH1 0x20 MSTORE PUSH1 0x40 SWAP1 KECCAK256 SLOAD DUP1 ISZERO ISZERO SWAP1 DUP2 PUSH2 0x1021 JUMPI JUMPDEST POP PUSH2 0x20D JUMPI PUSH2 0xD87 PUSH1 0x1 PUSH1 0x1 PUSH1 0x60 SHL SUB DUP4 AND PUSH2 0x44CF JUMP JUMPDEST SWAP3 PUSH1 0x1 PUSH1 0x1 PUSH1 0x60 SHL SUB DUP5 GT PUSH2 0x100F JUMPI PUSH1 0x18 SLOAD SWAP3 PUSH2 0xDA3 DUP5 PUSH2 0x3ACE JUMP JUMPDEST PUSH1 0x18 SSTORE PUSH2 0xE65 DUP6 DUP6 PUSH2 0x140 PUSH1 0x1 PUSH1 0x1 PUSH1 0x60 SHL SUB DUP11 PUSH1 0x1 PUSH1 0x1 PUSH1 0x40 SHL SUB PUSH1 0x3 PUSH1 0x40 MLOAD PUSH2 0xDCD DUP2 PUSH2 0x3AEA JUMP JUMPDEST CALLER DUP2 MSTORE PUSH1 0x1 PUSH1 0x1 PUSH1 0xA0 SHL SUB DUP11 DUP2 AND PUSH1 0x20 DUP1 DUP5 ADD SWAP2 DUP3 MSTORE SWAP6 DUP3 AND PUSH1 0x40 DUP1 DUP6 ADD SWAP2 DUP3 MSTORE SWAP11 DUP9 AND PUSH1 0x60 DUP6 ADD SWAP1 DUP2 MSTORE TIMESTAMP DUP8 AND PUSH1 0x80 DUP7 ADD SWAP1 DUP2 MSTORE PUSH1 0x0 PUSH1 0xA0 DUP1 DUP9 ADD DUP3 DUP2 MSTORE PUSH1 0xC0 DUP10 ADD DUP4 DUP2 MSTORE SWAP15 DUP4 MSTORE PUSH1 0x16 SWAP1 SWAP12 MSTORE SWAP14 SWAP1 KECCAK256 SWAP6 MLOAD DUP7 SLOAD SWAP14 DUP12 SWAP1 SHL SWAP14 DUP15 AND SWAP1 DUP7 AND OR DUP7 SSTORE SWAP3 MLOAD PUSH1 0x1 DUP7 ADD DUP1 SLOAD DUP15 AND SWAP2 DUP7 AND SWAP2 SWAP1 SWAP2 OR SWAP1 SSTORE SWAP1 MLOAD PUSH1 0x2 DUP6 ADD DUP1 SLOAD SWAP1 SWAP13 AND SWAP4 AND SWAP3 SWAP1 SWAP3 OR DUP11 SSTORE SWAP1 MLOAD SWAP1 SWAP9 PUSH2 0x125 SWAP2 DUP8 AND SWAP1 PUSH2 0x3E54 JUMP JUMPDEST PUSH1 0x1 PUSH1 0x1 PUSH1 0x60 SHL SUB PUSH1 0x40 MLOAD SWAP3 PUSH4 0x23B872DD PUSH1 0xE0 SHL PUSH1 0x20 DUP6 ADD MSTORE CALLER PUSH1 0x24 DUP6 ADD MSTORE ADDRESS PUSH1 0x44 DUP6 ADD MSTORE AND PUSH1 0x64 DUP4 ADD MSTORE PUSH1 0x64 DUP3 MSTORE PUSH1 0xA0 DUP3 ADD SWAP3 DUP3 DUP5 LT PUSH1 0x1 PUSH1 0x1 PUSH1 0x40 SHL SUB DUP6 GT OR PUSH2 0xFF9 JUMPI PUSH2 0xED3 PUSH2 0xF80 SWAP4 PUSH1 0x0 DUP1 MLOAD PUSH1 0x20 PUSH2 0x4768 DUP4 CODECOPY DUP2 MLOAD SWAP2 MSTORE SWAP6 PUSH1 0x40 MSTORE PUSH1 0x1 DUP1 PUSH1 0xA0 SHL SUB DUP10 AND PUSH2 0x4565 JUMP JUMPDEST PUSH1 0x1 PUSH1 0x1 PUSH1 0x60 SHL SUB DUP2 AND PUSH2 0xF8A JUMPI JUMPDEST POP PUSH1 0x1 PUSH1 0x1 PUSH1 0xA0 SHL SUB DUP2 DUP2 AND PUSH1 0x0 SWAP1 DUP2 MSTORE PUSH1 0x4 PUSH1 0x20 SWAP1 DUP2 MSTORE PUSH1 0x40 DUP1 DUP4 KECCAK256 SWAP4 DUP11 AND DUP4 MSTORE SWAP3 SWAP1 MSTORE KECCAK256 DUP1 SLOAD PUSH1 0x1 PUSH1 0x1 PUSH1 0x60 SHL SUB PUSH2 0xF20 DUP9 DUP3 AND DUP3 DUP5 AND PUSH2 0x3DCA JUMP JUMPDEST AND SWAP1 PUSH1 0x1 PUSH1 0x1 PUSH1 0x60 SHL SUB NOT AND OR SWAP1 SSTORE PUSH2 0xF38 CALLER PUSH2 0x4525 JUMP JUMPDEST PUSH1 0x40 DUP1 MLOAD PUSH1 0x1 PUSH1 0x1 PUSH1 0xA0 SHL SUB SWAP8 DUP9 AND DUP2 MSTORE PUSH1 0x1 PUSH1 0x1 PUSH1 0x60 SHL SUB SWAP1 SWAP7 AND PUSH1 0x20 DUP8 ADD MSTORE PUSH1 0x64 CALLDATALOAD SWAP1 DUP7 ADD MSTORE TIMESTAMP PUSH1 0x1 PUSH1 0x1 PUSH1 0x40 SHL SUB AND PUSH1 0x60 DUP7 ADD MSTORE SWAP5 SWAP1 SWAP5 AND SWAP4 CALLER SWAP4 SWAP1 DUP2 SWAP1 PUSH1 0x80 DUP3 ADD SWAP1 JUMP JUMPDEST SUB SWAP1 LOG4 PUSH1 0x1 PUSH1 0x2 SSTORE STOP JUMPDEST PUSH1 0x1 DUP1 PUSH1 0xA0 SHL SUB DUP8 AND PUSH1 0x0 MSTORE PUSH1 0x6 PUSH1 0x20 MSTORE PUSH1 0x40 PUSH1 0x0 KECCAK256 PUSH2 0xFB4 PUSH1 0x1 PUSH1 0x1 PUSH1 0x60 SHL SUB DUP4 AND DUP3 SLOAD PUSH2 0x3A2D JUMP JUMPDEST SWAP1 SSTORE PUSH1 0x0 DUP1 MLOAD PUSH1 0x20 PUSH2 0x4748 DUP4 CODECOPY DUP2 MLOAD SWAP2 MSTORE PUSH1 0x40 MLOAD DUP1 PUSH2 0xFF0 PUSH1 0x1 DUP1 PUSH1 0xA0 SHL SUB DUP12 AND SWAP5 PUSH1 0x1 PUSH1 0x1 PUSH1 0x60 SHL SUB PUSH1 0x1 PUSH1 0x1 PUSH1 0x40 SHL SUB TIMESTAMP AND SWAP2 AND DUP4 PUSH2 0x3AAB JUMP JUMPDEST SUB SWAP1 LOG2 DUP7 PUSH2 0xEE2 JUMP JUMPDEST PUSH4 0x4E487B71 PUSH1 0xE0 SHL PUSH1 0x0 MSTORE PUSH1 0x41 PUSH1 0x4 MSTORE PUSH1 0x24 PUSH1 0x0 REVERT JUMPDEST PUSH1 0x40 MLOAD PUSH4 0x1BFFE16D PUSH1 0xE2 SHL DUP2 MSTORE PUSH1 0x4 SWAP1 REVERT JUMPDEST SWAP1 POP PUSH1 0x1 PUSH1 0x1 PUSH1 0x60 SHL SUB DUP4 AND LT DUP5 PUSH2 0xD70 JUMP JUMPDEST PUSH1 0x1 PUSH1 0x1 PUSH1 0xA0 SHL SUB DUP2 AND PUSH1 0x0 SWAP1 DUP2 MSTORE PUSH1 0xB PUSH1 0x20 MSTORE PUSH1 0x40 SWAP1 KECCAK256 SLOAD PUSH1 0xFF AND ISZERO PUSH2 0xC98 JUMPI PUSH1 0x1 PUSH1 0x1 PUSH1 0xA0 SHL SUB DUP2 AND PUSH1 0x0 SWAP1 DUP2 MSTORE PUSH1 0xA PUSH1 0x20 MSTORE PUSH1 0x40 SWAP1 KECCAK256 PUSH1 0x1 ADD SLOAD PUSH1 0xB0 SHR PUSH1 0xFF AND PUSH2 0xD4D JUMPI PUSH1 0x40 MLOAD PUSH4 0x630DD941 PUSH1 0xE1 SHL DUP2 MSTORE PUSH1 0x4 SWAP1 REVERT JUMPDEST PUSH1 0x40 MLOAD PUSH4 0xF3891B3D PUSH1 0xE0 SHL DUP2 MSTORE PUSH1 0x4 SWAP1 REVERT JUMPDEST PUSH1 0x40 MLOAD PUSH4 0x7C241AD PUSH1 0xE5 SHL DUP2 MSTORE PUSH1 0x4 SWAP1 REVERT JUMPDEST CALLVALUE PUSH2 0x53D JUMPI PUSH1 0x0 CALLDATASIZE PUSH1 0x3 NOT ADD SLT PUSH2 0x53D JUMPI PUSH1 0x1D SLOAD PUSH1 0x40 MLOAD PUSH1 0x8 SWAP2 SWAP1 SWAP2 SHR PUSH1 0x1 PUSH1 0x1 PUSH1 0xA0 SHL SUB AND DUP2 MSTORE PUSH1 0x20 SWAP1 RETURN JUMPDEST CALLVALUE PUSH2 0x53D JUMPI PUSH1 0xC0 CALLDATASIZE PUSH1 0x3 NOT ADD SLT PUSH2 0x53D JUMPI PUSH2 0x10F7 PUSH2 0x3969 JUMP JUMPDEST PUSH2 0x10FF PUSH2 0x39BA JUMP JUMPDEST SWAP1 PUSH1 0x64 CALLDATALOAD PUSH1 0x1 PUSH1 0x1 PUSH1 0x40 SHL SUB DUP2 GT PUSH2 0x53D JUMPI PUSH2 0x111F SWAP1 CALLDATASIZE SWAP1 PUSH1 0x4 ADD PUSH2 0x39D0 JUMP JUMPDEST SWAP2 SWAP1 PUSH1 0x84 CALLDATALOAD PUSH1 0x1 PUSH1 0x1 PUSH1 0x40 SHL SUB DUP2 GT PUSH2 0x53D JUMPI PUSH2 0x1140 SWAP1 CALLDATASIZE SWAP1 PUSH1 0x4 ADD PUSH2 0x39FD JUMP JUMPDEST PUSH1 0xA4 SWAP5 SWAP2 SWAP5 CALLDATALOAD PUSH1 0x1 PUSH1 0x1 PUSH1 0x40 SHL SUB DUP2 GT PUSH2 0x53D JUMPI PUSH2 0x1162 SWAP1 CALLDATASIZE SWAP1 PUSH1 0x4 ADD PUSH2 0x39FD JUMP JUMPDEST SWAP2 SWAP1 SWAP3 PUSH2 0x116D PUSH2 0x3F63 JUMP JUMPDEST PUSH2 0x1175 PUSH2 0x3FB7 JUMP JUMPDEST CALLER PUSH1 0x0 MSTORE PUSH1 0xA PUSH1 0x20 MSTORE PUSH1 0x40 PUSH1 0x0 KECCAK256 SWAP5 PUSH1 0x1 DUP1 PUSH1 0xA0 SHL SUB DUP7 SLOAD AND ISZERO PUSH2 0xC98 JUMPI PUSH1 0x1 DUP7 ADD SLOAD PUSH1 0xFF DUP2 PUSH1 0xB0 SHR AND ISZERO PUSH2 0xC86 JUMPI PUSH1 0xFF DUP2 PUSH1 0xB8 SHR AND PUSH2 0x1896 JUMPI PUSH1 0x5 PUSH2 0xFFFF DUP3 PUSH1 0xA0 SHR AND LT ISZERO PUSH2 0x1884 JUMPI PUSH1 0x1 PUSH1 0x1 PUSH1 0x40 SHL SUB DUP2 AND PUSH3 0x15180 DUP2 ADD DUP1 SWAP2 GT PUSH2 0xC2A JUMPI TIMESTAMP LT PUSH2 0xC18 JUMPI PUSH8 0xFFFFFFFFFFFFFFFF NOT AND TIMESTAMP PUSH1 0x1 PUSH1 0x1 PUSH1 0x40 SHL SUB AND OR PUSH1 0x1 DUP8 ADD SSTORE DUP3 ISZERO PUSH2 0x21F JUMPI PUSH1 0xA DUP4 GT PUSH2 0x1872 JUMPI DUP4 DUP4 SUB PUSH2 0x1860 JUMPI DUP2 PUSH2 0x183E JUMPI JUMPDEST POP POP CALLER PUSH1 0x0 MSTORE PUSH1 0x4 PUSH1 0x20 MSTORE PUSH1 0x40 PUSH1 0x0 KECCAK256 PUSH1 0x1 DUP1 PUSH1 0xA0 SHL SUB DUP7 AND PUSH1 0x0 MSTORE PUSH1 0x20 MSTORE PUSH1 0x1 PUSH1 0x1 PUSH1 0x60 SHL SUB PUSH1 0x40 PUSH1 0x0 KECCAK256 SLOAD AND PUSH1 0x1 PUSH1 0x1 PUSH1 0x60 SHL SUB DUP9 AND GT PUSH2 0xC74 JUMPI PUSH1 0x0 DUP1 JUMPDEST DUP3 DUP2 LT PUSH2 0x16F2 JUMPI POP PUSH1 0x1 PUSH1 0x1 PUSH1 0x60 SHL SUB DUP1 DUP10 AND SWAP2 AND SUB PUSH2 0x21F JUMPI PUSH1 0x19 SLOAD SWAP6 PUSH2 0x127A DUP8 PUSH2 0x3ACE JUMP JUMPDEST PUSH1 0x19 SSTORE CALLER PUSH1 0x0 MSTORE PUSH1 0xC PUSH1 0x20 MSTORE PUSH1 0xFF PUSH1 0x40 PUSH1 0x0 KECCAK256 SLOAD AND PUSH1 0x40 MLOAD SWAP1 DUP2 PUSH2 0x120 DUP2 ADD LT PUSH1 0x1 PUSH1 0x1 PUSH1 0x40 SHL SUB PUSH2 0x120 DUP5 ADD GT OR PUSH2 0xFF9 JUMPI PUSH1 0x3 SWAP1 PUSH2 0x120 DUP4 ADD PUSH1 0x40 MSTORE CALLER DUP4 MSTORE PUSH1 0x1 DUP1 PUSH1 0xA0 SHL SUB DUP10 AND PUSH1 0x20 DUP5 ADD MSTORE PUSH1 0x1 PUSH1 0x1 PUSH1 0x60 SHL SUB DUP12 AND PUSH1 0x40 DUP5 ADD MSTORE PUSH1 0x1 PUSH1 0x1 PUSH1 0x40 SHL SUB TIMESTAMP AND PUSH1 0x60 DUP5 ADD MSTORE PUSH1 0x0 PUSH1 0x80 DUP5 ADD MSTORE PUSH1 0x0 PUSH1 0xA0 DUP5 ADD MSTORE PUSH1 0xC0 DUP4 ADD SWAP1 DUP2 MSTORE PUSH2 0x13E9 PUSH1 0xE0 DUP5 ADD SWAP2 PUSH1 0x0 DUP4 MSTORE PUSH1 0xFF PUSH2 0x100 DUP7 ADD SWAP4 PUSH1 0x44 CALLDATALOAD DUP6 MSTORE DUP14 PUSH1 0x0 MSTORE PUSH1 0x10 PUSH1 0x20 MSTORE PUSH1 0x40 PUSH1 0x0 KECCAK256 SWAP7 PUSH2 0x1371 PUSH1 0x1 DUP1 PUSH1 0xA0 SHL SUB DUP3 MLOAD AND PUSH1 0x1 PUSH1 0x1 PUSH1 0x60 SHL SUB PUSH1 0xA0 SHL SWAP1 DUP2 DUP12 SLOAD AND OR DUP11 SSTORE PUSH1 0x1 DUP11 ADD SWAP1 PUSH1 0x1 DUP1 PUSH1 0xA0 SHL SUB PUSH1 0x20 DUP6 ADD MLOAD AND SWAP1 DUP3 SLOAD AND OR DUP2 SSTORE PUSH1 0x1 PUSH1 0x1 PUSH1 0x60 SHL SUB PUSH1 0x40 DUP5 ADD MLOAD AND SWAP1 PUSH2 0x3E54 JUMP JUMPDEST PUSH1 0x2 DUP9 ADD SWAP4 PUSH1 0x1 PUSH1 0x1 PUSH1 0x40 SHL SUB PUSH1 0x60 DUP4 ADD MLOAD AND SWAP2 DUP6 SLOAD SWAP3 PUSH1 0xFF PUSH1 0x48 SHL PUSH1 0xA0 PUSH9 0xFF0000000000000000 PUSH1 0x80 DUP6 ADD MLOAD ISZERO ISZERO PUSH1 0x40 SHL AND SWAP4 ADD MLOAD ISZERO ISZERO PUSH1 0x48 SHL AND SWAP3 DUP7 PUSH1 0x50 SHL SWAP1 MLOAD PUSH1 0x50 SHL AND SWAP4 PUSH11 0xFFFFFFFFFFFFFFFFFFFFFF NOT AND OR OR OR OR DUP4 SSTORE MLOAD AND DUP2 SLOAD SWAP1 PUSH1 0xFF PUSH1 0x58 SHL SWAP1 PUSH1 0x58 SHL AND SWAP1 PUSH1 0xFF PUSH1 0x58 SHL NOT AND OR SWAP1 SSTORE JUMP JUMPDEST MLOAD SWAP2 ADD SSTORE PUSH1 0x12 PUSH1 0x20 MSTORE PUSH1 0x40 PUSH1 0x0 KECCAK256 SWAP1 PUSH1 0x1 PUSH1 0x1 PUSH1 0x40 SHL SUB DUP4 GT PUSH2 0xFF9 JUMPI PUSH1 0x1 PUSH1 0x40 SHL DUP4 GT PUSH2 0xFF9 JUMPI DUP2 SLOAD DUP4 DUP4 SSTORE DUP1 DUP5 LT PUSH2 0x16D4 JUMPI JUMPDEST POP SWAP1 PUSH1 0x0 MSTORE PUSH1 0x20 PUSH1 0x0 KECCAK256 PUSH1 0x0 JUMPDEST DUP4 DUP2 LT PUSH2 0x16C0 JUMPI POP POP POP POP DUP5 PUSH1 0x0 MSTORE PUSH1 0x13 PUSH1 0x20 MSTORE PUSH1 0x40 PUSH1 0x0 KECCAK256 SWAP2 PUSH1 0x1 PUSH1 0x1 PUSH1 0x40 SHL SUB DUP3 GT PUSH2 0xFF9 JUMPI PUSH1 0x1 PUSH1 0x40 SHL DUP3 GT PUSH2 0xFF9 JUMPI DUP3 SLOAD DUP3 DUP5 SSTORE DUP1 DUP4 LT PUSH2 0x1670 JUMPI JUMPDEST POP SWAP2 PUSH1 0x0 MSTORE PUSH1 0x20 PUSH1 0x0 KECCAK256 SWAP1 PUSH1 0x0 JUMPDEST DUP2 PUSH1 0x1 SHR DUP2 LT PUSH2 0x161D JUMPI POP PUSH1 0x1 NOT DUP2 AND DUP1 DUP3 SUB PUSH2 0x15C0 JUMPI JUMPDEST POP POP POP POP PUSH2 0xFFFF PUSH1 0x1 DUP3 ADD SLOAD PUSH1 0xA0 SHR AND SWAP1 PUSH2 0xFFFF DUP3 EQ PUSH2 0xC2A JUMPI PUSH1 0x1 SWAP1 DUP2 ADD DUP1 SLOAD PUSH2 0xFFFF PUSH1 0xA0 SHL NOT AND SWAP3 SWAP1 SWAP2 ADD PUSH1 0xA0 SHL PUSH2 0xFFFF PUSH1 0xA0 SHL AND SWAP2 SWAP1 SWAP2 OR SWAP1 SSTORE PUSH2 0x14D9 PUSH1 0x1C SLOAD PUSH2 0x3ACE JUMP JUMPDEST PUSH1 0x1C SSTORE CALLER PUSH1 0x0 MSTORE PUSH1 0x14 PUSH1 0x20 MSTORE PUSH1 0x40 PUSH1 0x0 KECCAK256 SLOAD DUP3 PUSH1 0x0 MSTORE PUSH1 0x15 PUSH1 0x20 MSTORE PUSH1 0x40 PUSH1 0x0 KECCAK256 SSTORE CALLER PUSH1 0x0 MSTORE PUSH1 0x14 PUSH1 0x20 MSTORE PUSH1 0x40 PUSH1 0x0 KECCAK256 SWAP3 DUP4 SLOAD SWAP4 PUSH1 0x1 PUSH1 0x40 SHL DUP6 LT ISZERO PUSH2 0xFF9 JUMPI PUSH2 0x15B0 DUP5 SWAP3 PUSH2 0x156D DUP5 PUSH2 0x1554 DUP10 PUSH32 0x37427D35F92C3A1B2085192F3AB3451EDD3678CDE724DDFEF353BB05801FF219 SWAP7 PUSH1 0x1 PUSH1 0x20 SWAP13 ADD DUP2 SSTORE PUSH2 0x3BD7 JUMP JUMPDEST SWAP1 SWAP2 SWAP1 DUP3 SLOAD SWAP1 PUSH1 0x3 SHL SWAP2 DUP3 SHL SWAP2 PUSH1 0x0 NOT SWAP1 SHL NOT AND OR SWAP1 SSTORE JUMP JUMPDEST PUSH1 0x40 DUP1 MLOAD PUSH1 0x1 PUSH1 0x1 PUSH1 0xA0 SHL SUB SWAP1 SWAP7 AND DUP7 MSTORE PUSH1 0x1 PUSH1 0x1 PUSH1 0x60 SHL SUB SWAP1 SWAP2 AND PUSH1 0x20 DUP7 ADD MSTORE PUSH1 0x44 CALLDATALOAD SWAP1 DUP6 ADD MSTORE TIMESTAMP PUSH1 0x1 PUSH1 0x1 PUSH1 0x40 SHL SUB AND PUSH1 0x60 DUP6 ADD MSTORE CALLER SWAP4 SWAP1 DUP2 SWAP1 PUSH1 0x80 DUP3 ADD SWAP1 JUMP JUMPDEST SUB SWAP1 LOG3 PUSH1 0x1 PUSH1 0x2 SSTORE PUSH1 0x40 MLOAD SWAP1 DUP2 MSTORE RETURN JUMPDEST SWAP3 PUSH1 0x0 SWAP4 PUSH1 0x0 JUMPDEST DUP2 DUP5 SUB DUP2 LT PUSH2 0x15E1 JUMPI POP POP POP PUSH1 0x1 SHR ADD SSTORE DUP5 DUP1 DUP1 DUP1 PUSH2 0x1491 JUMP JUMPDEST SWAP1 SWAP2 SWAP5 PUSH1 0x20 PUSH2 0x1613 PUSH1 0x1 SWAP3 PUSH2 0x15F5 DUP10 PUSH2 0x3EB2 JUMP JUMPDEST SWAP1 DUP6 PUSH1 0xC MUL PUSH1 0x3 SHL SWAP2 PUSH1 0x1 PUSH1 0x1 PUSH1 0x60 SHL SUB DUP1 SWAP2 AND DUP4 SHL SWAP3 SHL NOT AND OR SWAP1 JUMP JUMPDEST SWAP7 ADD SWAP3 SWAP2 ADD PUSH2 0x15C7 JUMP JUMPDEST PUSH1 0x0 DUP1 JUMPDEST PUSH1 0x2 DUP2 LT PUSH2 0x1636 JUMPI POP DUP4 DUP3 ADD SSTORE PUSH1 0x1 ADD PUSH2 0x1479 JUMP JUMPDEST SWAP5 SWAP1 PUSH1 0x20 PUSH2 0x1667 PUSH1 0x1 SWAP3 PUSH2 0x1649 DUP6 PUSH2 0x3EB2 JUMP JUMPDEST SWAP1 DUP10 PUSH1 0xC MUL PUSH1 0x3 SHL SWAP2 PUSH1 0x1 PUSH1 0x1 PUSH1 0x60 SHL SUB DUP1 SWAP2 AND DUP4 SHL SWAP3 SHL NOT AND OR SWAP1 JUMP JUMPDEST SWAP3 ADD SWAP6 ADD PUSH2 0x1621 JUMP JUMPDEST PUSH2 0x169F SWAP1 DUP5 PUSH1 0x0 MSTORE PUSH1 0x20 PUSH1 0x0 KECCAK256 PUSH1 0x1 DUP1 DUP7 ADD DUP2 SHR DUP3 ADD SWAP3 PUSH1 0xC DUP3 DUP9 AND MUL DUP1 PUSH2 0x16A5 JUMPI JUMPDEST POP ADD PUSH1 0x1 SHR ADD SWAP1 PUSH2 0x3E9B JUMP JUMPDEST DUP8 PUSH2 0x146B JUMP JUMPDEST PUSH1 0x0 NOT SWAP1 DUP2 DUP7 ADD SWAP2 DUP3 SLOAD SWAP2 PUSH1 0x20 SUB PUSH1 0x3 SHL SHR AND SWAP1 SSTORE DUP13 PUSH2 0x1693 JUMP JUMPDEST PUSH1 0x1 SWAP1 PUSH1 0x20 DUP5 CALLDATALOAD SWAP5 ADD SWAP4 DUP2 DUP5 ADD SSTORE ADD PUSH2 0x142B JUMP JUMPDEST PUSH2 0x16EC SWAP1 DUP4 PUSH1 0x0 MSTORE DUP5 PUSH1 0x20 PUSH1 0x0 KECCAK256 SWAP2 DUP3 ADD SWAP2 ADD PUSH2 0x3E9B JUMP JUMPDEST DUP10 PUSH2 0x141E JUMP JUMPDEST SWAP1 PUSH2 0x1719 SWAP1 PUSH1 0x1 PUSH1 0x1 PUSH1 0x60 SHL SUB PUSH2 0x1712 PUSH2 0x170D DUP6 DUP9 DUP11 PUSH2 0x3E77 JUMP JUMPDEST PUSH2 0x3EB2 JUMP JUMPDEST AND SWAP1 PUSH2 0x3A2D JUMP JUMPDEST SWAP1 PUSH1 0x1 PUSH1 0x1 PUSH1 0x60 SHL SUB DUP3 GT PUSH2 0x100F JUMPI PUSH2 0x1733 DUP2 DUP5 DUP11 PUSH2 0x3E77 JUMP JUMPDEST CALLDATALOAD PUSH1 0x0 SWAP1 DUP2 MSTORE PUSH1 0x16 PUSH1 0x20 MSTORE PUSH1 0x40 SWAP1 KECCAK256 DUP1 SLOAD PUSH1 0x1 PUSH1 0x1 PUSH1 0xA0 SHL SUB AND ISZERO PUSH2 0x182C JUMPI PUSH1 0x3 DUP2 ADD SLOAD PUSH1 0xFF DUP2 PUSH1 0xA0 SHR AND PUSH2 0x181A JUMPI PUSH1 0x1 DUP3 ADD SLOAD CALLER PUSH1 0x1 PUSH1 0x1 PUSH1 0xA0 SHL SUB SWAP1 SWAP2 AND SUB PUSH2 0x17DE JUMPI PUSH1 0x1 PUSH1 0x1 PUSH1 0xA0 SHL SUB DUP10 AND PUSH2 0x17F0 JUMPI PUSH1 0x2 DUP3 ADD SLOAD PUSH1 0x1 PUSH1 0x1 PUSH1 0xA0 SHL SUB AND PUSH2 0x17DE JUMPI PUSH1 0x1 PUSH1 0x1 PUSH1 0x60 SHL SUB PUSH1 0x2 PUSH2 0x17B7 SWAP4 JUMPDEST ADD SLOAD PUSH1 0xA0 SHR SWAP2 PUSH1 0x40 SHR AND SWAP1 PUSH2 0x3A92 JUMP JUMPDEST PUSH1 0x1 PUSH1 0x1 PUSH1 0x60 SHL SUB DUP1 PUSH2 0x17CE PUSH2 0x170D DUP6 DUP10 DUP12 PUSH2 0x3E77 JUMP JUMPDEST AND SWAP2 AND LT PUSH2 0xC74 JUMPI PUSH1 0x1 ADD PUSH2 0x1253 JUMP JUMPDEST PUSH1 0x40 MLOAD PUSH4 0x319BC5C1 PUSH1 0xE2 SHL DUP2 MSTORE PUSH1 0x4 SWAP1 REVERT JUMPDEST PUSH1 0x2 DUP3 ADD SLOAD PUSH1 0x1 PUSH1 0x1 PUSH1 0xA0 SHL SUB DUP11 DUP2 AND SWAP2 AND SUB PUSH2 0x17DE JUMPI PUSH1 0x1 PUSH1 0x1 PUSH1 0x60 SHL SUB PUSH1 0x2 PUSH2 0x17B7 SWAP4 PUSH2 0x17A7 JUMP JUMPDEST PUSH1 0x40 MLOAD PUSH4 0x72BD5D9F PUSH1 0xE0 SHL DUP2 MSTORE PUSH1 0x4 SWAP1 REVERT JUMPDEST PUSH1 0x40 MLOAD PUSH4 0x20D3BCED PUSH1 0xE1 SHL DUP2 MSTORE PUSH1 0x4 SWAP1 REVERT JUMPDEST PUSH2 0x1849 SWAP2 CALLDATASIZE SWAP2 PUSH2 0x3D93 JUMP JUMPDEST PUSH1 0x44 CALLDATALOAD SWAP1 PUSH1 0x20 DUP2 MLOAD SWAP2 ADD KECCAK256 SUB PUSH2 0xC62 JUMPI DUP8 DUP1 PUSH2 0x1212 JUMP JUMPDEST PUSH1 0x40 MLOAD PUSH4 0x512509D3 PUSH1 0xE1 SHL DUP2 MSTORE PUSH1 0x4 SWAP1 REVERT JUMPDEST PUSH1 0x40 MLOAD PUSH4 0x3C830D49 PUSH1 0xE1 SHL DUP2 MSTORE PUSH1 0x4 SWAP1 REVERT JUMPDEST PUSH1 0x40 MLOAD PUSH4 0x8BF0A579 PUSH1 0xE0 SHL DUP2 MSTORE PUSH1 0x4 SWAP1 REVERT JUMPDEST PUSH1 0x40 MLOAD PUSH4 0x6022A9E7 PUSH1 0xE0 SHL DUP2 MSTORE PUSH1 0x4 SWAP1 REVERT JUMPDEST CALLVALUE PUSH2 0x53D JUMPI PUSH1 0x60 CALLDATASIZE PUSH1 0x3 NOT ADD SLT PUSH2 0x53D JUMPI PUSH2 0x18C1 PUSH2 0x3969 JUMP JUMPDEST PUSH2 0x18C9 PUSH2 0x397F JUMP JUMPDEST PUSH1 0x44 CALLDATALOAD SWAP2 DUP3 ISZERO ISZERO DUP4 SUB PUSH2 0x53D JUMPI PUSH2 0x18DE PUSH2 0x3F0B JUMP JUMPDEST PUSH1 0x1 DUP1 PUSH1 0xA0 SHL SUB DUP1 SWAP2 AND SWAP2 DUP3 PUSH1 0x0 MSTORE PUSH1 0x20 SWAP2 PUSH1 0xB DUP4 MSTORE PUSH1 0xFF SWAP2 DUP3 PUSH1 0x40 PUSH1 0x0 KECCAK256 SLOAD AND ISZERO PUSH2 0xC98 JUMPI AND SWAP4 DUP5 ISZERO PUSH2 0x84C JUMPI DUP4 DUP6 EQ PUSH2 0x1A55 JUMPI DUP4 PUSH1 0x0 MSTORE PUSH1 0xE DUP4 MSTORE DUP2 PUSH1 0x40 PUSH1 0x0 KECCAK256 SLOAD AND PUSH1 0xD DUP5 MSTORE PUSH1 0x40 PUSH1 0x0 KECCAK256 DUP7 PUSH1 0x0 MSTORE DUP5 MSTORE DUP3 PUSH1 0x40 PUSH1 0x0 KECCAK256 SLOAD AND DUP3 PUSH1 0x0 EQ PUSH2 0x19EF JUMPI PUSH1 0xA DUP3 LT ISZERO PUSH2 0x19DD JUMPI PUSH2 0x19CB JUMPI PUSH1 0x1 ADD SWAP3 DUP3 DUP5 GT PUSH2 0xC2A JUMPI PUSH32 0x3D45F91B9D5B3B9BC391EC90CEF3801BFA08BFB60F5B84BA74EB3329DDF5A3E2 SWAP4 PUSH2 0x19C6 SWAP4 DUP7 PUSH1 0x0 MSTORE PUSH1 0xE DUP4 MSTORE PUSH1 0x40 PUSH1 0x0 KECCAK256 SWAP2 AND PUSH1 0xFF NOT DUP3 SLOAD AND OR SWAP1 SSTORE JUMPDEST DUP5 PUSH1 0x0 MSTORE PUSH1 0xD DUP2 MSTORE PUSH1 0x40 PUSH1 0x0 KECCAK256 SWAP1 DUP7 PUSH1 0x0 MSTORE MSTORE PUSH2 0x9B4 DUP2 PUSH1 0x40 PUSH1 0x0 KECCAK256 SWAP1 PUSH1 0xFF DUP1 NOT DUP4 SLOAD AND SWAP2 ISZERO ISZERO AND OR SWAP1 SSTORE JUMP JUMPDEST SUB SWAP1 LOG3 STOP JUMPDEST PUSH1 0x40 MLOAD PUSH4 0x80FC0BD PUSH1 0xE1 SHL DUP2 MSTORE PUSH1 0x4 SWAP1 REVERT JUMPDEST PUSH1 0x40 MLOAD PUSH4 0x2CC191FD PUSH1 0xE1 SHL DUP2 MSTORE PUSH1 0x4 SWAP1 REVERT JUMPDEST ISZERO PUSH2 0x1A43 JUMPI PUSH1 0x0 NOT ADD SWAP3 DUP3 DUP5 GT PUSH2 0xC2A JUMPI PUSH32 0x3D45F91B9D5B3B9BC391EC90CEF3801BFA08BFB60F5B84BA74EB3329DDF5A3E2 SWAP4 PUSH2 0x19C6 SWAP4 DUP7 PUSH1 0x0 MSTORE PUSH1 0xE DUP4 MSTORE PUSH1 0x40 PUSH1 0x0 KECCAK256 SWAP2 AND PUSH1 0xFF NOT DUP3 SLOAD AND OR SWAP1 SSTORE PUSH2 0x1999 JUMP JUMPDEST PUSH1 0x40 MLOAD PUSH4 0x197E133 PUSH1 0xE6 SHL DUP2 MSTORE PUSH1 0x4 SWAP1 REVERT JUMPDEST PUSH1 0x40 MLOAD PUSH4 0x8DD19E7D PUSH1 0xE0 SHL DUP2 MSTORE PUSH1 0x4 SWAP1 REVERT JUMPDEST CALLVALUE PUSH2 0x53D JUMPI PUSH1 0x20 DUP1 PUSH1 0x3 NOT CALLDATASIZE ADD SLT PUSH2 0x53D JUMPI PUSH1 0x4 CALLDATALOAD PUSH2 0x1A84 PUSH2 0x3F63 JUMP JUMPDEST PUSH1 0x0 DUP2 DUP2 MSTORE PUSH1 0x10 DUP4 MSTORE PUSH1 0x40 SWAP1 KECCAK256 SLOAD PUSH1 0x1 PUSH1 0x1 PUSH1 0xA0 SHL SUB SWAP1 DUP2 AND ISZERO PUSH2 0x1B69 JUMPI DUP2 PUSH1 0x0 MSTORE PUSH1 0x10 DUP4 MSTORE PUSH1 0x40 PUSH1 0x0 KECCAK256 PUSH1 0x2 DUP2 ADD SWAP2 DUP3 SLOAD SWAP2 PUSH1 0xFF DUP4 PUSH1 0x40 SHR AND PUSH2 0x1B57 JUMPI PUSH1 0xFF DUP4 PUSH1 0x48 SHR AND PUSH2 0x1B45 JUMPI SLOAD AND DUP1 PUSH1 0x0 MSTORE PUSH1 0xD DUP6 MSTORE PUSH1 0x40 PUSH1 0x0 KECCAK256 CALLER PUSH1 0x0 MSTORE DUP6 MSTORE PUSH1 0xFF PUSH1 0x40 PUSH1 0x0 KECCAK256 SLOAD AND ISZERO PUSH2 0x1A43 JUMPI PUSH2 0x1B0A SWAP3 PUSH1 0x1 PUSH1 0x48 SHL DUP6 SWAP4 PUSH1 0xFF PUSH1 0x48 SHL NOT AND OR SWAP1 SSTORE PUSH2 0x4397 JUMP JUMPDEST PUSH32 0x939643566EAE6D78C93CED3453FCAF6B3A035B3BC3216D8DCC0276CC12F473B8 PUSH1 0x40 MLOAD SWAP3 PUSH1 0x1 PUSH1 0x1 PUSH1 0x40 SHL SUB TIMESTAMP AND DUP5 MSTORE CALLER SWAP4 LOG3 PUSH1 0x1 PUSH1 0x2 SSTORE STOP JUMPDEST PUSH1 0x40 MLOAD PUSH4 0x60ACDF7 PUSH1 0xE5 SHL DUP2 MSTORE PUSH1 0x4 SWAP1 REVERT JUMPDEST PUSH1 0x40 MLOAD PUSH4 0x6B78FCA3 PUSH1 0xE1 SHL DUP2 MSTORE PUSH1 0x4 SWAP1 REVERT JUMPDEST PUSH1 0x40 MLOAD PUSH4 0x2589D98F PUSH1 0xE1 SHL DUP2 MSTORE PUSH1 0x4 SWAP1 REVERT JUMPDEST CALLVALUE PUSH2 0x53D JUMPI PUSH1 0x0 CALLDATASIZE PUSH1 0x3 NOT ADD SLT PUSH2 0x53D JUMPI PUSH2 0x1B94 PUSH2 0x3F0B JUMP JUMPDEST PUSH1 0x1D DUP1 SLOAD PUSH1 0xFF PUSH1 0xA8 SHL NOT AND SWAP1 SSTORE PUSH1 0x3 SLOAD PUSH1 0xFF DUP2 AND ISZERO PUSH2 0x1C19 JUMPI PUSH1 0xFF NOT AND PUSH1 0x3 SSTORE PUSH32 0x5DB9EE0A495BF2E6FF9C91A7834C1BA4FDD244A5E8AA4E537BD38AEAE4B073AA PUSH1 0x20 PUSH1 0x40 MLOAD CALLER DUP2 MSTORE LOG1 PUSH32 0x8A7136CDD0934510FDA6BE5DA3A8AAFC36CDB6C275D79C95306A7F6F2FD9C19E PUSH1 0x40 DUP1 MLOAD PUSH1 0x0 DUP2 MSTORE PUSH1 0x1 PUSH1 0x1 PUSH1 0x40 SHL SUB TIMESTAMP AND PUSH1 0x20 DUP3 ADD MSTORE LOG1 STOP JUMPDEST PUSH1 0x40 MLOAD PUSH3 0x461BCD PUSH1 0xE5 SHL DUP2 MSTORE PUSH1 0x20 PUSH1 0x4 DUP3 ADD MSTORE PUSH1 0x14 PUSH1 0x24 DUP3 ADD MSTORE PUSH20 0x14185D5CD8589B194E881B9BDD081C185D5CD959 PUSH1 0x62 SHL PUSH1 0x44 DUP3 ADD MSTORE PUSH1 0x64 SWAP1 REVERT JUMPDEST CALLVALUE PUSH2 0x53D JUMPI PUSH1 0x40 CALLDATASIZE PUSH1 0x3 NOT ADD SLT PUSH2 0x53D JUMPI PUSH2 0x1C6E PUSH2 0x3969 JUMP JUMPDEST PUSH2 0x1C76 PUSH2 0x3995 JUMP JUMPDEST SWAP1 PUSH2 0x1C7F PUSH2 0x3F0B JUMP JUMPDEST PUSH1 0x1 PUSH1 0x1 PUSH1 0xA0 SHL SUB AND PUSH1 0x0 DUP2 DUP2 MSTORE PUSH1 0xB PUSH1 0x20 MSTORE PUSH1 0x40 SWAP1 KECCAK256 SLOAD PUSH1 0xFF AND ISZERO PUSH2 0xC98 JUMPI DUP1 PUSH1 0x0 MSTORE PUSH1 0xA PUSH1 0x20 MSTORE PUSH1 0xFF PUSH1 0x1 PUSH1 0x40 PUSH1 0x0 KECCAK256 ADD SLOAD PUSH1 0xB0 SHR AND ISZERO PUSH2 0xC86 JUMPI PUSH1 0x0 DUP2 DUP2 MSTORE PUSH1 0xA PUSH1 0x20 MSTORE PUSH1 0x40 SWAP1 KECCAK256 PUSH1 0x1 ADD DUP1 SLOAD PUSH1 0xFF PUSH1 0xB8 SHL NOT AND DUP4 ISZERO ISZERO PUSH1 0xB8 SHL PUSH1 0xFF PUSH1 0xB8 SHL AND OR SWAP1 SSTORE PUSH1 0x40 DUP1 MLOAD SWAP3 ISZERO ISZERO DUP4 MSTORE TIMESTAMP PUSH1 0x1 PUSH1 0x1 PUSH1 0x40 SHL SUB AND PUSH1 0x20 DUP5 ADD MSTORE CALLER SWAP3 PUSH32 0x2B454757A53F3895D220B6162B39B89DF13E48768EB46A2827C3C137EAEE878A SWAP2 DUP2 SWAP1 DUP2 ADD PUSH2 0x19C6 JUMP JUMPDEST CALLVALUE PUSH2 0x53D JUMPI PUSH1 0x20 CALLDATASIZE PUSH1 0x3 NOT ADD SLT PUSH2 0x53D JUMPI PUSH1 0x4 CALLDATALOAD PUSH1 0x0 MSTORE PUSH1 0x10 PUSH1 0x20 MSTORE PUSH2 0x120 PUSH1 0x40 PUSH1 0x0 KECCAK256 PUSH1 0x1 DUP1 PUSH1 0xA0 SHL SUB PUSH1 0xFF DUP2 DUP4 SLOAD AND SWAP3 PUSH1 0x1 DUP2 ADD SLOAD PUSH1 0x3 PUSH1 0x2 DUP4 ADD SLOAD SWAP3 ADD SLOAD SWAP4 PUSH1 0x40 MLOAD SWAP6 DUP7 MSTORE DUP2 AND PUSH1 0x20 DUP7 ADD MSTORE PUSH1 0xA0 SHR PUSH1 0x40 DUP6 ADD MSTORE PUSH1 0x1 PUSH1 0x1 PUSH1 0x40 SHL SUB DUP2 AND PUSH1 0x60 DUP6 ADD MSTORE DUP2 DUP2 PUSH1 0x40 SHR AND ISZERO ISZERO PUSH1 0x80 DUP6 ADD MSTORE DUP2 DUP2 PUSH1 0x48 SHR AND ISZERO ISZERO PUSH1 0xA0 DUP6 ADD MSTORE DUP2 DUP2 PUSH1 0x50 SHR AND PUSH1 0xC0 DUP6 ADD MSTORE PUSH1 0x58 SHR AND PUSH1 0xE0 DUP4 ADD MSTORE PUSH2 0x100 DUP3 ADD MSTORE RETURN JUMPDEST CALLVALUE PUSH2 0x53D JUMPI PUSH1 0x0 CALLDATASIZE PUSH1 0x3 NOT ADD SLT PUSH2 0x53D JUMPI PUSH1 0x0 SLOAD PUSH1 0x40 MLOAD PUSH1 0x1 PUSH1 0x1 PUSH1 0xA0 SHL SUB SWAP1 SWAP2 AND DUP2 MSTORE PUSH1 0x20 SWAP1 RETURN JUMPDEST CALLVALUE PUSH2 0x53D JUMPI PUSH1 0x80 CALLDATASIZE PUSH1 0x3 NOT ADD SLT PUSH2 0x53D JUMPI PUSH2 0x1E08 PUSH2 0x3969 JUMP JUMPDEST PUSH1 0x44 CALLDATALOAD PUSH1 0x1 PUSH1 0x1 PUSH1 0x40 SHL SUB DUP2 GT PUSH2 0x53D JUMPI PUSH2 0x1E27 SWAP1 CALLDATASIZE SWAP1 PUSH1 0x4 ADD PUSH2 0x39FD JUMP JUMPDEST SWAP1 PUSH1 0x64 CALLDATALOAD SWAP1 PUSH1 0xFF DUP3 AND DUP1 SWAP3 SUB PUSH2 0x53D JUMPI PUSH2 0x1E3F PUSH2 0x3F0B JUMP JUMPDEST PUSH1 0x1 PUSH1 0x1 PUSH1 0xA0 SHL SUB DUP5 AND ISZERO PUSH2 0x84C JUMPI PUSH1 0x0 SLOAD PUSH1 0x1 PUSH1 0x1 PUSH1 0xA0 SHL SUB DUP6 DUP2 AND SWAP2 AND EQ PUSH2 0x223D JUMPI PUSH1 0x1 PUSH1 0x1 PUSH1 0xA0 SHL SUB DUP5 AND PUSH1 0x0 SWAP1 DUP2 MSTORE PUSH1 0xB PUSH1 0x20 MSTORE PUSH1 0x40 SWAP1 KECCAK256 SLOAD PUSH1 0xFF AND PUSH2 0x222B JUMPI PUSH1 0x64 PUSH1 0xF SLOAD LT ISZERO PUSH2 0x2219 JUMPI DUP3 ISZERO DUP1 ISZERO PUSH2 0x220F JUMPI JUMPDEST PUSH2 0x21F JUMPI DUP2 ISZERO DUP1 ISZERO PUSH2 0x2206 JUMPI JUMPDEST PUSH2 0x21F JUMPI PUSH1 0x0 JUMPDEST DUP4 DUP2 LT PUSH2 0x2179 JUMPI POP PUSH1 0x40 MLOAD PUSH2 0x100 DUP2 ADD SWAP1 DUP1 DUP3 LT PUSH1 0x1 PUSH1 0x1 PUSH1 0x40 SHL SUB DUP4 GT OR PUSH2 0xFF9 JUMPI PUSH2 0x202C SWAP2 PUSH1 0x40 MSTORE PUSH1 0x1 DUP1 PUSH1 0xA0 SHL SUB DUP7 AND DUP2 MSTORE PUSH1 0x0 PUSH1 0x20 DUP3 ADD MSTORE PUSH1 0x0 PUSH1 0x40 DUP3 ADD MSTORE PUSH1 0x0 PUSH1 0x60 DUP3 ADD MSTORE PUSH1 0x0 PUSH1 0x80 DUP3 ADD MSTORE PUSH1 0x0 PUSH1 0xA0 DUP3 ADD MSTORE PUSH1 0x1 PUSH1 0xC0 DUP3 ADD MSTORE PUSH1 0xE0 DUP2 ADD PUSH1 0x0 DUP2 MSTORE PUSH1 0x1 DUP1 PUSH1 0xA0 SHL SUB DUP8 AND PUSH1 0x0 MSTORE PUSH1 0xA PUSH1 0x20 MSTORE PUSH2 0x2011 PUSH1 0xC0 PUSH1 0x1 PUSH1 0x40 PUSH1 0x0 KECCAK256 DUP2 DUP1 PUSH1 0xA0 SHL SUB DUP7 MLOAD AND PUSH1 0x1 PUSH1 0x1 PUSH1 0x60 SHL SUB PUSH1 0xA0 SHL DUP3 SLOAD AND OR DUP2 SSTORE PUSH2 0x1F60 PUSH1 0x1 PUSH1 0x1 PUSH1 0x60 SHL SUB PUSH1 0x20 DUP9 ADD MLOAD AND DUP3 PUSH2 0x3E54 JUMP JUMPDEST ADD SWAP4 PUSH1 0x1 PUSH1 0x1 PUSH1 0x40 SHL SUB PUSH1 0x40 DUP3 ADD MLOAD AND PUSH1 0x1 PUSH1 0x1 PUSH1 0x40 SHL SUB NOT DUP7 SLOAD AND OR DUP6 SSTORE PUSH2 0x1FB9 PUSH1 0x1 PUSH1 0x1 PUSH1 0x40 SHL SUB PUSH1 0x60 DUP4 ADD MLOAD AND DUP7 SWAP1 PUSH8 0xFFFFFFFFFFFFFFFF PUSH1 0x40 SHL DUP3 SLOAD SWAP2 PUSH1 0x40 SHL AND SWAP1 PUSH8 0xFFFFFFFFFFFFFFFF PUSH1 0x40 SHL NOT AND OR SWAP1 SSTORE JUMP JUMPDEST PUSH1 0x80 DUP2 DUP2 ADD MLOAD DUP7 SLOAD PUSH4 0xFFFFFFFF PUSH1 0x80 SHL NOT AND SWAP2 SHL PUSH4 0xFFFFFFFF PUSH1 0x80 SHL AND OR DUP6 SSTORE PUSH1 0xA0 DUP2 DUP2 ADD MLOAD DUP7 SLOAD PUSH2 0xFFFF PUSH1 0xA0 SHL NOT AND SWAP2 SHL PUSH2 0xFFFF PUSH1 0xA0 SHL AND OR DUP6 SSTORE ADD MLOAD DUP4 SLOAD PUSH1 0xFF PUSH1 0xB0 SHL NOT AND SWAP1 ISZERO ISZERO PUSH1 0xB0 SHL PUSH1 0xFF PUSH1 0xB0 SHL AND OR DUP4 SSTORE JUMP JUMPDEST MLOAD DUP2 SLOAD PUSH1 0xFF PUSH1 0xB8 SHL NOT AND SWAP1 ISZERO ISZERO PUSH1 0xB8 SHL PUSH1 0xFF PUSH1 0xB8 SHL AND OR SWAP1 SSTORE JUMP JUMPDEST PUSH1 0x0 JUMPDEST DUP4 DUP2 LT PUSH2 0x212D JUMPI POP POP PUSH1 0x1 DUP1 PUSH1 0xA0 SHL SUB DUP4 AND PUSH1 0x0 MSTORE PUSH1 0xC PUSH1 0x20 MSTORE PUSH1 0xFF PUSH1 0x40 PUSH1 0x0 KECCAK256 SWAP3 DUP2 NOT SWAP4 DUP4 DUP6 DUP3 SLOAD AND OR SWAP1 SSTORE AND SWAP3 PUSH1 0xE PUSH1 0x20 MSTORE PUSH1 0x40 PUSH1 0x0 KECCAK256 DUP5 DUP5 DUP3 SLOAD AND OR SWAP1 SSTORE PUSH1 0xF SLOAD SWAP2 PUSH1 0x1 PUSH1 0x40 SHL DUP4 LT ISZERO PUSH2 0xFF9 JUMPI PUSH32 0xA9B8E91191C8434872359997B515F52CBDEC4E3D7105EBB5C7B924EDC773585D SWAP4 PUSH2 0x20B4 DUP5 PUSH1 0x1 PUSH1 0x80 SWAP7 ADD PUSH1 0xF SSTORE PUSH2 0x3B8A JUMP JUMPDEST DUP2 SLOAD PUSH1 0x1 PUSH1 0x1 PUSH1 0xA0 SHL SUB DUP7 DUP2 AND PUSH1 0x3 SWAP4 SWAP1 SWAP4 SHL DUP4 DUP2 SHL SWAP2 SWAP1 SHL NOT SWAP1 SWAP2 AND OR SWAP1 SWAP2 SSTORE PUSH1 0x0 SWAP1 DUP2 MSTORE PUSH1 0xB PUSH1 0x20 MSTORE PUSH1 0x40 SWAP1 KECCAK256 DUP1 SLOAD SWAP2 SWAP1 SWAP2 AND PUSH1 0x1 OR SWAP1 SSTORE PUSH1 0x1A SLOAD PUSH2 0x20FA SWAP1 PUSH2 0x3ACE JUMP JUMPDEST PUSH1 0x1A SSTORE PUSH1 0x40 DUP1 MLOAD PUSH1 0x24 CALLDATALOAD DUP2 MSTORE PUSH1 0x20 DUP2 ADD SWAP7 SWAP1 SWAP7 MSTORE DUP6 ADD MSTORE TIMESTAMP PUSH1 0x1 PUSH1 0x1 PUSH1 0x40 SHL SUB AND PUSH1 0x60 DUP6 ADD MSTORE PUSH1 0x1 PUSH1 0x1 PUSH1 0xA0 SHL SUB AND SWAP3 LOG2 STOP JUMPDEST PUSH1 0x1 PUSH1 0x1 PUSH1 0xA0 SHL SUB DUP6 DUP2 AND PUSH1 0x0 SWAP1 DUP2 MSTORE PUSH1 0xD PUSH1 0x20 MSTORE PUSH1 0x40 SWAP1 KECCAK256 PUSH1 0x1 SWAP3 SWAP2 PUSH2 0x215D PUSH2 0x2158 DUP5 DUP10 DUP9 PUSH2 0x3E77 JUMP JUMPDEST PUSH2 0x3E87 JUMP JUMPDEST AND PUSH1 0x0 MSTORE PUSH1 0x20 MSTORE PUSH1 0x40 PUSH1 0x0 KECCAK256 DUP3 PUSH1 0xFF NOT DUP3 SLOAD AND OR SWAP1 SSTORE ADD PUSH2 0x202F JUMP JUMPDEST PUSH1 0x1 PUSH1 0x1 PUSH1 0xA0 SHL SUB PUSH2 0x218F PUSH2 0x2158 DUP4 DUP8 DUP7 PUSH2 0x3E77 JUMP JUMPDEST AND ISZERO PUSH2 0x84C JUMPI PUSH1 0x1 PUSH1 0x1 PUSH1 0xA0 SHL SUB DUP6 DUP2 AND SWAP1 PUSH2 0x21AF PUSH2 0x2158 DUP5 DUP9 DUP8 PUSH2 0x3E77 JUMP JUMPDEST AND EQ PUSH2 0x1A55 JUMPI PUSH1 0x0 JUMPDEST DUP2 DUP2 LT PUSH2 0x21C8 JUMPI POP PUSH1 0x1 ADD PUSH2 0x1EAB JUMP JUMPDEST PUSH2 0x21D6 PUSH2 0x2158 DUP4 DUP8 DUP7 PUSH2 0x3E77 JUMP JUMPDEST PUSH1 0x1 PUSH1 0x1 PUSH1 0xA0 SHL SUB PUSH2 0x21EC PUSH2 0x2158 DUP5 DUP10 DUP9 PUSH2 0x3E77 JUMP JUMPDEST PUSH1 0x1 PUSH1 0x1 PUSH1 0xA0 SHL SUB SWAP1 SWAP3 AND SWAP2 AND EQ PUSH2 0x1A55 JUMPI PUSH1 0x1 ADD PUSH2 0x21B8 JUMP JUMPDEST POP DUP3 DUP3 GT PUSH2 0x1EA4 JUMP JUMPDEST POP PUSH1 0xA DUP4 GT PUSH2 0x1E97 JUMP JUMPDEST PUSH1 0x40 MLOAD PUSH4 0xDDBB10A9 PUSH1 0xE0 SHL DUP2 MSTORE PUSH1 0x4 SWAP1 REVERT JUMPDEST PUSH1 0x40 MLOAD PUSH4 0xCBA9BD8F PUSH1 0xE0 SHL DUP2 MSTORE PUSH1 0x4 SWAP1 REVERT JUMPDEST PUSH1 0x40 MLOAD PUSH4 0xC8BBA4D9 PUSH1 0xE0 SHL DUP2 MSTORE PUSH1 0x4 SWAP1 REVERT JUMPDEST CALLVALUE PUSH2 0x53D JUMPI PUSH1 0x0 CALLDATASIZE PUSH1 0x3 NOT ADD SLT PUSH2 0x53D JUMPI PUSH1 0x20 PUSH1 0xFF PUSH1 0x1D SLOAD AND PUSH1 0x40 MLOAD SWAP1 DUP2 MSTORE RETURN JUMPDEST CALLVALUE PUSH2 0x53D JUMPI PUSH1 0x0 CALLDATASIZE PUSH1 0x3 NOT ADD SLT PUSH2 0x53D JUMPI PUSH2 0x2289 PUSH2 0x3F0B JUMP JUMPDEST PUSH2 0x2291 PUSH2 0x3FB7 JUMP JUMPDEST PUSH1 0x1 PUSH1 0xFF NOT PUSH1 0x3 SLOAD AND OR PUSH1 0x3 SSTORE PUSH32 0x62E78CEA01BEE320CD4E420270B5EA74000D11B0C9F74754EBDBFC544B05A258 PUSH1 0x20 PUSH1 0x40 MLOAD CALLER DUP2 MSTORE LOG1 STOP JUMPDEST CALLVALUE PUSH2 0x53D JUMPI PUSH1 0x20 CALLDATASIZE PUSH1 0x3 NOT ADD SLT PUSH2 0x53D JUMPI PUSH1 0x20 PUSH2 0x22E8 PUSH1 0x4 CALLDATALOAD PUSH2 0x3DE5 JUMP JUMPDEST PUSH1 0x40 MLOAD SWAP1 ISZERO ISZERO DUP2 MSTORE RETURN JUMPDEST PUSH1 0x40 CALLDATASIZE PUSH1 0x3 NOT ADD SLT PUSH2 0x53D JUMPI PUSH2 0x2306 PUSH2 0x3969 JUMP JUMPDEST PUSH2 0x230E PUSH2 0x3F63 JUMP JUMPDEST PUSH2 0x2316 PUSH2 0x3FB7 JUMP JUMPDEST PUSH1 0x1 DUP1 PUSH1 0xA0 SHL SUB DUP1 SWAP2 AND SWAP1 DUP2 PUSH1 0x0 MSTORE PUSH1 0x20 SWAP1 PUSH1 0xB DUP3 MSTORE PUSH1 0xFF PUSH1 0x40 PUSH1 0x0 KECCAK256 SLOAD AND ISZERO PUSH2 0xC98 JUMPI DUP3 PUSH1 0x0 MSTORE PUSH1 0xA DUP3 MSTORE PUSH1 0xFF PUSH1 0x1 PUSH1 0x40 PUSH1 0x0 KECCAK256 ADD SLOAD PUSH1 0xB0 SHR AND ISZERO PUSH2 0xC86 JUMPI PUSH8 0xDE0B6B3A7640000 CALLVALUE LT PUSH2 0x20D JUMPI PUSH2 0x236E CALLVALUE PUSH2 0x44CF JUMP JUMPDEST SWAP1 PUSH1 0x18 SLOAD SWAP3 PUSH2 0x237C DUP5 PUSH2 0x3ACE JUMP JUMPDEST PUSH1 0x18 SSTORE PUSH1 0x1 PUSH1 0x1 PUSH1 0x60 SHL SUB DUP1 SWAP4 AND SWAP5 PUSH1 0x1 PUSH1 0x1 PUSH1 0x40 SHL SUB DUP6 DUP6 DUP3 TIMESTAMP AND SWAP5 PUSH1 0x40 MLOAD SWAP4 PUSH2 0x23A6 DUP6 PUSH2 0x3AEA JUMP JUMPDEST CALLER DUP6 MSTORE DUP6 DUP6 ADD SWAP5 DUP13 DUP7 MSTORE PUSH1 0x40 DUP2 ADD PUSH1 0x0 DUP2 MSTORE DUP5 DUP14 PUSH1 0x60 DUP5 ADD SWAP1 DUP2 MSTORE PUSH1 0x80 DUP5 ADD SWAP9 DUP12 DUP11 MSTORE PUSH1 0xA0 DUP6 ADD SWAP7 PUSH1 0x0 DUP9 MSTORE PUSH1 0xC0 DUP7 ADD SWAP10 PUSH1 0x0 DUP12 MSTORE PUSH1 0x0 MSTORE PUSH1 0x16 DUP13 MSTORE DUP1 PUSH1 0x40 PUSH1 0x0 KECCAK256 SWAP7 MLOAD AND SWAP2 PUSH1 0x1 PUSH1 0x1 PUSH1 0x60 SHL SUB PUSH1 0xA0 SHL SWAP3 DUP4 DUP9 SLOAD AND OR DUP8 SSTORE DUP2 PUSH1 0x1 DUP9 ADD SWAP2 MLOAD AND DUP4 DUP3 SLOAD AND OR SWAP1 SSTORE PUSH1 0x2 DUP7 ADD SWAP5 MLOAD AND SWAP1 DUP5 SLOAD AND OR DUP4 SSTORE MLOAD AND PUSH2 0x2427 SWAP2 PUSH2 0x3E54 JUMP JUMPDEST PUSH1 0x3 ADD SWAP5 MLOAD AND PUSH1 0x1 PUSH1 0x1 PUSH1 0x40 SHL SUB NOT DUP6 SLOAD AND OR DUP5 SSTORE MLOAD AND PUSH2 0x2448 SWAP1 DUP4 PUSH2 0x3EC6 JUMP JUMPDEST MLOAD DUP2 SLOAD PUSH1 0xFF PUSH1 0xA0 SHL NOT AND SWAP1 ISZERO ISZERO PUSH1 0xA0 SHL PUSH1 0xFF PUSH1 0xA0 SHL AND OR SWAP1 SSTORE PUSH1 0x0 DUP8 DUP2 MSTORE PUSH1 0x4 DUP3 MSTORE PUSH1 0x40 DUP1 DUP3 KECCAK256 DUP3 DUP1 MSTORE SWAP1 SWAP3 MSTORE KECCAK256 DUP1 SLOAD DUP5 PUSH2 0x2485 DUP9 DUP3 DUP5 AND PUSH2 0x3DCA JUMP JUMPDEST AND SWAP1 PUSH1 0x1 PUSH1 0x1 PUSH1 0x60 SHL SUB NOT AND OR SWAP1 SSTORE CALLER PUSH2 0x249E SWAP1 PUSH2 0x4525 JUMP JUMPDEST PUSH1 0x0 DUP1 MLOAD PUSH1 0x20 PUSH2 0x4768 DUP4 CODECOPY DUP2 MLOAD SWAP2 MSTORE SWAP3 PUSH2 0xF80 SWAP3 DUP1 PUSH2 0x24F3 JUMPI JUMPDEST POP POP PUSH1 0x40 DUP1 MLOAD PUSH1 0x0 DUP2 MSTORE PUSH1 0x1 PUSH1 0x1 PUSH1 0x60 SHL SUB SWAP1 SWAP7 AND PUSH1 0x20 DUP8 ADD MSTORE PUSH1 0x24 CALLDATALOAD SWAP1 DUP7 ADD MSTORE PUSH1 0x1 PUSH1 0x1 PUSH1 0x40 SHL SUB AND PUSH1 0x60 DUP6 ADD MSTORE CALLER SWAP4 SWAP1 DUP2 SWAP1 PUSH1 0x80 DUP3 ADD SWAP1 JUMP JUMPDEST PUSH1 0x0 SWAP2 DUP2 PUSH2 0x2512 PUSH1 0x0 DUP1 MLOAD PUSH1 0x20 PUSH2 0x4748 DUP4 CODECOPY DUP2 MLOAD SWAP2 MSTORE SWAP4 PUSH1 0x5 SLOAD PUSH2 0x3A2D JUMP JUMPDEST PUSH1 0x5 SSTORE PUSH2 0x2526 DUP6 PUSH1 0x40 MLOAD SWAP4 DUP5 SWAP4 AND DUP4 PUSH2 0x3AAB JUMP JUMPDEST SUB SWAP1 LOG2 DUP7 DUP1 PUSH2 0x24B8 JUMP JUMPDEST CALLVALUE PUSH2 0x53D JUMPI PUSH1 0x20 DUP1 PUSH1 0x3 NOT CALLDATASIZE ADD SLT PUSH2 0x53D JUMPI PUSH1 0x4 CALLDATALOAD SWAP1 PUSH2 0x254E PUSH2 0x3F63 JUMP JUMPDEST PUSH2 0x2556 PUSH2 0x3FB7 JUMP JUMPDEST PUSH1 0x0 DUP3 DUP2 MSTORE PUSH1 0x10 DUP3 MSTORE PUSH1 0x40 SWAP1 KECCAK256 SLOAD PUSH1 0x1 PUSH1 0x1 PUSH1 0xA0 SHL SUB SWAP1 DUP2 AND ISZERO PUSH2 0x1B69 JUMPI DUP3 PUSH1 0x0 MSTORE PUSH1 0x10 DUP3 MSTORE PUSH1 0x40 PUSH1 0x0 KECCAK256 SWAP1 PUSH1 0x2 DUP3 ADD SWAP1 DUP2 SLOAD SWAP3 PUSH1 0xFF SWAP4 DUP5 DUP2 PUSH1 0x40 SHR AND PUSH2 0x1B57 JUMPI PUSH1 0x48 SHR DUP5 AND PUSH2 0x1B45 JUMPI SLOAD AND PUSH1 0x0 MSTORE PUSH1 0xD DUP4 MSTORE PUSH1 0x40 PUSH1 0x0 KECCAK256 CALLER PUSH1 0x0 MSTORE DUP4 MSTORE DUP2 PUSH1 0x40 PUSH1 0x0 KECCAK256 SLOAD AND ISZERO PUSH2 0x1A43 JUMPI DUP4 PUSH1 0x0 MSTORE PUSH1 0x11 DUP4 MSTORE PUSH1 0x40 PUSH1 0x0 KECCAK256 CALLER PUSH1 0x0 MSTORE DUP4 MSTORE DUP2 PUSH1 0x40 PUSH1 0x0 KECCAK256 SLOAD AND PUSH2 0x19CB JUMPI DUP4 PUSH1 0x0 MSTORE PUSH1 0x11 DUP4 MSTORE PUSH1 0x40 PUSH1 0x0 KECCAK256 CALLER PUSH1 0x0 MSTORE DUP4 MSTORE PUSH1 0x40 PUSH1 0x0 KECCAK256 PUSH1 0x1 PUSH1 0xFF NOT DUP3 SLOAD AND OR SWAP1 SSTORE DUP2 DUP2 SLOAD PUSH1 0x58 SHR AND DUP3 DUP2 EQ PUSH2 0xC2A JUMPI DUP2 SLOAD PUSH1 0xFF PUSH1 0x58 SHL NOT AND PUSH1 0x1 SWAP2 SWAP1 SWAP2 ADD PUSH1 0x58 SHL PUSH1 0xFF PUSH1 0x58 SHL AND OR DUP2 SSTORE SLOAD DUP2 DUP2 PUSH1 0x58 SHR AND SWAP3 PUSH1 0x40 MLOAD SWAP1 DUP5 DUP3 MSTORE PUSH1 0x1 PUSH1 0x1 PUSH1 0x40 SHL SUB TIMESTAMP AND SWAP1 DUP3 ADD MSTORE DUP5 PUSH32 0xE7483D50C87DFA51B091F048D165A7C7E3EBDFE5C8EEAC87644E5EDA035285D2 PUSH1 0x40 CALLER SWAP4 LOG3 PUSH1 0x50 SHR AND GT ISZERO PUSH2 0x2682 JUMPI JUMPDEST PUSH1 0x1 PUSH1 0x2 SSTORE STOP JUMPDEST PUSH2 0x268B SWAP1 PUSH2 0x3FFB JUMP JUMPDEST DUP1 PUSH2 0x267B JUMP JUMPDEST CALLVALUE PUSH2 0x53D JUMPI PUSH1 0x0 CALLDATASIZE PUSH1 0x3 NOT ADD SLT PUSH2 0x53D JUMPI PUSH1 0x1 SLOAD PUSH1 0x1 PUSH1 0x1 PUSH1 0xA0 SHL SUB CALLER DUP2 DUP4 AND SUB PUSH2 0x26FD JUMPI PUSH1 0x1 PUSH1 0x1 PUSH1 0x60 SHL SUB PUSH1 0xA0 SHL DUP1 SWAP3 AND PUSH1 0x1 SSTORE PUSH1 0x0 SLOAD SWAP2 CALLER SWAP1 DUP4 AND OR PUSH1 0x0 SSTORE CALLER SWAP2 AND PUSH32 0x8BE0079C531659141344CD1FD0A4F28419497F9722A3DAAFE3B4186F6B6457E0 PUSH1 0x0 DUP1 LOG3 STOP JUMPDEST PUSH1 0x40 MLOAD PUSH3 0x461BCD PUSH1 0xE5 SHL DUP2 MSTORE PUSH1 0x20 PUSH1 0x4 DUP3 ADD MSTORE PUSH1 0x29 PUSH1 0x24 DUP3 ADD MSTORE PUSH32 0x4F776E61626C6532537465703A2063616C6C6572206973206E6F742074686520 PUSH1 0x44 DUP3 ADD MSTORE PUSH9 0x3732BB9037BBB732B9 PUSH1 0xB9 SHL PUSH1 0x64 DUP3 ADD MSTORE PUSH1 0x84 SWAP1 REVERT JUMPDEST CALLVALUE PUSH2 0x53D JUMPI PUSH1 0x20 CALLDATASIZE PUSH1 0x3 NOT ADD SLT PUSH2 0x53D JUMPI PUSH1 0x1 PUSH1 0x1 PUSH1 0xA0 SHL SUB PUSH2 0x2775 PUSH2 0x3969 JUMP JUMPDEST AND PUSH1 0x0 MSTORE PUSH1 0xB PUSH1 0x20 MSTORE PUSH1 0x20 PUSH1 0xFF PUSH1 0x40 PUSH1 0x0 KECCAK256 SLOAD AND PUSH1 0x40 MLOAD SWAP1 ISZERO ISZERO DUP2 MSTORE RETURN JUMPDEST CALLVALUE PUSH2 0x53D JUMPI PUSH1 0x40 CALLDATASIZE PUSH1 0x3 NOT ADD SLT PUSH2 0x53D JUMPI PUSH2 0x27AC PUSH2 0x397F JUMP JUMPDEST PUSH1 0x4 CALLDATALOAD PUSH1 0x0 MSTORE PUSH1 0x11 PUSH1 0x20 MSTORE PUSH1 0x40 PUSH1 0x0 KECCAK256 SWAP1 PUSH1 0x1 DUP1 PUSH1 0xA0 SHL SUB AND PUSH1 0x0 MSTORE PUSH1 0x20 MSTORE PUSH1 0x20 PUSH1 0xFF PUSH1 0x40 PUSH1 0x0 KECCAK256 SLOAD AND PUSH1 0x40 MLOAD SWAP1 ISZERO ISZERO DUP2 MSTORE RETURN JUMPDEST CALLVALUE PUSH2 0x53D JUMPI PUSH1 0x20 CALLDATASIZE PUSH1 0x3 NOT ADD SLT PUSH2 0x53D JUMPI PUSH1 0x4 CALLDATALOAD PUSH2 0x27FC PUSH2 0x3F63 JUMP JUMPDEST PUSH1 0x0 DUP2 DUP2 MSTORE PUSH1 0x10 PUSH1 0x20 MSTORE PUSH1 0x40 SWAP1 KECCAK256 SLOAD PUSH1 0x1 PUSH1 0x1 PUSH1 0xA0 SHL SUB SWAP2 SWAP1 DUP3 AND ISZERO PUSH2 0x1B69 JUMPI DUP1 PUSH1 0x0 MSTORE PUSH1 0x10 PUSH1 0x20 MSTORE PUSH1 0x40 PUSH1 0x0 KECCAK256 SWAP2 PUSH1 0x2 DUP4 ADD SWAP1 DUP2 SLOAD SWAP1 PUSH1 0xFF DUP3 PUSH1 0x40 SHR AND PUSH2 0x1B57 JUMPI PUSH1 0xFF DUP3 PUSH1 0x48 SHR AND PUSH2 0x1B45 JUMPI PUSH1 0x1 PUSH1 0x1 PUSH1 0x40 SHL SUB SWAP5 DUP6 DUP4 AND PUSH3 0x278D00 DUP2 ADD DUP1 SWAP2 GT PUSH2 0xC2A JUMPI TIMESTAMP LT PUSH2 0x28B9 JUMPI PUSH2 0x2884 SWAP4 PUSH1 0x1 PUSH1 0x48 SHL DUP7 SWAP5 PUSH1 0xFF PUSH1 0x48 SHL NOT AND OR SWAP1 SSTORE SLOAD AND PUSH2 0x4397 JUMP JUMPDEST PUSH1 0x40 MLOAD SWAP2 TIMESTAMP AND DUP3 MSTORE PUSH32 0x6E75EE7D2473398EC8CDB807F19296BF61C62AC036F4591ECD73DAA4CE3AC353 PUSH1 0x20 CALLER SWAP4 LOG3 PUSH1 0x1 PUSH1 0x2 SSTORE STOP JUMPDEST PUSH1 0x40 MLOAD PUSH4 0x6C804B5D PUSH1 0xE0 SHL DUP2 MSTORE PUSH1 0x4 SWAP1 REVERT JUMPDEST CALLVALUE PUSH2 0x53D JUMPI PUSH1 0x0 CALLDATASIZE PUSH1 0x3 NOT ADD SLT PUSH2 0x53D JUMPI PUSH2 0x28E4 PUSH2 0x3F0B JUMP JUMPDEST PUSH1 0x1 DUP1 SLOAD PUSH1 0x1 PUSH1 0x1 PUSH1 0xA0 SHL SUB NOT SWAP1 DUP2 AND SWAP1 SWAP2 SSTORE PUSH1 0x0 DUP1 SLOAD SWAP2 DUP3 AND DUP2 SSTORE SWAP1 PUSH1 0x1 PUSH1 0x1 PUSH1 0xA0 SHL SUB AND PUSH32 0x8BE0079C531659141344CD1FD0A4F28419497F9722A3DAAFE3B4186F6B6457E0 DUP3 DUP1 LOG3 STOP JUMPDEST CALLVALUE PUSH2 0x53D JUMPI PUSH1 0x20 DUP1 PUSH1 0x3 NOT CALLDATASIZE ADD SLT PUSH2 0x53D JUMPI PUSH1 0x4 CALLDATALOAD PUSH2 0x294D PUSH2 0x3F0B JUMP JUMPDEST PUSH2 0x2955 PUSH2 0x3F63 JUMP JUMPDEST PUSH1 0xFF PUSH1 0x1D SLOAD PUSH1 0xA8 SHR AND ISZERO PUSH2 0x2A9F JUMPI PUSH1 0x0 DUP2 DUP2 MSTORE PUSH1 0x16 DUP4 MSTORE PUSH1 0x40 SWAP1 KECCAK256 DUP1 SLOAD PUSH1 0x1 PUSH1 0x1 PUSH1 0xA0 SHL SUB SWAP1 DUP2 AND SWAP4 SWAP2 SWAP1 DUP5 ISZERO PUSH2 0x182C JUMPI PUSH1 0x3 DUP3 ADD SLOAD SWAP3 PUSH1 0xFF DUP5 PUSH1 0xA0 SHR AND PUSH2 0x181A JUMPI PUSH1 0x1 PUSH1 0x1 PUSH1 0x60 SHL SUB DUP1 SWAP5 PUSH1 0x40 SHR AND SWAP3 PUSH1 0x2 DUP2 ADD SLOAD SWAP4 DUP5 PUSH1 0xA0 SHR SWAP1 DUP2 DUP2 GT PUSH2 0x21F JUMPI PUSH2 0x29C1 SWAP2 PUSH2 0x3A92 JUMP JUMPDEST SWAP3 DUP6 DUP5 AND SWAP2 DUP3 ISZERO PUSH2 0x21F JUMPI PUSH1 0x1 DUP3 SWAP2 ADD SLOAD AND SWAP5 AND SWAP5 DUP5 PUSH1 0x0 MSTORE PUSH1 0x4 DUP4 MSTORE PUSH1 0x40 PUSH1 0x0 KECCAK256 DUP7 PUSH1 0x0 MSTORE DUP4 MSTORE DUP2 DUP2 PUSH1 0x40 PUSH1 0x0 KECCAK256 SLOAD AND LT PUSH2 0xC74 JUMPI PUSH32 0xA69D6D71401E15A16C6607A07C3A9DD3C006D892F73D34C2B45D1AFAEE6500AA SWAP6 PUSH1 0x16 PUSH2 0x2A7E SWAP5 DUP11 SWAP4 PUSH2 0x2A95 SWAP9 PUSH1 0x0 MSTORE PUSH1 0x4 DUP3 MSTORE PUSH1 0x40 PUSH1 0x0 KECCAK256 DUP5 PUSH1 0x0 MSTORE DUP3 MSTORE PUSH1 0x40 PUSH1 0x0 KECCAK256 SWAP1 DUP2 SLOAD SWAP1 PUSH2 0x2A4C DUP11 DUP3 DUP5 AND PUSH2 0x3A92 JUMP JUMPDEST AND SWAP1 PUSH1 0x1 PUSH1 0x1 PUSH1 0x60 SHL SUB NOT AND OR SWAP1 SSTORE DUP10 PUSH1 0x0 MSTORE MSTORE PUSH1 0x0 PUSH1 0x3 PUSH1 0x40 DUP3 KECCAK256 DUP3 DUP2 SSTORE DUP3 PUSH1 0x1 DUP3 ADD SSTORE DUP3 PUSH1 0x2 DUP3 ADD SSTORE ADD SSTORE PUSH2 0x4322 JUMP JUMPDEST PUSH1 0x40 MLOAD SWAP2 DUP3 SWAP2 PUSH1 0x1 PUSH1 0x1 PUSH1 0x40 SHL SUB TIMESTAMP AND SWAP1 DUP4 PUSH2 0x3AAB JUMP JUMPDEST SUB SWAP1 LOG3 PUSH1 0x1 PUSH1 0x2 SSTORE STOP JUMPDEST PUSH1 0x40 MLOAD PUSH4 0x197B2611 PUSH1 0xE2 SHL DUP2 MSTORE PUSH1 0x4 SWAP1 REVERT JUMPDEST CALLVALUE PUSH2 0x53D JUMPI PUSH1 0x0 CALLDATASIZE PUSH1 0x3 NOT ADD SLT PUSH2 0x53D JUMPI PUSH1 0x20 PUSH1 0x5 SLOAD PUSH1 0x40 MLOAD SWAP1 DUP2 MSTORE RETURN JUMPDEST CALLVALUE PUSH2 0x53D JUMPI PUSH1 0x60 CALLDATASIZE PUSH1 0x3 NOT ADD SLT PUSH2 0x53D JUMPI PUSH2 0x2AE8 PUSH2 0x3969 JUMP JUMPDEST PUSH2 0x2AF0 PUSH2 0x397F JUMP JUMPDEST SWAP1 PUSH2 0x2AF9 PUSH2 0x39A4 JUMP JUMPDEST PUSH2 0x2B01 PUSH2 0x3F0B JUMP JUMPDEST PUSH2 0x2B09 PUSH2 0x3F63 JUMP JUMPDEST PUSH1 0x1 DUP1 PUSH1 0xA0 SHL SUB DUP1 SWAP3 AND SWAP2 DUP3 PUSH1 0x0 MSTORE PUSH1 0x20 SWAP2 PUSH1 0xB DUP4 MSTORE PUSH1 0xFF PUSH1 0x40 PUSH1 0x0 KECCAK256 SLOAD AND ISZERO PUSH2 0xC98 JUMPI PUSH1 0x1 PUSH1 0x1 PUSH1 0x60 SHL SUB SWAP2 DUP3 DUP3 AND SWAP1 DUP2 ISZERO PUSH2 0x21F JUMPI PUSH1 0x0 DUP1 MSTORE PUSH1 0x4 DUP6 MSTORE PUSH1 0x40 PUSH1 0x0 KECCAK256 SWAP7 AND SWAP6 DUP7 PUSH1 0x0 MSTORE DUP5 MSTORE DUP3 PUSH1 0x40 PUSH1 0x0 KECCAK256 SLOAD AND LT PUSH2 0xC74 JUMPI PUSH32 0x8C980E86D8F0BB1D7D85D38E49F6F6C490FB9E067A8946934441953FD90A747F SWAP3 PUSH2 0x2A95 SWAP3 PUSH1 0x0 DUP1 MSTORE PUSH1 0x4 DUP3 MSTORE PUSH1 0x40 PUSH1 0x0 KECCAK256 DUP8 PUSH1 0x0 MSTORE DUP3 MSTORE PUSH1 0x40 PUSH1 0x0 KECCAK256 SWAP2 DUP3 SLOAD SWAP3 DUP3 PUSH2 0x2BB2 DUP7 DUP3 DUP8 AND PUSH2 0x3A92 JUMP JUMPDEST AND PUSH1 0x1 PUSH1 0x1 PUSH1 0x60 SHL SUB NOT DUP1 SWAP6 AND OR SWAP1 SSTORE DUP7 PUSH1 0x0 MSTORE PUSH1 0x4 DUP2 MSTORE PUSH1 0x40 PUSH1 0x0 KECCAK256 SWAP1 DUP9 PUSH1 0x0 MSTORE MSTORE PUSH1 0x40 PUSH1 0x0 KECCAK256 SWAP2 DUP3 SLOAD SWAP2 PUSH2 0x2BEA DUP6 DUP3 DUP6 AND PUSH2 0x3DCA JUMP JUMPDEST AND SWAP2 AND OR SWAP1 SSTORE PUSH1 0x40 MLOAD SWAP2 DUP3 SWAP2 PUSH1 0x1 PUSH1 0x1 PUSH1 0x40 SHL SUB TIMESTAMP AND SWAP1 DUP4 PUSH2 0x3AAB JUMP JUMPDEST PUSH1 0x20 CALLDATASIZE PUSH1 0x3 NOT ADD SLT PUSH2 0x53D JUMPI PUSH2 0x2C1B PUSH2 0x3F63 JUMP JUMPDEST PUSH2 0x2C23 PUSH2 0x3FB7 JUMP JUMPDEST PUSH8 0xDE0B6B3A7640000 CALLVALUE LT PUSH2 0x20D JUMPI PUSH1 0x0 PUSH2 0x2C3D CALLVALUE PUSH2 0x44CF JUMP JUMPDEST SWAP1 PUSH1 0x0 DUP1 MLOAD PUSH1 0x20 PUSH2 0x4768 DUP4 CODECOPY DUP2 MLOAD SWAP2 MSTORE PUSH2 0xF80 PUSH1 0x18 SLOAD SWAP3 PUSH2 0x2C5D DUP5 PUSH2 0x3ACE JUMP JUMPDEST PUSH1 0x18 SSTORE PUSH1 0x1 PUSH1 0x1 PUSH1 0x60 SHL SUB DUP1 SWAP6 AND SWAP5 DUP6 SWAP2 PUSH2 0x2D1E PUSH1 0x1 PUSH1 0x1 PUSH1 0x40 SHL SUB DUP8 PUSH2 0x140 DUP6 DUP4 TIMESTAMP AND SWAP8 DUP9 SWAP5 PUSH1 0x3 PUSH1 0x40 MLOAD PUSH2 0x2C92 DUP2 PUSH2 0x3AEA JUMP JUMPDEST CALLER DUP2 MSTORE PUSH2 0x125 PUSH1 0x20 DUP3 ADD SWAP5 PUSH1 0x0 DUP7 MSTORE DUP7 PUSH1 0x40 DUP5 ADD SWAP2 PUSH1 0x0 DUP4 MSTORE PUSH1 0x60 DUP6 ADD SWAP1 DUP2 MSTORE PUSH1 0x80 DUP6 ADD SWAP12 DUP13 MSTORE PUSH1 0xA0 DUP6 ADD SWAP8 PUSH1 0x0 DUP10 MSTORE PUSH1 0xC0 DUP7 ADD SWAP12 PUSH1 0x0 DUP14 MSTORE PUSH1 0x0 MSTORE PUSH1 0x16 PUSH1 0x20 MSTORE PUSH1 0x0 PUSH1 0x40 SWAP1 KECCAK256 SWAP6 PUSH1 0x1 DUP1 PUSH1 0xA0 SHL SUB DUP1 SWAP2 MLOAD AND SWAP2 PUSH1 0x1 PUSH1 0x1 PUSH1 0x60 SHL SUB PUSH1 0xA0 SHL SWAP3 DUP4 DUP10 SLOAD AND OR DUP9 SSTORE DUP2 PUSH1 0x1 DUP10 ADD SWAP2 MLOAD AND DUP4 DUP3 SLOAD AND OR SWAP1 SSTORE PUSH1 0x2 DUP8 ADD SWAP5 MLOAD AND SWAP1 DUP5 SLOAD AND OR DUP4 SSTORE MLOAD AND SWAP1 PUSH2 0x3E54 JUMP JUMPDEST DUP8 DUP1 MSTORE PUSH1 0x4 PUSH1 0x20 MSTORE PUSH1 0x40 DUP9 KECCAK256 PUSH1 0x20 MSTORE PUSH1 0x40 DUP9 KECCAK256 DUP1 SLOAD DUP4 PUSH2 0x2D40 DUP11 DUP3 DUP5 AND PUSH2 0x3DCA JUMP JUMPDEST AND SWAP1 PUSH1 0x1 PUSH1 0x1 PUSH1 0x60 SHL SUB NOT AND OR SWAP1 SSTORE PUSH2 0x2D58 CALLER PUSH2 0x4525 JUMP JUMPDEST DUP1 PUSH2 0x2D99 JUMPI JUMPDEST POP POP PUSH1 0x40 DUP1 MLOAD PUSH1 0x0 DUP2 MSTORE PUSH1 0x1 PUSH1 0x1 PUSH1 0x60 SHL SUB SWAP1 SWAP7 AND PUSH1 0x20 DUP8 ADD MSTORE PUSH1 0x4 CALLDATALOAD SWAP1 DUP7 ADD MSTORE PUSH1 0x1 PUSH1 0x1 PUSH1 0x40 SHL SUB AND PUSH1 0x60 DUP6 ADD MSTORE CALLER SWAP4 SWAP1 DUP2 SWAP1 PUSH1 0x80 DUP3 ADD SWAP1 JUMP JUMPDEST DUP8 SWAP2 DUP2 PUSH2 0x2DB7 PUSH1 0x0 DUP1 MLOAD PUSH1 0x20 PUSH2 0x4748 DUP4 CODECOPY DUP2 MLOAD SWAP2 MSTORE SWAP4 PUSH1 0x5 SLOAD PUSH2 0x3A2D JUMP JUMPDEST PUSH1 0x5 SSTORE PUSH2 0x2DCB DUP6 PUSH1 0x40 MLOAD SWAP4 DUP5 SWAP4 AND DUP4 PUSH2 0x3AAB JUMP JUMPDEST SUB SWAP1 LOG2 DUP7 DUP1 PUSH2 0x2D5E JUMP JUMPDEST CALLVALUE PUSH2 0x53D JUMPI PUSH1 0x40 CALLDATASIZE PUSH1 0x3 NOT ADD SLT PUSH2 0x53D JUMPI PUSH2 0x2DEE PUSH2 0x3969 JUMP JUMPDEST PUSH2 0x2DF6 PUSH2 0x397F JUMP JUMPDEST SWAP1 PUSH1 0x1 DUP1 PUSH1 0xA0 SHL SUB DUP1 SWAP2 AND PUSH1 0x0 MSTORE PUSH1 0x4 PUSH1 0x20 MSTORE PUSH1 0x40 PUSH1 0x0 KECCAK256 SWAP2 AND PUSH1 0x0 MSTORE PUSH1 0x20 MSTORE PUSH1 0x20 PUSH1 0x1 PUSH1 0x1 PUSH1 0x60 SHL SUB PUSH1 0x40 PUSH1 0x0 KECCAK256 SLOAD AND PUSH1 0x40 MLOAD SWAP1 DUP2 MSTORE RETURN JUMPDEST CALLVALUE PUSH2 0x53D JUMPI PUSH1 0x40 CALLDATASIZE PUSH1 0x3 NOT ADD SLT PUSH2 0x53D JUMPI PUSH1 0x4 CALLDATALOAD PUSH1 0x24 CALLDATALOAD PUSH1 0x1 PUSH1 0x1 PUSH1 0x40 SHL SUB DUP2 GT PUSH2 0x53D JUMPI PUSH2 0x2E62 SWAP1 CALLDATASIZE SWAP1 PUSH1 0x4 ADD PUSH2 0x39D0 JUMP JUMPDEST PUSH1 0x0 DUP4 DUP2 MSTORE PUSH1 0x10 PUSH1 0x20 MSTORE PUSH1 0x40 SWAP1 KECCAK256 SLOAD SWAP2 SWAP3 SWAP1 SWAP2 PUSH1 0x1 PUSH1 0x1 PUSH1 0xA0 SHL SUB AND ISZERO PUSH2 0x1B69 JUMPI PUSH1 0x20 SWAP3 PUSH2 0x2EA2 SWAP2 PUSH1 0x0 MSTORE PUSH1 0x10 DUP5 MSTORE PUSH1 0x3 PUSH1 0x40 PUSH1 0x0 KECCAK256 ADD SLOAD SWAP3 CALLDATASIZE SWAP2 PUSH2 0x3D93 JUMP JUMPDEST DUP3 DUP2 MLOAD SWAP2 ADD KECCAK256 EQ PUSH1 0x40 MLOAD SWAP1 DUP2 MSTORE RETURN JUMPDEST CALLVALUE PUSH2 0x53D JUMPI PUSH1 0x0 CALLDATASIZE PUSH1 0x3 NOT ADD SLT PUSH2 0x53D JUMPI PUSH1 0x20 PUSH1 0xFF PUSH1 0x3 SLOAD AND PUSH1 0x40 MLOAD SWAP1 ISZERO ISZERO DUP2 MSTORE RETURN JUMPDEST CALLVALUE PUSH2 0x53D JUMPI PUSH1 0x20 CALLDATASIZE PUSH1 0x3 NOT ADD SLT PUSH2 0x53D JUMPI PUSH1 0x4 CALLDATALOAD PUSH1 0xFF DUP2 AND DUP1 DUP3 SUB PUSH2 0x53D JUMPI PUSH2 0x2EFB PUSH2 0x3F0B JUMP JUMPDEST PUSH1 0x5 DUP2 GT PUSH2 0x21F JUMPI PUSH1 0x1D DUP1 SLOAD PUSH1 0xFF NOT DUP2 AND SWAP3 SWAP1 SWAP3 OR SWAP1 SSTORE PUSH1 0x40 DUP1 MLOAD PUSH1 0xFF SWAP3 DUP4 AND DUP2 MSTORE SWAP3 SWAP1 SWAP2 AND PUSH1 0x20 DUP4 ADD MSTORE TIMESTAMP PUSH1 0x1 PUSH1 0x1 PUSH1 0x40 SHL SUB AND SWAP1 DUP3 ADD MSTORE PUSH32 0x7D3E8689AA9657701D50CB0E74C36F94D11C88560D072217267D4EE7B4CE4AD3 SWAP1 PUSH1 0x60 SWAP1 LOG1 STOP JUMPDEST CALLVALUE PUSH2 0x53D JUMPI PUSH1 0x60 CALLDATASIZE PUSH1 0x3 NOT ADD SLT PUSH2 0x53D JUMPI PUSH2 0x2F85 PUSH2 0x2F78 PUSH2 0x3969 JUMP JUMPDEST PUSH1 0x44 CALLDATALOAD SWAP1 PUSH1 0x24 CALLDATALOAD SWAP1 PUSH2 0x3CE5 JUMP JUMPDEST PUSH1 0x40 MLOAD DUP1 SWAP2 PUSH1 0x20 DUP1 DUP4 ADD PUSH1 0x20 DUP5 MSTORE DUP3 MLOAD DUP1 SWAP2 MSTORE PUSH1 0x20 PUSH1 0x40 DUP6 ADD SWAP4 ADD SWAP2 PUSH1 0x0 JUMPDEST DUP3 DUP2 LT PUSH2 0x2FB3 JUMPI POP POP POP POP SUB SWAP1 RETURN JUMPDEST DUP4 MLOAD DUP6 MSTORE DUP7 SWAP6 POP SWAP4 DUP2 ADD SWAP4 SWAP3 DUP2 ADD SWAP3 PUSH1 0x1 ADD PUSH2 0x2FA4 JUMP JUMPDEST CALLVALUE PUSH2 0x53D JUMPI PUSH1 0x20 CALLDATASIZE PUSH1 0x3 NOT ADD SLT PUSH2 0x53D JUMPI PUSH1 0x20 PUSH2 0x2FED PUSH2 0x2FE8 PUSH2 0x3969 JUMP JUMPDEST PUSH2 0x3CA0 JUMP JUMPDEST PUSH1 0x40 MLOAD SWAP1 DUP2 MSTORE RETURN JUMPDEST CALLVALUE PUSH2 0x53D JUMPI PUSH1 0x20 CALLDATASIZE PUSH1 0x3 NOT ADD SLT PUSH2 0x53D JUMPI PUSH2 0x100 PUSH1 0x1 PUSH1 0x1 PUSH1 0xA0 SHL SUB DUP1 PUSH2 0x301A PUSH2 0x3969 JUMP JUMPDEST AND PUSH1 0x0 MSTORE PUSH1 0xA PUSH1 0x20 MSTORE PUSH1 0xFF PUSH1 0x40 PUSH1 0x0 KECCAK256 PUSH1 0x1 DUP2 SLOAD SWAP2 ADD SLOAD SWAP1 PUSH1 0x1 PUSH1 0x1 PUSH1 0x40 SHL SUB SWAP1 PUSH1 0x40 MLOAD SWAP5 DUP2 AND DUP6 MSTORE PUSH1 0xA0 SHR PUSH1 0x20 DUP6 ADD MSTORE DUP1 DUP3 AND PUSH1 0x40 DUP6 ADD MSTORE DUP2 PUSH1 0x40 SHR AND PUSH1 0x60 DUP5 ADD MSTORE PUSH4 0xFFFFFFFF DUP2 PUSH1 0x80 SHR AND PUSH1 0x80 DUP5 ADD MSTORE PUSH2 0xFFFF DUP2 PUSH1 0xA0 SHR AND PUSH1 0xA0 DUP5 ADD MSTORE DUP2 DUP2 PUSH1 0xB0 SHR AND ISZERO ISZERO PUSH1 0xC0 DUP5 ADD MSTORE PUSH1 0xB8 SHR AND ISZERO ISZERO PUSH1 0xE0 DUP3 ADD MSTORE RETURN JUMPDEST CALLVALUE PUSH2 0x53D JUMPI PUSH1 0x40 CALLDATASIZE PUSH1 0x3 NOT ADD SLT PUSH2 0x53D JUMPI PUSH2 0x30AC PUSH2 0x3969 JUMP JUMPDEST PUSH2 0x30B4 PUSH2 0x3F0B JUMP JUMPDEST PUSH1 0x1 PUSH1 0x1 PUSH1 0xA0 SHL SUB AND PUSH1 0x0 SWAP1 DUP2 MSTORE PUSH1 0x9 PUSH1 0x20 MSTORE PUSH1 0x40 SWAP1 KECCAK256 PUSH1 0x24 CALLDATALOAD SWAP1 SSTORE STOP JUMPDEST CALLVALUE PUSH2 0x53D JUMPI PUSH1 0x20 CALLDATASIZE PUSH1 0x3 NOT ADD SLT PUSH2 0x53D JUMPI PUSH1 0x1 PUSH1 0x1 PUSH1 0xA0 SHL SUB PUSH2 0x30F3 PUSH2 0x3969 JUMP JUMPDEST AND PUSH1 0x0 MSTORE PUSH1 0x6 PUSH1 0x20 MSTORE PUSH1 0x20 PUSH1 0x40 PUSH1 0x0 KECCAK256 SLOAD PUSH1 0x40 MLOAD SWAP1 DUP2 MSTORE RETURN JUMPDEST CALLVALUE PUSH2 0x53D JUMPI PUSH1 0x20 CALLDATASIZE PUSH1 0x3 NOT ADD SLT PUSH2 0x53D JUMPI PUSH1 0x4 CALLDATALOAD PUSH2 0x3128 PUSH2 0x3F63 JUMP JUMPDEST PUSH1 0x0 DUP2 DUP2 MSTORE PUSH1 0x10 PUSH1 0x20 MSTORE PUSH1 0x40 SWAP1 KECCAK256 SLOAD PUSH1 0x1 PUSH1 0x1 PUSH1 0xA0 SHL SUB SWAP1 DUP2 AND ISZERO PUSH2 0x1B69 JUMPI DUP2 PUSH1 0x0 MSTORE PUSH1 0x10 PUSH1 0x20 MSTORE PUSH1 0x40 PUSH1 0x0 KECCAK256 SWAP1 DUP2 SLOAD AND SWAP1 CALLER DUP3 SUB PUSH2 0x31D5 JUMPI PUSH1 0x2 ADD SWAP1 DUP2 SLOAD SWAP1 PUSH1 0xFF DUP3 PUSH1 0x40 SHR AND PUSH2 0x1B57 JUMPI PUSH1 0xFF DUP3 PUSH1 0x48 SHR AND PUSH2 0x1B45 JUMPI PUSH2 0x3198 SWAP3 PUSH1 0x1 PUSH1 0x48 SHL DUP6 SWAP4 PUSH1 0xFF PUSH1 0x48 SHL NOT AND OR SWAP1 SSTORE PUSH2 0x4397 JUMP JUMPDEST PUSH1 0x40 MLOAD SWAP1 PUSH1 0x1 PUSH1 0x1 PUSH1 0x40 SHL SUB TIMESTAMP AND DUP3 MSTORE PUSH32 0x3A5B5FB14885463438672F4DBD798A9BF85EB6BC323CE5BE4799CF7304C4D8D0 PUSH1 0x20 CALLER SWAP4 LOG3 PUSH1 0x1 PUSH1 0x2 SSTORE STOP JUMPDEST PUSH1 0x40 MLOAD PUSH4 0x5C427CD9 PUSH1 0xE0 SHL DUP2 MSTORE PUSH1 0x4 SWAP1 REVERT JUMPDEST CALLVALUE PUSH2 0x53D JUMPI PUSH1 0x0 CALLDATASIZE PUSH1 0x3 NOT ADD SLT PUSH2 0x53D JUMPI PUSH2 0x3200 PUSH2 0x3F0B JUMP JUMPDEST PUSH1 0x3 SLOAD PUSH1 0xFF DUP2 AND ISZERO PUSH2 0x1C19 JUMPI PUSH1 0xFF NOT AND PUSH1 0x3 SSTORE PUSH32 0x5DB9EE0A495BF2E6FF9C91A7834C1BA4FDD244A5E8AA4E537BD38AEAE4B073AA PUSH1 0x20 PUSH1 0x40 MLOAD CALLER DUP2 MSTORE LOG1 STOP JUMPDEST CALLVALUE PUSH2 0x53D JUMPI PUSH1 0x40 CALLDATASIZE PUSH1 0x3 NOT ADD SLT PUSH2 0x53D JUMPI PUSH2 0x325E PUSH1 0x24 CALLDATALOAD PUSH1 0x4 CALLDATALOAD PUSH2 0x3C03 JUMP JUMPDEST PUSH1 0x40 MLOAD DUP1 SWAP2 PUSH1 0x20 DUP1 DUP4 ADD PUSH1 0x20 DUP5 MSTORE DUP3 MLOAD DUP1 SWAP2 MSTORE PUSH1 0x20 PUSH1 0x40 DUP6 ADD SWAP4 ADD SWAP2 PUSH1 0x0 JUMPDEST DUP3 DUP2 LT PUSH2 0x328C JUMPI POP POP POP POP SUB SWAP1 RETURN JUMPDEST DUP4 MLOAD PUSH1 0x1 PUSH1 0x1 PUSH1 0xA0 SHL SUB AND DUP6 MSTORE DUP7 SWAP6 POP SWAP4 DUP2 ADD SWAP4 SWAP3 DUP2 ADD SWAP3 PUSH1 0x1 ADD PUSH2 0x327D JUMP JUMPDEST CALLVALUE PUSH2 0x53D JUMPI PUSH1 0x40 CALLDATASIZE PUSH1 0x3 NOT ADD SLT PUSH2 0x53D JUMPI PUSH2 0x32C5 PUSH2 0x3969 JUMP JUMPDEST PUSH2 0x32CD PUSH2 0x397F JUMP JUMPDEST SWAP1 PUSH1 0x1 DUP1 PUSH1 0xA0 SHL SUB DUP1 SWAP2 AND PUSH1 0x0 MSTORE PUSH1 0xD PUSH1 0x20 MSTORE PUSH1 0x40 PUSH1 0x0 KECCAK256 SWAP2 AND PUSH1 0x0 MSTORE PUSH1 0x20 MSTORE PUSH1 0x20 PUSH1 0xFF PUSH1 0x40 PUSH1 0x0 KECCAK256 SLOAD AND PUSH1 0x40 MLOAD SWAP1 ISZERO ISZERO DUP2 MSTORE RETURN JUMPDEST CALLVALUE PUSH2 0x53D JUMPI PUSH1 0x20 CALLDATASIZE PUSH1 0x3 NOT ADD SLT PUSH2 0x53D JUMPI PUSH1 0x1 PUSH1 0x1 PUSH1 0xA0 SHL SUB PUSH2 0x3323 PUSH2 0x3969 JUMP JUMPDEST AND PUSH1 0x0 MSTORE PUSH1 0x9 PUSH1 0x20 MSTORE PUSH1 0x20 PUSH1 0x40 PUSH1 0x0 KECCAK256 SLOAD PUSH1 0x40 MLOAD SWAP1 DUP2 MSTORE RETURN JUMPDEST CALLVALUE PUSH2 0x53D JUMPI PUSH1 0x40 CALLDATASIZE PUSH1 0x3 NOT ADD SLT PUSH2 0x53D JUMPI PUSH2 0x3355 PUSH2 0x3969 JUMP JUMPDEST PUSH2 0x335D PUSH2 0x39BA JUMP JUMPDEST SWAP1 PUSH2 0x3366 PUSH2 0x3F0B JUMP JUMPDEST PUSH2 0x336E PUSH2 0x3F63 JUMP JUMPDEST PUSH1 0x1 PUSH1 0x1 PUSH1 0x60 SHL SUB DUP3 AND DUP1 ISZERO PUSH2 0x21F JUMPI PUSH1 0x1 PUSH1 0x1 PUSH1 0xA0 SHL SUB DUP3 DUP2 AND SWAP3 SWAP1 DUP4 PUSH2 0x33FE JUMPI PUSH1 0x5 SLOAD DUP4 DUP2 LT PUSH2 0xC74 JUMPI DUP4 PUSH2 0x2A95 SWAP4 PUSH2 0x33CD PUSH32 0x63FC258CB602439EC8DDE61308820F0DF700BF87BBD868A03450002B7056DBE0 SWAP7 PUSH2 0x33DF SWAP5 PUSH2 0x3A3A JUMP JUMPDEST PUSH1 0x5 SSTORE JUMPDEST DUP4 PUSH1 0x1D SLOAD PUSH1 0x8 SHR AND SWAP1 PUSH2 0x4322 JUMP JUMPDEST PUSH1 0x1D SLOAD PUSH1 0x8 SHR AND SWAP4 PUSH1 0x40 MLOAD SWAP2 DUP3 SWAP2 PUSH1 0x1 PUSH1 0x1 PUSH1 0x40 SHL SUB TIMESTAMP AND SWAP1 DUP4 PUSH2 0x3AAB JUMP JUMPDEST DUP4 PUSH1 0x0 SWAP4 SWAP3 SWAP4 MSTORE PUSH1 0x6 PUSH1 0x20 MSTORE DUP2 PUSH1 0x40 PUSH1 0x0 KECCAK256 SLOAD LT PUSH2 0xC74 JUMPI PUSH2 0x33DF PUSH2 0x2A95 SWAP3 PUSH32 0x63FC258CB602439EC8DDE61308820F0DF700BF87BBD868A03450002B7056DBE0 SWAP5 DUP7 PUSH1 0x0 MSTORE PUSH1 0x6 PUSH1 0x20 MSTORE PUSH1 0x40 PUSH1 0x0 KECCAK256 PUSH2 0x3458 DUP4 DUP3 SLOAD PUSH2 0x3A3A JUMP JUMPDEST SWAP1 SSTORE PUSH2 0x33D1 JUMP JUMPDEST CALLVALUE PUSH2 0x53D JUMPI PUSH1 0x40 CALLDATASIZE PUSH1 0x3 NOT ADD SLT PUSH2 0x53D JUMPI PUSH2 0x3478 PUSH2 0x3969 JUMP JUMPDEST PUSH2 0x3480 PUSH2 0x3995 JUMP JUMPDEST SWAP1 PUSH2 0x3489 PUSH2 0x3F0B JUMP JUMPDEST PUSH1 0x1 PUSH1 0x1 PUSH1 0xA0 SHL SUB AND PUSH1 0x0 DUP2 DUP2 MSTORE PUSH1 0xB PUSH1 0x20 MSTORE PUSH1 0x40 SWAP1 KECCAK256 SLOAD SWAP1 SWAP2 SWAP1 PUSH1 0xFF AND ISZERO PUSH2 0xC98 JUMPI PUSH1 0x0 DUP3 DUP2 MSTORE PUSH1 0xA PUSH1 0x20 MSTORE PUSH1 0x40 SWAP1 KECCAK256 PUSH1 0x1 ADD DUP1 SLOAD PUSH1 0xFF PUSH1 0xB0 SHL NOT DUP2 AND DUP4 ISZERO ISZERO PUSH1 0xB0 SWAP1 DUP2 SHL PUSH1 0xFF PUSH1 0xB0 SHL AND SWAP2 SWAP1 SWAP2 OR SWAP1 SWAP3 SSTORE PUSH32 0x6AD2381274ADEB9DEAD020E5FE6ACAE39EC64A1701EC9077431795666A15D7D0 SWAP3 PUSH2 0x9D5 SWAP3 SWAP1 SWAP2 SWAP1 SHR PUSH1 0xFF AND DUP1 DUP1 PUSH2 0x356B JUMPI JUMPDEST ISZERO PUSH2 0x3545 JUMPI POP PUSH2 0x3521 PUSH1 0x1A SLOAD PUSH2 0x3ADD JUMP JUMPDEST PUSH1 0x1A SSTORE PUSH1 0x40 DUP1 MLOAD SWAP2 ISZERO ISZERO DUP3 MSTORE TIMESTAMP PUSH1 0x1 PUSH1 0x1 PUSH1 0x40 SHL SUB AND PUSH1 0x20 DUP4 ADD MSTORE SWAP1 SWAP2 DUP3 SWAP2 DUP3 ADD SWAP1 JUMP JUMPDEST ISZERO DUP1 PUSH2 0x3564 JUMPI JUMPDEST ISZERO PUSH2 0x9B4 JUMPI PUSH2 0x355C PUSH1 0x1A SLOAD PUSH2 0x3ACE JUMP JUMPDEST PUSH1 0x1A SSTORE PUSH2 0x9B4 JUMP JUMPDEST POP DUP1 PUSH2 0x354C JUMP JUMPDEST POP DUP2 ISZERO PUSH2 0x3510 JUMP JUMPDEST CALLVALUE PUSH2 0x53D JUMPI PUSH1 0x60 CALLDATASIZE PUSH1 0x3 NOT ADD SLT PUSH2 0x53D JUMPI PUSH2 0x358C PUSH2 0x3969 JUMP JUMPDEST PUSH2 0x3594 PUSH2 0x397F JUMP JUMPDEST PUSH2 0x359C PUSH2 0x39A4 JUMP JUMPDEST SWAP2 PUSH2 0x35A5 PUSH2 0x3F0B JUMP JUMPDEST PUSH2 0x35AD PUSH2 0x3F63 JUMP JUMPDEST PUSH1 0x1 PUSH1 0x1 PUSH1 0xA0 SHL SUB SWAP1 DUP2 AND PUSH1 0x0 DUP2 DUP2 MSTORE PUSH1 0xB PUSH1 0x20 MSTORE PUSH1 0x40 SWAP1 KECCAK256 SLOAD SWAP1 SWAP2 SWAP1 PUSH1 0xFF AND ISZERO PUSH2 0xC98 JUMPI PUSH1 0xFF PUSH1 0x1D SLOAD PUSH1 0xA8 SHR AND ISZERO PUSH2 0x2A9F JUMPI PUSH1 0x1 PUSH1 0x1 PUSH1 0x60 SHL SUB SWAP3 DUP4 DUP6 AND SWAP2 DUP3 ISZERO PUSH2 0x21F JUMPI DUP4 PUSH1 0x0 MSTORE PUSH1 0x4 PUSH1 0x20 MSTORE PUSH1 0x40 PUSH1 0x0 KECCAK256 SWAP5 DUP2 DUP4 AND SWAP6 DUP7 PUSH1 0x0 MSTORE PUSH1 0x20 MSTORE DUP4 DUP2 PUSH1 0x40 PUSH1 0x0 KECCAK256 SLOAD AND LT PUSH2 0xC74 JUMPI PUSH32 0xC73A98959728E324CA2CC6BA5454C42C21A3C55565F5BE666FBA959769D5B35C SWAP4 PUSH2 0xF80 SWAP4 PUSH2 0x368C SWAP3 DUP8 PUSH1 0x0 MSTORE PUSH1 0x4 PUSH1 0x20 MSTORE PUSH1 0x40 PUSH1 0x0 KECCAK256 DUP10 PUSH1 0x0 MSTORE PUSH1 0x20 MSTORE PUSH1 0x40 PUSH1 0x0 KECCAK256 SWAP1 DUP2 SLOAD SWAP1 PUSH2 0x366F DUP13 DUP3 DUP5 AND PUSH2 0x3A92 JUMP JUMPDEST AND SWAP1 PUSH1 0x1 PUSH1 0x1 PUSH1 0x60 SHL SUB NOT AND OR SWAP1 SSTORE DUP4 PUSH1 0x1D SLOAD PUSH1 0x8 SHR AND SWAP1 PUSH2 0x4322 JUMP JUMPDEST PUSH1 0x1D SLOAD PUSH1 0x8 SHR AND SWAP5 PUSH1 0x40 MLOAD SWAP2 DUP3 SWAP2 PUSH1 0x1 PUSH1 0x1 PUSH1 0x40 SHL SUB TIMESTAMP AND SWAP1 DUP4 PUSH2 0x3AAB JUMP JUMPDEST CALLVALUE PUSH2 0x53D JUMPI PUSH1 0x20 CALLDATASIZE PUSH1 0x3 NOT ADD SLT PUSH2 0x53D JUMPI PUSH1 0x4 CALLDATALOAD PUSH2 0x36C7 PUSH2 0x3F63 JUMP JUMPDEST PUSH2 0x36CF PUSH2 0x3FB7 JUMP JUMPDEST PUSH1 0x0 DUP2 DUP2 MSTORE PUSH1 0x10 PUSH1 0x20 MSTORE PUSH1 0x40 SWAP1 KECCAK256 SLOAD PUSH1 0x1 PUSH1 0x1 PUSH1 0xA0 SHL SUB AND ISZERO PUSH2 0x1B69 JUMPI DUP1 PUSH1 0x0 MSTORE PUSH1 0x10 PUSH1 0x20 MSTORE PUSH1 0x2 PUSH1 0x40 PUSH1 0x0 KECCAK256 ADD SLOAD PUSH1 0xFF DUP2 PUSH1 0x40 SHR AND PUSH2 0x1B57 JUMPI PUSH1 0xFF DUP2 PUSH1 0x48 SHR AND PUSH2 0x1B45 JUMPI PUSH1 0xFF DUP1 DUP3 PUSH1 0x50 SHR AND SWAP2 PUSH1 0x58 SHR AND LT PUSH2 0x372F JUMPI PUSH2 0x267B SWAP1 PUSH2 0x3FFB JUMP JUMPDEST PUSH1 0x40 MLOAD PUSH4 0x8AF69CF1 PUSH1 0xE0 SHL DUP2 MSTORE PUSH1 0x4 SWAP1 REVERT JUMPDEST CALLVALUE PUSH2 0x53D JUMPI PUSH1 0x0 CALLDATASIZE PUSH1 0x3 NOT ADD SLT PUSH2 0x53D JUMPI PUSH1 0x20 PUSH1 0xF SLOAD PUSH1 0x40 MLOAD SWAP1 DUP2 MSTORE RETURN JUMPDEST CALLVALUE PUSH2 0x53D JUMPI PUSH1 0x20 CALLDATASIZE PUSH1 0x3 NOT ADD SLT PUSH2 0x53D JUMPI PUSH1 0x20 PUSH2 0x2FED PUSH2 0x377D PUSH2 0x3969 JUMP JUMPDEST PUSH2 0x3A47 JUMP JUMPDEST CALLVALUE PUSH2 0x53D JUMPI PUSH1 0x40 CALLDATASIZE PUSH1 0x3 NOT ADD SLT PUSH2 0x53D JUMPI PUSH2 0x379B PUSH2 0x3969 JUMP JUMPDEST PUSH1 0x24 CALLDATALOAD PUSH1 0xFF DUP2 AND SWAP2 DUP3 DUP3 SUB PUSH2 0x53D JUMPI PUSH2 0x37B2 PUSH2 0x3F0B JUMP JUMPDEST PUSH1 0x1 PUSH1 0x1 PUSH1 0xA0 SHL SUB AND PUSH1 0x0 DUP2 DUP2 MSTORE PUSH1 0xB PUSH1 0x20 MSTORE PUSH1 0x40 SWAP1 KECCAK256 SLOAD SWAP1 SWAP3 SWAP1 PUSH1 0xFF AND ISZERO PUSH2 0xC98 JUMPI DUP1 ISZERO DUP1 ISZERO PUSH2 0x385B JUMPI JUMPDEST PUSH2 0x21F JUMPI PUSH32 0xC966D3B1B059F4EF2748DC43E0F3D1465CF4498426BEAD21EC900F4F72F6C5F9 SWAP2 DUP4 PUSH1 0x0 MSTORE PUSH1 0xC PUSH1 0x20 MSTORE PUSH1 0x40 PUSH1 0x0 KECCAK256 DUP1 SLOAD SWAP3 PUSH1 0xFF NOT DUP5 AND OR SWAP1 SSTORE PUSH2 0x9D5 PUSH1 0x40 MLOAD SWAP3 DUP4 SWAP3 PUSH1 0xFF PUSH1 0x1 PUSH1 0x1 PUSH1 0x40 SHL SUB TIMESTAMP AND SWAP3 AND DUP5 SWAP2 PUSH1 0x40 SWAP2 SWAP5 SWAP4 PUSH1 0xFF PUSH1 0x1 PUSH1 0x1 PUSH1 0x40 SHL SUB SWAP3 DUP2 PUSH1 0x60 DUP8 ADD SWAP9 AND DUP7 MSTORE AND PUSH1 0x20 DUP6 ADD MSTORE AND SWAP2 ADD MSTORE JUMP JUMPDEST POP DUP3 PUSH1 0x0 MSTORE PUSH1 0xE PUSH1 0x20 MSTORE PUSH1 0xFF PUSH1 0x40 PUSH1 0x0 KECCAK256 SLOAD AND DUP2 GT PUSH2 0x37DE JUMP JUMPDEST CALLVALUE PUSH2 0x53D JUMPI PUSH1 0x0 CALLDATASIZE PUSH1 0x3 NOT ADD SLT PUSH2 0x53D JUMPI PUSH1 0xE0 PUSH1 0x18 SLOAD PUSH1 0x1A SLOAD PUSH1 0x1B SLOAD SELFBALANCE PUSH1 0x1C SLOAD SWAP1 PUSH1 0x5 SLOAD SWAP3 PUSH1 0xF SLOAD SWAP5 PUSH1 0x40 MLOAD SWAP7 DUP8 MSTORE PUSH1 0x20 DUP8 ADD MSTORE PUSH1 0x40 DUP7 ADD MSTORE PUSH1 0x60 DUP6 ADD MSTORE PUSH1 0x80 DUP5 ADD MSTORE PUSH1 0xA0 DUP4 ADD MSTORE PUSH1 0xC0 DUP3 ADD MSTORE RETURN JUMPDEST CALLVALUE PUSH2 0x53D JUMPI PUSH1 0x40 CALLDATASIZE PUSH1 0x3 NOT ADD SLT PUSH2 0x53D JUMPI PUSH2 0x38DD PUSH2 0x3969 JUMP JUMPDEST PUSH2 0x38E5 PUSH2 0x3995 JUMP JUMPDEST SWAP1 PUSH2 0x38EE PUSH2 0x3F0B JUMP JUMPDEST PUSH1 0x1 PUSH1 0x1 PUSH1 0xA0 SHL SUB AND SWAP1 DUP2 ISZERO PUSH2 0x84C JUMPI PUSH2 0x9D5 PUSH32 0x461918E22B76244A1EAA4EFFD12E6556635A2700C7F78229B370A51220019CC0 SWAP2 DUP4 PUSH1 0x0 MSTORE PUSH1 0x7 PUSH1 0x20 MSTORE PUSH2 0x9B4 DUP2 PUSH1 0x40 PUSH1 0x0 KECCAK256 SWAP1 PUSH1 0xFF DUP1 NOT DUP4 SLOAD AND SWAP2 ISZERO ISZERO AND OR SWAP1 SSTORE JUMP JUMPDEST CALLVALUE PUSH2 0x53D JUMPI PUSH1 0x0 CALLDATASIZE PUSH1 0x3 NOT ADD SLT PUSH2 0x53D JUMPI PUSH1 0x20 SWAP1 PUSH1 0xFF PUSH1 0x1D SLOAD PUSH1 0xA8 SHR AND ISZERO ISZERO DUP2 MSTORE RETURN JUMPDEST PUSH1 0x4 CALLDATALOAD SWAP1 PUSH1 0x1 PUSH1 0x1 PUSH1 0xA0 SHL SUB DUP3 AND DUP3 SUB PUSH2 0x53D JUMPI JUMP JUMPDEST PUSH1 0x24 CALLDATALOAD SWAP1 PUSH1 0x1 PUSH1 0x1 PUSH1 0xA0 SHL SUB DUP3 AND DUP3 SUB PUSH2 0x53D JUMPI JUMP JUMPDEST PUSH1 0x24 CALLDATALOAD SWAP1 DUP2 ISZERO ISZERO DUP3 SUB PUSH2 0x53D JUMPI JUMP JUMPDEST PUSH1 0x44 CALLDATALOAD SWAP1 PUSH1 0x1 PUSH1 0x1 PUSH1 0x60 SHL SUB DUP3 AND DUP3 SUB PUSH2 0x53D JUMPI JUMP JUMPDEST PUSH1 0x24 CALLDATALOAD SWAP1 PUSH1 0x1 PUSH1 0x1 PUSH1 0x60 SHL SUB DUP3 AND DUP3 SUB PUSH2 0x53D JUMPI JUMP JUMPDEST SWAP2 DUP2 PUSH1 0x1F DUP5 ADD SLT ISZERO PUSH2 0x53D JUMPI DUP3 CALLDATALOAD SWAP2 PUSH1 0x1 PUSH1 0x1 PUSH1 0x40 SHL SUB DUP4 GT PUSH2 0x53D JUMPI PUSH1 0x20 DUP4 DUP2 DUP7 ADD SWAP6 ADD ADD GT PUSH2 0x53D JUMPI JUMP JUMPDEST SWAP2 DUP2 PUSH1 0x1F DUP5 ADD SLT ISZERO PUSH2 0x53D JUMPI DUP3 CALLDATALOAD SWAP2 PUSH1 0x1 PUSH1 0x1 PUSH1 0x40 SHL SUB DUP4 GT PUSH2 0x53D JUMPI PUSH1 0x20 DUP1 DUP6 ADD SWAP5 DUP5 PUSH1 0x5 SHL ADD ADD GT PUSH2 0x53D JUMPI JUMP JUMPDEST SWAP2 SWAP1 DUP3 ADD DUP1 SWAP3 GT PUSH2 0xC2A JUMPI JUMP JUMPDEST SWAP2 SWAP1 DUP3 SUB SWAP2 DUP3 GT PUSH2 0xC2A JUMPI JUMP JUMPDEST PUSH1 0x1 DUP1 PUSH1 0xA0 SHL SUB AND PUSH1 0x0 MSTORE PUSH1 0xA PUSH1 0x20 MSTORE PUSH1 0x1 PUSH1 0x1 PUSH1 0x40 SHL SUB PUSH1 0x1 PUSH1 0x40 PUSH1 0x0 KECCAK256 ADD SLOAD AND PUSH3 0x15180 DUP2 ADD DUP1 SWAP2 GT PUSH2 0xC2A JUMPI DUP1 TIMESTAMP LT ISZERO PUSH2 0x3A8C JUMPI PUSH2 0x3A89 SWAP1 TIMESTAMP SWAP1 PUSH2 0x3A3A JUMP JUMPDEST SWAP1 JUMP JUMPDEST POP PUSH1 0x0 SWAP1 JUMP JUMPDEST PUSH1 0x1 PUSH1 0x1 PUSH1 0x60 SHL SUB SWAP2 DUP3 AND SWAP1 DUP3 AND SUB SWAP2 SWAP1 DUP3 GT PUSH2 0xC2A JUMPI JUMP JUMPDEST PUSH1 0x1 PUSH1 0x1 PUSH1 0x60 SHL SUB SWAP1 SWAP2 AND DUP2 MSTORE PUSH1 0x1 PUSH1 0x1 PUSH1 0x40 SHL SUB SWAP1 SWAP2 AND PUSH1 0x20 DUP3 ADD MSTORE PUSH1 0x40 ADD SWAP1 JUMP JUMPDEST PUSH1 0x0 NOT DUP2 EQ PUSH2 0xC2A JUMPI PUSH1 0x1 ADD SWAP1 JUMP JUMPDEST DUP1 ISZERO PUSH2 0xC2A JUMPI PUSH1 0x0 NOT ADD SWAP1 JUMP JUMPDEST PUSH1 0xE0 DUP2 ADD SWAP1 DUP2 LT PUSH1 0x1 PUSH1 0x1 PUSH1 0x40 SHL SUB DUP3 GT OR PUSH2 0xFF9 JUMPI PUSH1 0x40 MSTORE JUMP JUMPDEST PUSH1 0x20 DUP2 ADD SWAP1 DUP2 LT PUSH1 0x1 PUSH1 0x1 PUSH1 0x40 SHL SUB DUP3 GT OR PUSH2 0xFF9 JUMPI PUSH1 0x40 MSTORE JUMP JUMPDEST SWAP1 PUSH1 0x1F DUP1 NOT SWAP2 ADD AND DUP2 ADD SWAP1 DUP2 LT PUSH1 0x1 PUSH1 0x1 PUSH1 0x40 SHL SUB DUP3 GT OR PUSH2 0xFF9 JUMPI PUSH1 0x40 MSTORE JUMP JUMPDEST PUSH1 0x1 PUSH1 0x1 PUSH1 0x40 SHL SUB DUP2 GT PUSH2 0xFF9 JUMPI PUSH1 0x5 SHL PUSH1 0x20 ADD SWAP1 JUMP JUMPDEST SWAP1 PUSH2 0x3B62 DUP3 PUSH2 0x3B41 JUMP JUMPDEST PUSH2 0x3B6F PUSH1 0x40 MLOAD SWAP2 DUP3 PUSH2 0x3B20 JUMP JUMPDEST DUP3 DUP2 MSTORE DUP1 SWAP3 PUSH2 0x3B80 PUSH1 0x1F NOT SWAP2 PUSH2 0x3B41 JUMP JUMPDEST ADD SWAP1 PUSH1 0x20 CALLDATASIZE SWAP2 ADD CALLDATACOPY JUMP JUMPDEST PUSH1 0xF SLOAD DUP2 LT ISZERO PUSH2 0x3BC1 JUMPI PUSH1 0xF PUSH1 0x0 MSTORE PUSH32 0x8D1108E10BCB7C27DDDFC02ED9D693A074039D026CF4EA4240B40F7D581AC802 ADD SWAP1 PUSH1 0x0 SWAP1 JUMP JUMPDEST PUSH4 0x4E487B71 PUSH1 0xE0 SHL PUSH1 0x0 MSTORE PUSH1 0x32 PUSH1 0x4 MSTORE PUSH1 0x24 PUSH1 0x0 REVERT JUMPDEST DUP1 SLOAD DUP3 LT ISZERO PUSH2 0x3BC1 JUMPI PUSH1 0x0 MSTORE PUSH1 0x20 PUSH1 0x0 KECCAK256 ADD SWAP1 PUSH1 0x0 SWAP1 JUMP JUMPDEST DUP1 MLOAD DUP3 LT ISZERO PUSH2 0x3BC1 JUMPI PUSH1 0x20 SWAP2 PUSH1 0x5 SHL ADD ADD SWAP1 JUMP JUMPDEST SWAP2 SWAP1 PUSH1 0xF SLOAD SWAP1 DUP2 DUP5 LT ISZERO PUSH2 0x3C84 JUMPI DUP4 PUSH2 0x3C37 SWAP3 PUSH2 0x3C23 PUSH2 0x3C32 SWAP4 DUP4 PUSH2 0x3A2D JUMP JUMPDEST SWAP1 DUP1 DUP3 GT PUSH2 0x3C7C JUMPI JUMPDEST POP PUSH2 0x3A3A JUMP JUMPDEST PUSH2 0x3B58 JUMP JUMPDEST SWAP2 PUSH1 0x0 JUMPDEST DUP4 MLOAD DUP2 LT ISZERO PUSH2 0x3C78 JUMPI DUP1 PUSH2 0x3C59 PUSH2 0x3C54 PUSH1 0x1 SWAP4 DUP6 PUSH2 0x3A2D JUMP JUMPDEST PUSH2 0x3B8A JUMP JUMPDEST DUP4 DUP1 PUSH1 0xA0 SHL SUB SWAP2 SLOAD SWAP1 PUSH1 0x3 SHL SHR AND PUSH2 0x3C71 DUP3 DUP8 PUSH2 0x3BEF JUMP JUMPDEST MSTORE ADD PUSH2 0x3C3B JUMP JUMPDEST POP POP JUMP JUMPDEST SWAP1 POP CODESIZE PUSH2 0x3C2C JUMP JUMPDEST POP POP SWAP1 POP PUSH1 0x40 MLOAD PUSH2 0x3C94 DUP2 PUSH2 0x3B05 JUMP JUMPDEST PUSH1 0x0 DUP2 MSTORE PUSH1 0x0 CALLDATASIZE DUP2 CALLDATACOPY SWAP1 JUMP JUMPDEST PUSH1 0x1 DUP1 PUSH1 0xA0 SHL SUB AND PUSH1 0x0 MSTORE PUSH1 0xA PUSH1 0x20 MSTORE PUSH1 0x1 PUSH1 0x1 PUSH1 0x40 SHL SUB PUSH1 0x1 PUSH1 0x40 PUSH1 0x0 KECCAK256 ADD SLOAD PUSH1 0x40 SHR AND PUSH3 0x15180 DUP2 ADD DUP1 SWAP2 GT PUSH2 0xC2A JUMPI DUP1 TIMESTAMP LT ISZERO PUSH2 0x3A8C JUMPI PUSH2 0x3A89 SWAP1 TIMESTAMP SWAP1 PUSH2 0x3A3A JUMP JUMPDEST PUSH1 0x1 PUSH1 0x1 PUSH1 0xA0 SHL SUB AND PUSH1 0x0 SWAP1 DUP2 MSTORE PUSH1 0x14 PUSH1 0x20 MSTORE PUSH1 0x40 DUP2 KECCAK256 DUP1 SLOAD SWAP2 SWAP5 SWAP4 SWAP1 SWAP3 SWAP2 SWAP1 DUP2 DUP4 LT ISZERO PUSH2 0x3D5D JUMPI DUP3 PUSH2 0x3D1F SWAP3 PUSH2 0x3C23 PUSH2 0x3C32 SWAP4 DUP4 PUSH2 0x3A2D JUMP JUMPDEST SWAP4 JUMPDEST DUP5 MLOAD DUP2 LT ISZERO PUSH2 0x3D58 JUMPI DUP1 PUSH2 0x3D40 PUSH2 0x3D3A PUSH1 0x1 SWAP4 DUP6 PUSH2 0x3A2D JUMP JUMPDEST DUP6 PUSH2 0x3BD7 JUMP JUMPDEST SWAP1 SLOAD SWAP1 PUSH1 0x3 SHL SHR PUSH2 0x3D51 DUP3 DUP9 PUSH2 0x3BEF JUMP JUMPDEST MSTORE ADD PUSH2 0x3D21 JUMP JUMPDEST POP POP POP JUMP JUMPDEST POP POP POP POP SWAP1 PUSH1 0x40 MLOAD SWAP1 PUSH2 0x3D6F DUP3 PUSH2 0x3B05 JUMP JUMPDEST DUP1 DUP3 MSTORE CALLDATASIZE DUP2 CALLDATACOPY SWAP1 JUMP JUMPDEST PUSH1 0x1 PUSH1 0x1 PUSH1 0x40 SHL SUB DUP2 GT PUSH2 0xFF9 JUMPI PUSH1 0x1F ADD PUSH1 0x1F NOT AND PUSH1 0x20 ADD SWAP1 JUMP JUMPDEST SWAP3 SWAP2 SWAP3 PUSH2 0x3D9F DUP3 PUSH2 0x3D78 JUMP JUMPDEST SWAP2 PUSH2 0x3DAD PUSH1 0x40 MLOAD SWAP4 DUP5 PUSH2 0x3B20 JUMP JUMPDEST DUP3 SWAP5 DUP2 DUP5 MSTORE DUP2 DUP4 ADD GT PUSH2 0x53D JUMPI DUP3 DUP2 PUSH1 0x20 SWAP4 DUP5 PUSH1 0x0 SWAP7 ADD CALLDATACOPY ADD ADD MSTORE JUMP JUMPDEST SWAP2 SWAP1 SWAP2 PUSH1 0x1 PUSH1 0x1 PUSH1 0x60 SHL SUB DUP1 DUP1 SWAP5 AND SWAP2 AND ADD SWAP2 DUP3 GT PUSH2 0xC2A JUMPI JUMP JUMPDEST PUSH1 0x0 SWAP1 DUP2 MSTORE PUSH1 0x10 PUSH1 0x20 MSTORE PUSH1 0x40 SWAP1 KECCAK256 DUP1 SLOAD PUSH1 0x1 PUSH1 0x1 PUSH1 0xA0 SHL SUB AND ISZERO DUP1 ISZERO PUSH2 0x3E43 JUMPI JUMPDEST DUP1 ISZERO PUSH2 0x3E32 JUMPI JUMPDEST PUSH2 0x3A8C JUMPI PUSH1 0x2 PUSH1 0x1 PUSH1 0x1 PUSH1 0x40 SHL SUB SWAP2 ADD SLOAD AND PUSH3 0x278D00 DUP2 ADD DUP1 SWAP2 GT PUSH2 0xC2A JUMPI TIMESTAMP LT ISZERO SWAP1 JUMP JUMPDEST POP PUSH1 0xFF PUSH1 0x2 DUP3 ADD SLOAD PUSH1 0x48 SHR AND PUSH2 0x3E0D JUMP JUMPDEST POP PUSH1 0xFF PUSH1 0x2 DUP3 ADD SLOAD PUSH1 0x40 SHR AND PUSH2 0x3E06 JUMP JUMPDEST DUP1 SLOAD PUSH1 0x1 PUSH1 0x1 PUSH1 0xA0 SHL SUB AND PUSH1 0xA0 SWAP3 SWAP1 SWAP3 SHL PUSH1 0x1 PUSH1 0x1 PUSH1 0xA0 SHL SUB NOT AND SWAP2 SWAP1 SWAP2 OR SWAP1 SSTORE JUMP JUMPDEST SWAP2 SWAP1 DUP2 LT ISZERO PUSH2 0x3BC1 JUMPI PUSH1 0x5 SHL ADD SWAP1 JUMP JUMPDEST CALLDATALOAD PUSH1 0x1 PUSH1 0x1 PUSH1 0xA0 SHL SUB DUP2 AND DUP2 SUB PUSH2 0x53D JUMPI SWAP1 JUMP JUMPDEST DUP2 DUP2 LT PUSH2 0x3EA6 JUMPI POP POP JUMP JUMPDEST PUSH1 0x0 DUP2 SSTORE PUSH1 0x1 ADD PUSH2 0x3E9B JUMP JUMPDEST CALLDATALOAD PUSH1 0x1 PUSH1 0x1 PUSH1 0x60 SHL SUB DUP2 AND DUP2 SUB PUSH2 0x53D JUMPI SWAP1 JUMP JUMPDEST SWAP1 PUSH12 0xFFFFFFFFFFFFFFFFFFFFFFFF PUSH1 0x40 SHL DUP3 SLOAD SWAP2 PUSH1 0x40 SHL AND SWAP1 PUSH12 0xFFFFFFFFFFFFFFFFFFFFFFFF PUSH1 0x40 SHL NOT AND OR SWAP1 SSTORE JUMP JUMPDEST PUSH4 0xFFFFFFFF DUP1 SWAP2 AND SWAP1 DUP2 EQ PUSH2 0xC2A JUMPI PUSH1 0x1 ADD SWAP1 JUMP JUMPDEST PUSH1 0x0 SLOAD PUSH1 0x1 PUSH1 0x1 PUSH1 0xA0 SHL SUB AND CALLER SUB PUSH2 0x3F1F JUMPI JUMP JUMPDEST PUSH1 0x64 PUSH1 0x40 MLOAD PUSH3 0x461BCD PUSH1 0xE5 SHL DUP2 MSTORE PUSH1 0x20 PUSH1 0x4 DUP3 ADD MSTORE PUSH1 0x20 PUSH1 0x24 DUP3 ADD MSTORE PUSH32 0x4F776E61626C653A2063616C6C6572206973206E6F7420746865206F776E6572 PUSH1 0x44 DUP3 ADD MSTORE REVERT JUMPDEST PUSH1 0x2 DUP1 SLOAD EQ PUSH2 0x3F72 JUMPI PUSH1 0x2 DUP1 SSTORE JUMP JUMPDEST PUSH1 0x40 MLOAD PUSH3 0x461BCD PUSH1 0xE5 SHL DUP2 MSTORE PUSH1 0x20 PUSH1 0x4 DUP3 ADD MSTORE PUSH1 0x1F PUSH1 0x24 DUP3 ADD MSTORE PUSH32 0x5265656E7472616E637947756172643A207265656E7472616E742063616C6C00 PUSH1 0x44 DUP3 ADD MSTORE PUSH1 0x64 SWAP1 REVERT JUMPDEST PUSH1 0xFF PUSH1 0x3 SLOAD AND PUSH2 0x3FC3 JUMPI JUMP JUMPDEST PUSH1 0x40 MLOAD PUSH3 0x461BCD PUSH1 0xE5 SHL DUP2 MSTORE PUSH1 0x20 PUSH1 0x4 DUP3 ADD MSTORE PUSH1 0x10 PUSH1 0x24 DUP3 ADD MSTORE PUSH16 0x14185D5CD8589B194E881C185D5CD959 PUSH1 0x82 SHL PUSH1 0x44 DUP3 ADD MSTORE PUSH1 0x64 SWAP1 REVERT JUMPDEST PUSH1 0x0 SWAP1 DUP1 DUP3 MSTORE PUSH1 0x20 SWAP2 PUSH1 0x10 DUP4 MSTORE PUSH1 0x40 DUP1 DUP3 KECCAK256 SWAP4 PUSH1 0x1 DUP1 PUSH1 0xA0 SHL SUB SWAP3 DUP4 DUP7 SLOAD AND SWAP6 DUP7 DUP3 MSTORE PUSH1 0xA DUP4 MSTORE DUP4 DUP3 KECCAK256 PUSH1 0x4 DUP5 MSTORE DUP5 DUP4 KECCAK256 SWAP8 PUSH1 0x1 SWAP1 DUP2 DUP5 ADD SWAP10 DUP11 SLOAD SWAP6 DUP10 DUP8 AND SWAP2 DUP3 DUP3 MSTORE DUP9 MSTORE PUSH1 0x1 PUSH1 0x1 PUSH1 0x60 SHL SUB SWAP2 DUP3 DUP11 DUP4 KECCAK256 SLOAD AND SWAP1 PUSH1 0xA0 SWAP9 DUP10 SHR DUP1 SWAP3 LT PUSH2 0x42E1 JUMPI PUSH1 0x2 DUP9 DUP2 ADD DUP1 SLOAD PUSH9 0xFF0000000000000000 NOT AND PUSH1 0x1 PUSH1 0x40 SHL OR SWAP1 SSTORE SWAP5 DUP4 MSTORE PUSH1 0x4 DUP11 MSTORE DUP11 DUP4 KECCAK256 SWAP1 DUP4 MSTORE DUP10 MSTORE DUP10 DUP3 KECCAK256 DUP1 SLOAD DUP7 SWAP6 SWAP5 SWAP4 SWAP3 DUP5 SWAP1 PUSH2 0x409E SWAP1 DUP4 DUP4 AND PUSH2 0x3A92 JUMP JUMPDEST AND SWAP1 PUSH1 0x1 PUSH1 0x1 PUSH1 0x60 SHL SUB NOT AND OR SWAP1 SSTORE DUP12 DUP2 MSTORE PUSH1 0x12 DUP10 MSTORE DUP10 DUP2 KECCAK256 SWAP1 DUP11 MLOAD SWAP2 DUP3 DUP12 DUP3 SLOAD SWAP2 DUP3 DUP2 MSTORE ADD SWAP2 DUP4 MSTORE DUP12 DUP4 KECCAK256 SWAP1 DUP4 JUMPDEST DUP14 DUP3 DUP3 LT PUSH2 0x42CE JUMPI POP POP POP POP DUP3 PUSH2 0x40E5 SWAP2 SUB DUP4 PUSH2 0x3B20 JUMP JUMPDEST DUP13 DUP2 MSTORE PUSH1 0x13 DUP11 MSTORE DUP11 DUP2 KECCAK256 SWAP2 DUP11 DUP13 MLOAD SWAP4 DUP14 DUP6 DUP4 DUP4 SLOAD SWAP2 DUP3 DUP2 MSTORE ADD SWAP3 DUP7 MSTORE DUP4 DUP7 KECCAK256 DUP7 SWAP3 JUMPDEST DUP3 DUP13 DUP6 ADD LT PUSH2 0x429C JUMPI POP PUSH2 0x4143 SWAP5 SWAP3 DUP9 SWAP5 SWAP3 DUP11 SWAP3 SLOAD SWAP2 DUP14 DUP7 DUP4 DUP4 LT PUSH2 0x428A JUMPI JUMPDEST POP POP LT PUSH2 0x427A JUMPI JUMPDEST POP POP SWAP2 SWAP7 SWAP8 SWAP9 POP POP SWAP4 SWAP1 SWAP2 SWAP3 SWAP4 SUB DUP5 PUSH2 0x3B20 JUMP JUMPDEST DUP2 DUP7 JUMPDEST PUSH2 0x41EA JUMPI JUMPDEST POP POP POP POP POP POP SWAP6 DUP1 SWAP5 SWAP3 PUSH2 0x41A7 DUP4 PUSH2 0x4197 PUSH32 0x56E686F9EA3E6425A97161D5FA1DA55002FF31721D38C6F25C421F683CB113E1 SWAP11 PUSH1 0x60 SWAP11 SWAP9 SWAP7 ADD PUSH2 0xB92 PUSH4 0xFFFFFFFF DUP3 SLOAD PUSH1 0x80 SHR AND PUSH2 0x3EF6 JUMP JUMPDEST PUSH2 0xB79 DUP13 SLOAD DUP7 SHR DUP3 SLOAD DUP8 SHR PUSH2 0x3DCA JUMP JUMPDEST PUSH2 0x41B4 DUP10 DUP4 DUP4 SLOAD AND PUSH2 0x4397 JUMP JUMPDEST PUSH2 0x41C8 DUP11 SLOAD DUP4 DUP4 SLOAD AND DUP5 DUP3 DUP8 SHR SWAP3 AND PUSH2 0x4322 JUMP JUMPDEST SLOAD AND SWAP8 SLOAD SWAP1 DUP4 MLOAD SWAP5 DUP3 AND DUP6 MSTORE SHR SWAP1 DUP4 ADD MSTORE PUSH1 0x1 PUSH1 0x1 PUSH1 0x40 SHL SUB TIMESTAMP AND SWAP1 DUP3 ADD MSTORE LOG3 JUMP JUMPDEST DUP2 MLOAD DUP2 LT ISZERO PUSH2 0x4275 JUMPI SWAP1 DUP7 DUP3 DUP12 DUP9 DUP16 DUP16 PUSH1 0x16 SWAP1 PUSH2 0x420C DUP8 SWAP14 SWAP13 SWAP12 SWAP11 SWAP10 DUP10 PUSH2 0x3BEF JUMP JUMPDEST MLOAD DUP10 MSTORE MSTORE DUP9 DUP2 DUP9 KECCAK256 DUP2 PUSH2 0x421F DUP8 DUP13 PUSH2 0x3BEF JUMP JUMPDEST MLOAD AND SWAP5 PUSH2 0x423E PUSH2 0x4238 PUSH1 0x3 DUP5 ADD SWAP8 DUP6 DUP10 SLOAD DUP9 SHR AND PUSH2 0x3DCA JUMP JUMPDEST DUP8 PUSH2 0x3EC6 JUMP JUMPDEST DUP6 SLOAD SWAP5 DUP6 SWAP3 ADD SLOAD SWAP1 SHR SWAP3 SHR AND LT ISZERO PUSH2 0x425F JUMPI JUMPDEST POP POP ADD SWAP1 SWAP2 SWAP3 SWAP4 SWAP5 SWAP6 PUSH2 0x4146 JUMP JUMPDEST PUSH1 0xFF PUSH1 0xA0 SHL NOT AND PUSH1 0x1 PUSH1 0xA0 SHL OR SWAP1 SSTORE CODESIZE DUP1 PUSH2 0x4251 JUMP JUMPDEST PUSH2 0x414B JUMP JUMPDEST PUSH1 0x60 SHR AND DUP2 MSTORE ADD DUP14 SWAP1 DUP8 CODESIZE PUSH2 0x412F JUMP JUMPDEST SWAP1 SWAP2 SWAP6 DUP6 DUP6 AND DUP2 MSTORE ADD SWAP5 ADD DUP14 DUP7 PUSH2 0x4127 JUMP JUMPDEST SWAP1 SWAP6 SWAP7 SWAP8 SWAP9 SWAP10 SWAP11 SWAP2 SWAP4 DUP12 SWAP4 SWAP6 DUP12 DUP9 SLOAD DUP2 DUP2 AND DUP5 MSTORE PUSH1 0x60 SHR AND SWAP1 DUP3 ADD MSTORE ADD SWAP5 ADD SWAP3 ADD DUP10 SWAP9 SWAP8 SWAP7 SWAP6 SWAP5 SWAP4 SWAP2 DUP16 SWAP4 DUP16 SWAP5 PUSH2 0x4107 JUMP JUMPDEST DUP4 SLOAD DUP6 MSTORE DUP11 SWAP10 SWAP5 ADD SWAP4 SWAP3 DUP4 ADD SWAP3 ADD PUSH2 0x40CD JUMP JUMPDEST DUP11 MLOAD PUSH4 0x1E9ACF17 PUSH1 0xE3 SHL DUP2 MSTORE PUSH1 0x4 SWAP1 REVERT JUMPDEST RETURNDATASIZE ISZERO PUSH2 0x431D JUMPI RETURNDATASIZE SWAP1 PUSH2 0x4303 DUP3 PUSH2 0x3D78 JUMP JUMPDEST SWAP2 PUSH2 0x4311 PUSH1 0x40 MLOAD SWAP4 DUP5 PUSH2 0x3B20 JUMP JUMPDEST DUP3 MSTORE RETURNDATASIZE PUSH1 0x0 PUSH1 0x20 DUP5 ADD RETURNDATACOPY JUMP JUMPDEST PUSH1 0x60 SWAP1 JUMP JUMPDEST PUSH1 0x1 PUSH1 0x1 PUSH1 0xA0 SHL SUB SWAP2 SWAP1 DUP3 AND DUP1 PUSH2 0x434F JUMPI POP PUSH1 0x0 DUP1 SWAP4 DUP2 SWAP4 DUP3 SWAP4 AND GAS CALL PUSH2 0x4347 PUSH2 0x42F2 JUMP JUMPDEST POP ISZERO PUSH2 0x21F JUMPI JUMP JUMPDEST SWAP3 SWAP1 SWAP2 PUSH1 0x40 MLOAD SWAP3 PUSH4 0xA9059CBB PUSH1 0xE0 SHL PUSH1 0x20 DUP6 ADD MSTORE AND PUSH1 0x24 DUP4 ADD MSTORE PUSH1 0x44 DUP3 ADD MSTORE PUSH1 0x44 DUP2 MSTORE PUSH1 0x80 DUP2 ADD SWAP2 DUP2 DUP4 LT PUSH1 0x1 PUSH1 0x1 PUSH1 0x40 SHL SUB DUP5 GT OR PUSH2 0xFF9 JUMPI PUSH2 0x4395 SWAP3 PUSH1 0x40 MSTORE PUSH2 0x4565 JUMP JUMPDEST JUMP JUMPDEST PUSH1 0x1 DUP1 PUSH1 0xA0 SHL SUB AND PUSH1 0x0 SWAP2 DUP2 DUP4 MSTORE PUSH1 0xA PUSH1 0x20 MSTORE PUSH1 0x40 SWAP2 PUSH1 0x1 DUP4 DUP6 KECCAK256 ADD SWAP1 PUSH2 0xFFFF DUP3 SLOAD PUSH1 0xA0 SHR AND SWAP2 DUP3 ISZERO PUSH2 0x44BB JUMPI DUP1 SLOAD PUSH2 0xFFFF PUSH1 0xA0 SHL NOT AND PUSH1 0x0 NOT SWAP4 DUP5 ADD PUSH1 0xA0 SHL PUSH2 0xFFFF PUSH1 0xA0 SHL AND OR SWAP1 SSTORE PUSH2 0x43EC PUSH1 0x1C SLOAD PUSH2 0x3ADD JUMP JUMPDEST PUSH1 0x1C SSTORE DUP5 MSTORE PUSH1 0x14 PUSH1 0x20 MSTORE DUP3 DUP5 KECCAK256 DUP1 SLOAD DUP1 ISZERO PUSH2 0x44AA JUMPI DUP4 DUP7 MSTORE PUSH1 0x15 PUSH1 0x20 MSTORE DUP5 DUP7 KECCAK256 SLOAD SWAP1 DUP4 DUP2 ADD SWAP1 DUP2 GT PUSH2 0x4496 JUMPI DUP1 DUP3 SUB PUSH2 0x4465 JUMPI JUMPDEST POP POP DUP1 SLOAD DUP1 ISZERO PUSH2 0x4451 JUMPI DUP3 ADD SWAP2 PUSH2 0x4437 DUP4 DUP4 PUSH2 0x3BD7 JUMP JUMPDEST SWAP1 SWAP2 DUP3 SLOAD SWAP2 PUSH1 0x3 SHL SHL NOT AND SWAP1 SSTORE SSTORE DUP3 MSTORE PUSH1 0x15 PUSH1 0x20 MSTORE DUP2 KECCAK256 SSTORE JUMP JUMPDEST PUSH4 0x4E487B71 PUSH1 0xE0 SHL DUP7 MSTORE PUSH1 0x31 PUSH1 0x4 MSTORE PUSH1 0x24 DUP7 REVERT JUMPDEST PUSH2 0x446F SWAP1 DUP4 PUSH2 0x3BD7 JUMP JUMPDEST SWAP1 SLOAD SWAP1 PUSH1 0x3 SHL SHR PUSH2 0x4484 DUP2 PUSH2 0x1554 DUP5 DUP7 PUSH2 0x3BD7 JUMP JUMPDEST DUP7 MSTORE PUSH1 0x15 PUSH1 0x20 MSTORE DUP5 DUP7 KECCAK256 SSTORE CODESIZE DUP1 PUSH2 0x4420 JUMP JUMPDEST PUSH4 0x4E487B71 PUSH1 0xE0 SHL DUP8 MSTORE PUSH1 0x11 PUSH1 0x4 MSTORE PUSH1 0x24 DUP8 REVERT JUMPDEST DUP5 MLOAD PUSH4 0x7120DED3 PUSH1 0xE1 SHL DUP2 MSTORE PUSH1 0x4 SWAP1 REVERT JUMPDEST PUSH4 0x4E487B71 PUSH1 0xE0 SHL DUP7 MSTORE PUSH1 0x11 PUSH1 0x4 MSTORE PUSH1 0x24 DUP7 REVERT JUMPDEST SWAP1 PUSH1 0xFF PUSH1 0x1D SLOAD AND SWAP2 DUP3 ISZERO PUSH2 0x451E JUMPI DUP3 DUP2 MUL DUP2 ISZERO SWAP4 DUP3 DUP3 DIV EQ DUP5 OR ISZERO PUSH2 0xC2A JUMPI PUSH1 0x64 SWAP1 DIV SWAP3 DUP4 ISZERO SWAP1 DUP2 PUSH2 0x4515 JUMPI JUMPDEST POP PUSH2 0x450C JUMPI JUMPDEST DUP3 PUSH2 0x3A89 SWAP2 PUSH2 0x3A3A JUMP JUMPDEST PUSH1 0x1 SWAP3 POP PUSH2 0x4502 JUMP JUMPDEST SWAP1 POP ISZERO CODESIZE PUSH2 0x44FC JUMP JUMPDEST PUSH1 0x0 SWAP3 POP SWAP1 JUMP JUMPDEST PUSH1 0x1 PUSH1 0x1 PUSH1 0xA0 SHL SUB AND PUSH1 0x0 SWAP1 DUP2 MSTORE PUSH1 0x17 PUSH1 0x20 MSTORE PUSH1 0x40 SWAP1 KECCAK256 DUP1 SLOAD PUSH1 0xFF DUP2 AND ISZERO PUSH2 0x454B JUMPI POP POP JUMP JUMPDEST PUSH1 0xFF NOT AND PUSH1 0x1 OR SWAP1 SSTORE PUSH1 0x1B SLOAD PUSH2 0x4560 SWAP1 PUSH2 0x3ACE JUMP JUMPDEST PUSH1 0x1B SSTORE JUMP JUMPDEST PUSH1 0x1 DUP1 PUSH1 0xA0 SHL SUB AND SWAP1 PUSH1 0x40 MLOAD PUSH1 0x40 DUP2 ADD SWAP1 DUP1 DUP3 LT PUSH1 0x1 PUSH1 0x1 PUSH1 0x40 SHL SUB DUP4 GT OR PUSH2 0xFF9 JUMPI PUSH2 0x45D6 SWAP2 PUSH1 0x40 MSTORE PUSH1 0x20 SWAP4 DUP5 DUP3 MSTORE PUSH32 0x5361666545524332303A206C6F772D6C6576656C2063616C6C206661696C6564 DUP6 DUP4 ADD MSTORE PUSH1 0x0 DUP1 DUP6 DUP8 DUP3 SWAP8 MLOAD SWAP2 ADD DUP3 DUP6 GAS CALL PUSH2 0x45D0 PUSH2 0x42F2 JUMP JUMPDEST SWAP2 PUSH2 0x4673 JUMP JUMPDEST DUP1 MLOAD SWAP2 DUP3 ISZERO SWAP2 DUP5 DUP4 ISZERO PUSH2 0x4648 JUMPI JUMPDEST POP POP POP SWAP1 POP ISZERO PUSH2 0x45F1 JUMPI POP JUMP JUMPDEST PUSH1 0x84 SWAP1 PUSH1 0x40 MLOAD SWAP1 PUSH3 0x461BCD PUSH1 0xE5 SHL DUP3 MSTORE PUSH1 0x4 DUP3 ADD MSTORE PUSH1 0x2A PUSH1 0x24 DUP3 ADD MSTORE PUSH32 0x5361666545524332303A204552433230206F7065726174696F6E20646964206E PUSH1 0x44 DUP3 ADD MSTORE PUSH10 0x1BDD081CDD58D8D95959 PUSH1 0xB2 SHL PUSH1 0x64 DUP3 ADD MSTORE REVERT JUMPDEST SWAP2 SWAP4 DUP2 DUP1 SWAP5 POP ADD SUB SLT PUSH2 0x466F JUMPI DUP3 ADD MLOAD SWAP1 DUP2 ISZERO ISZERO DUP3 SUB PUSH2 0x466C JUMPI POP DUP1 CODESIZE DUP1 DUP5 PUSH2 0x45E4 JUMP JUMPDEST DUP1 REVERT JUMPDEST POP DUP1 REVERT JUMPDEST SWAP2 SWAP3 SWAP1 ISZERO PUSH2 0x46D5 JUMPI POP DUP2 MLOAD ISZERO PUSH2 0x4687 JUMPI POP SWAP1 JUMP JUMPDEST EXTCODESIZE ISZERO PUSH2 0x4690 JUMPI SWAP1 JUMP JUMPDEST PUSH1 0x40 MLOAD PUSH3 0x461BCD PUSH1 0xE5 SHL DUP2 MSTORE PUSH1 0x20 PUSH1 0x4 DUP3 ADD MSTORE PUSH1 0x1D PUSH1 0x24 DUP3 ADD MSTORE PUSH32 0x416464726573733A2063616C6C20746F206E6F6E2D636F6E7472616374000000 PUSH1 0x44 DUP3 ADD MSTORE PUSH1 0x64 SWAP1 REVERT JUMPDEST DUP3 MLOAD SWAP1 SWAP2 POP ISZERO PUSH2 0x46E8 JUMPI POP DUP1 MLOAD SWAP1 PUSH1 0x20 ADD REVERT JUMPDEST PUSH1 0x40 MLOAD SWAP1 PUSH3 0x461BCD PUSH1 0xE5 SHL DUP3 MSTORE DUP2 PUSH1 0x20 DUP1 PUSH1 0x4 DUP4 ADD MSTORE DUP3 MLOAD SWAP1 DUP2 PUSH1 0x24 DUP5 ADD MSTORE PUSH1 0x0 SWAP4 JUMPDEST DUP3 DUP6 LT PUSH2 0x472E JUMPI POP POP PUSH1 0x44 SWAP3 POP PUSH1 0x0 DUP4 DUP3 DUP5 ADD ADD MSTORE PUSH1 0x1F DUP1 NOT SWAP2 ADD AND DUP2 ADD SUB ADD SWAP1 REVERT JUMPDEST DUP5 DUP2 ADD DUP3 ADD MLOAD DUP7 DUP7 ADD PUSH1 0x44 ADD MSTORE SWAP4 DUP2 ADD SWAP4 DUP6 SWAP4 POP PUSH2 0x470B JUMP INVALID SWAP14 0xC2 SWAP2 DELEGATECALL PUSH18 0xBD5E14A4B7A6ABD538BD61C6C2015BFC18C5 SHR NUMBER DUP6 DIV PUSH3 0x5B758D DUP13 0xCA 0xA6 PUSH22 0x6432D2770FE12F46274FECD47574216E117778B67FF PUSH9 0xEEFA2C3F9D1DA26469 PUSH17 0x66735822122066234CBFF1131CA828E1DB 0xCE PUSH22 0x1718950D6A2CA19CE5D15E16F262310C0DDFA764736F PUSH13 0x63430008180033000000000000 "},"methodIdentifiers":{"acceptOwnership()":"79ba5097","activateEmergencyMode()":"d0096010","allocateGeneralPoolFunds(address,address,uint96)":"6a1eaba6","approveWithdrawalRequest(uint256)":"7b6a4b07","cancelWithdrawalRequest(uint256)":"45b05d09","collectedNativeFees()":"6e542487","collectedTokenFees(address)":"4923a537","createWithdrawalRequest(address,uint96,bytes32,string,uint256[],uint96[])":"a453d80d","deactivateEmergencyMode()":"99b20eaf","donateNative(bytes32)":"69375586","donateToNGO(address,bytes32)":"7c91ad58","donateToken(address,uint96,address,bytes32)":"c82fb50c","emergencyMode()":"0905f560","emergencyRecoverNGOFunds(address,address,uint96)":"2655822d","emergencyRefund(uint256)":"70e5deb9","executeWithdrawal(uint256)":"24f13a76","expireWithdrawalRequest(uint256)":"73a76ccd","feeCollector()":"c415b95c","feeOnTransferBlacklist(address)":"e2daf1a8","getAllNGOs(uint256,uint256)":"3f22987a","getDonation(uint256)":"ef07a81f","getGeneralCooldownRemaining(address)":"4d40108c","getNGOBalance(address,address)":"60181f50","getNGOInfo(address)":"d4e319fc","getPendingRequestCount(address)":"ce09b62a","getPendingRequests(address,uint256,uint256)":"517f0c00","getPlatformStats()":"136d8883","getRequestApprovalStatus(uint256,address)":"775d286a","getTotalNGOs()":"1bc3812d","getWithdrawalCooldownRemaining(address)":"19f403a2","isNGOApprover(address,address)":"39447490","isRegisteredNGO(address)":"7796980e","isRequestExpired(uint256)":"7df7f3be","manageNGOApprover(address,address,bool)":"a01504bb","minTokenDonation(address)":"384d0dd8","ngoBalances(address,address)":"3e29be98","ngoRecords(address)":"4cfc86cc","owner()":"8da5cb5b","pause()":"8456cb59","pauseNGOWithdrawals(address,bool)":"94c9ce68","paused()":"5c975abb","pendingOwner()":"e30c3978","platformFeePercent()":"8c639a85","registerNGO(address,bytes32,address[],uint8)":"8cd849f6","rejectWithdrawalRequest(uint256)":"9af86345","renounceOwnership()":"715018a6","setFeeOnTransferBlacklist(address,bool)":"cc2f0cc4","setTokenMinDonation(address,uint256)":"4c45ad71","transferOwnership(address)":"f2fde38b","unpause()":"3f4ba83a","updateFeeCollector(address)":"d2c35ce8","updateMinApprovals(address,uint8)":"196c459d","updateNGOStatus(address,bool)":"36261849","updatePlatformFee(uint8)":"51fb3cb5","verifyWithdrawalPurpose(uint256,string)":"5d371bbd","whitelistToken(address,bool)":"0ffb1d8b","whitelistedTokens(address)":"daf9c210","withdrawAllocatedGeneralFunds(address,uint96,bytes32,string)":"cb7e8ce8","withdrawCollectedFees(address,uint96)":"37dcc450","withdrawalRequests(uint256)":"937b2581"}}}}}